:020000040800F2
:10000000C006002065020008A71200088911000838
:10001000A5120008D1050008931400080000000094
:10002000000000000000000000000000AB1200080B
:10003000D305000800000000A9120008AD12000856
:100040007F0200087F0200087F0200087F0200088C
:100050007F0200087F0200087F0200087F0200087C
:100060007F0200087F0200087F0200087F0200086C
:100070007F0200087F0200087F0200087F0200085C
:100080007F0200087F0200087F0200087F0200084C
:100090007F0200087F0200087F0200087F0200083C
:1000A0007F0200087F0200087F0200087F0200082C
:1000B0007F0200087F0200087F0200087F0200081C
:1000C0007F0200087F0200087F0200087F0200080C
:1000D0007F0200087F0200087F0200087F020008FC
:1000E0007F0200087F0200087F0200087F020008EC
:1000F0007F0200087F0200087F0200087F020008DC
:100100007F0200087F0200087F0200087F020008CB
:100110007F0200087F0200087F0200087F020008BB
:100120007F0200087F0200087F0200087F020008AB
:100130007F02000800000000000000007F020008AD
:100140007F0200087F0200087F0200087F0200088B
:100150007F0200087F0200087F0200087F0200087B
:100160007F0200087F0200087F0200087F0200086B
:100170007F0200087F0200087F02000800000000E4
:10018000000000007F0200080000000000000000E6
:100190007F02000800000000000000007F0200084D
:1001A0000000000000000000000000007F020008C6
:1001B0007F0200087F0200087F0200087F0200081B
:1001C0007F02000800F002F800F03CF80AA090E876
:1001D000000C82448344AAF10107DA4501D100F002
:1001E00031F8AFF2090EBAE80F0013F0010F18BF93
:1001F000FB1A43F00103184700130000201300000E
:10020000103A24BF78C878C1FAD8520724BF30C842
:1002100030C144BF04680C60704700000023002414
:1002200000250026103A28BF78C1FBD8520728BF06
:1002300030C148BF0B6070471FB501F04BF91FBDBF
:1002400010B510BD00F0CFF81146FFF7F5FF01F033
:1002500031F900F0EDF803B4FFF7F2FF03BC00F052
:10026000F5F800000948804709480047FEE7FEE727
:10027000FEE7FEE7FEE7FEE7FEE7FEE7FEE7FEE756
:1002800004480549054A064B704700004913000819
:10029000C5010008C0000020C0060020C0020020E8
:1002A000C002002053EA020C00F069802DE9F04BF7
:1002B0004FF00006002B1FBFB3FA83F503FA05F4D5
:1002C00024FA05F65E4012BF1643B2FA82F502FA2E
:1002D00005F4C5F120051EBF22FA05FC44EA0C0412
:1002E000203556EA044C4FEA144418BF641C4FF002
:1002F00000084FF00009904271EB030C39D300293C
:1003000019BFB1FA81F701FA07F6B0FA80F700FADF
:1003100007F6C7F120071EBF20FA07FC46EA0C06C5
:100320002037B6FBF4FCA7EB0507103F07F01F0BC7
:10033000CBF120060CFA0BFB2CFA06F644BFB346B1
:100340000026202FA4BF5E464FF0000B5BEA060C90
:1003500008BF4FF0010B19EB0B09ABFB027C48EB1C
:100360000608C01B06FB02CC0BFB03CC71EB0C0197
:10037000C1E70B46024641464846BDE8F08B13B53F
:100380004FF000004FF00001AFF30080BDE81C40CB
:1003900070474FF0000200B5134694469646203948
:1003A00022BFA0E80C50A0E80C50B1F12001BFF42E
:1003B000F7AF090728BFA0E80C5048BF0CC05DF894
:1003C00004EB890028BF40F8042B08BF704748BFE2
:1003D00020F8022B11F0804F18BF00F8012B704756
:1003E000704770477047754600F02CF8AE46050020
:1003F0006946534620F00700854618B020B5FFF740
:100400003FFFBDE820404FF000064FF000074FF0DF
:1004100000084FF0000B21F00701AC46ACE8C00922
:10042000ACE8C009ACE8C009ACE8C0098D4670472B
:1004300010B50446AFF300802046BDE81040FFF73A
:100440000ABF0000004870476000002001491820E2
:10045000ABBEFEE72600020070470000F0B587B093
:1004600014216846FFF795FF224C0025206840F0D4
:10047000010020602068204F00F00100059001225B
:1004800048F21001384600F097F900224FF47061ED
:10049000384600F091F9E0140126CDE9000602206B
:1004A000CDE902056946384600F098F848F2107028
:1004B0000090CDE9016569463846039500F08EF855
:1004C000206840F00800206020680C4C00F0080014
:1004D000059001220421204600F06EF904200090CE
:1004E000CDE9016569462046039500F077F807B02D
:1004F000F0BD00003038024000000240000C024015
:1005000010B5144C2068B0F1804F1ED11248134929
:100510000068884219D100F0C7FA1149884214D105
:1005200010480068C00110D40E4884380068C0F339
:100530008220052809D16068592806D1A06820B911
:10054000E068401C01D1206908B1002010BD0120E5
:1005500010BD0000180000200C0000200095BA0A11
:1005600040A5AE028C38024010B5154C207808BB6F
:10057000FFF7C6FF00281ED01248016841F08071C5
:1005800001601149002048600A6842F001020A60D7
:10059000096811F0010F0DD060600C490A685062C3
:1005A0000968801E08611C2000F06CF9074800F003
:1005B0003DFD08B1002010BD0120207010BD0000DD
:1005C00010000020FCED00E0001000E0180000200A
:1005D000FEE7704772B6FFF741FFFEE72DE9F84FDF
:1005E000DFF8ACA10022012403254FF00F090AF126
:1005F000040BAAF1040E00BF0B6804FA02F63340A4
:10060000B3426ED10F7907F00307012F01D0022FFB
:1006100016D187684FEA420805FA08FC27EA0C075A
:10062000D1F80CC00CFA08FC4CEA070CC0F808C062
:100630004768B7430E79C6F3001696403E434660BE
:100640000E79F643B6070AD0C6684FEA420C05FA9F
:100650000CF7BE438F6807FA0CF73743C7600E7973
:1006600006F00306022E10D1D60800EB8608D8F853
:10067000206057074FEAD76C09FA0CF7BE430F69A1
:1006800007FA0CF73743C8F8207006684FEA420CA7
:1006900005FA0CF7BE430F7907F0030707FA0CF7CA
:1006A000374307604E6816F4403F6BD0394E3768C9
:1006B00047F480473760366822F0030706F4804627
:1006C0000096354E07EB060CDCF8086897074FEAF2
:1006D000177809FA08F7BE43304FB84202D1002715
:1006E0001FE04FE02E4FB84201D1012719E02D4FF6
:1006F000B84201D1022714E02B4FB84201D10327A1
:100700000FE02A4FB84201D104270AE0284FB8422F
:1007100001D1052705E0274FB84201D1062700E0A7
:10072000072707FA08F73743CCF80878DAF80060AB
:100730005746D1F804C09E435FEACC2C00D51E4337
:100740003E60DBF800605F46D1F804C09E435FEA7C
:100750008C2C00D51E433E60DEF800607746D1F851
:1007600004C09E435FEA8C3C00D51E433E60084FA8
:10077000083F3E68D1F804C09E435FEACC3C00D5F8
:100780001E433E60521C102AFFF436AFBDE8F88FBE
:10079000083C014044380240003001400000024063
:1007A0000004024000080240000C02400010024019
:1007B00000140240001802400AB181617047090428
:1007C000FBE700000148806870470000000000203F
:1007D000024881680278114481607047000000205F
:1007E0000B4810B5016841F400710160016841F4E3
:1007F00080610160016841F480710160032000F0B4
:100800006FF80F2000F006F800F024F8002010BD6B
:10081000003C024070B50D4D04464FF47A712878C3
:10082000B1FBF0F00A490968B1FBF0F000F062FB9F
:1008300048B9102C07D200222146501E00F030F893
:1008400000206C6070BD012070BD00000000002021
:100850000C0000200A4808B5016841F4804101609D
:10086000006800F4804000900548001F016841F0D6
:1008700080510160006800F08050009008BD0000C9
:1008800044380240002809DB00F01F02012191409A
:100890004009800000F1E020C0F88012704700009D
:1008A000F0B40E4B1B680C46C3F30223C3F10705DB
:1008B000042D00D90425191D072901D2002300E0C9
:1008C000DB1E012606FA05F1491E214099409E4093
:1008D000761E16403143F0BC00F0DCBD0CED00E0AC
:1008E000064900F0070208684FF6FF03184040EA87
:1008F0000220034A10430860704700000CED00E03E
:100900000000FA052DE9F8431748016841F08051CD
:1009100001600068154F00F08050012600903E6491
:10092000FFF750FF05464FF47A78114C05E000BF01
:10093000FFF748FF401B40450DD86068C003F7D55E
:100940007E64FFF73FFF0546464607E0FFF73AFFA4
:10095000401BB04202D90320BDE8F88360688003E1
:10096000F4D50020F8E700004038024000000E42B5
:10097000007000402DE9F0470E46050065D0DFF815
:100980001481D8F80000F7B200F00F00B04207D28F
:1009900088F80070D8F8000000F00F00B04254D181
:1009A00028683D4C810712D5400703D5206840F4E4
:1009B000E05020602878000703D5206840F46040AC
:1009C00020602068A96820F0F000084320602878A3
:1009D000C0072DD0304968680839012812D0022894
:1009E00013D0032811D00968890700292DDA21685E
:1009F00021F0030101432160FFF7E4FE814641F24B
:100A0000883A0EE009688903EFE709688901ECE795
:100A1000FFF7D8FEA0EB0901514502D90320BDE83C
:100A2000F0872068696800F00C00B0EB810FEFD10F
:100A3000D8F80010404601F00F01B14207D9077005
:100A4000006800F00F00B04201D00120E7E72878ED
:100A5000400705D52068E96820F4E050084320608D
:100A60002878000706D52068296920F4604040EA0C
:100A7000C100206000F028F82168084AC1F3031182
:100A8000515CC8400649086006480068FFF7C2FE8E
:100A90000020C4E7003C024008380240DE14000891
:100AA0000C00002004000020044805490068096883
:100AB000044AC1F38221515CC84070470C000020F9
:100AC00008380240EE140008224810B5006810F003
:100AD0000C02214815D04110042A11D01D4C241FAE
:100AE000082A0FD00C2A0CD12268236802F03F029A
:100AF0005B0221D52068C0F38810A0FB010120E033
:100B0000084610BD2268236802F03F025B0205D54B
:100B10002068C0F38810A0FB010104E02168C1F344
:100B20008811A1FB00010023FFF7BCFB2168C1F382
:100B30000141491C49000AE02168C1F38811A1FB69
:100B400000010023FFF7AEFB2168C1F30271B0FB87
:100B5000F1F010BD083802400024F4002DE9F84FF0
:100B600004007DD0DFF878B32078ABF10407C0072C
:100B7000A7F1040550D0DBF800105846C1F38101FD
:100B800001290FD00168C1F38101022902D139681E
:100B9000490207D40068C0F38100032809D13868EE
:100BA000400206D52868800336D560680028D8D072
:100BB00032E06068B0F5803F10D0B0F5A02F286813
:100BC00010D020F480302860286820F4802028602D
:100BD0006068A0B1FFF7F6FD06460CE0286840F417
:100BE0008030F4E740F480202860F7E7FFF7EAFD63
:100BF000801B642876D828688003F7D50CE0FFF7BF
:100C0000E1FD064605E000BFFFF7DCFD801B642820
:100C1000F0D828688003F7D42078DFF8C8928007DE
:100C20004FF0000A44D5DBF80010584611F00C0FC5
:100C30000FD00168C1F38101022902D1396849024C
:100C400007D50068C0F3810003280AD13868400244
:100C500007D42868800715D5E068012800D111E085
:100C60003AE1E068B0B10120C9F80000FFF7AAFD41
:100C7000064604E0FFF7A6FD801B0228BAD82868C4
:100C80008007F7D52868216920F0F80040EAC10004
:100C900028600DE0C9F800A0FFF794FD064604E0C7
:100CA000FFF790FD801B02281CD828688007F7D426
:100CB0002078000727D5DFF828828B48616908F182
:100CC0006C0881B101210160FFF77CFD064604E05C
:100CD000FFF778FD801B022804D8D8F800008007B1
:100CE000F6D510E089E0C0F800A0FFF76BFD0646DE
:100CF00005E000BFFFF766FD801B02287DD8D8F80D
:100D000000008007F6D42078400769D574484FF07A
:100D1000000838300068C0000BD4714838300168D2
:100D200041F08051016000684FF0010800F08050F0
:100D300000906E4E3068C00511D4306840F4807069
:100D40003060FFF73FFD009006E000BFFFF73AFD7F
:100D50000099401A022850D83068C005F6D5604E78
:100D6000A068683601280FD00528306810D020F020
:100D700001003060306820F004003060A068B8B135
:100D8000FFF720FD00900FE0306840F00100F4E72D
:100D900040F004003060F7E7FFF714FD0099411AB6
:100DA00041F28830814264D830688007F4D50EE083
:100DB000FFF708FD009007E0FFF704FD0099411AD6
:100DC00041F28830814254D830688007F4D4B8F1B9
:100DD000000F05D042483830016821F08051016091
:100DE000A069A8B3DBF80010C1F38101022947D044
:100DF0000228C9F860A005D000E03AE0FFF7E2FC65
:100E0000044639E0FFF7DEFC064604E0FFF7DAFCB3
:100E1000801B02282DD828688001F7D4F4E9070147
:100E20000843E168324A490802EB0141A26841EAFD
:100E300082110843217C40EA0160217D40EA017073
:100E400038600120C9F86000FFF7BCFC044606E0EA
:100E500044E000BFFFF7B6FC001B022809D8286851
:100E60008001F7D53AE000BFFFF7ACFC001B022879
:100E700002D90320BDE8F88F28688001F4D42DE062
:100E80000128F7D03868E26900F48001914223D14B
:100E9000226A00F03F0191421ED147F6C071626A9A
:100EA0000140B1EB821F17D1A26A4FF0FF3300F46B
:100EB000403103EB5202B1EB024F0DD194F82C20DC
:100EC00000F07061B1EB026F06D194F8301000F0C1
:100ED000E040B0EB017F01D00120CBE70020C9E763
:100EE0000838024000004742800E47420070004030
:100EF0000000FFFF10B5401EB0F1807F01D301203C
:100F000010BD4FF0E02460610F21601700F0C2FABD
:100F10000020A06107202061002010BD70B590F86E
:100F20003C20012A32D0012480F83C40022280F883
:100F30003D2003685A689D6822F070060A683243B3
:100F40005A60134B02689A4214D0B2F1804F11D00C
:100F5000104B9A420ED0104B9A420BD00F4B9A4234
:100F600008D00F4B9A4205D00E4B9A4202D00E4B3E
:100F70009A4204D1496825F080031943916080F8B2
:100F80003D40002180F83C10084670BD022070BD35
:100F9000000001400004004000080040000C004038
:100FA00000040140004001400018004010B504005A
:100FB00003D094F83D0010B107E0012010BD0020DF
:100FC00084F83C00204600F01FF8022084F83D0021
:100FD000211D206800F0C0F9012084F8460084F843
:100FE0003E0084F83F0084F8400084F8410084F813
:100FF000420084F8430084F8440084F8450084F8F3
:101000003D00002010BD000008B50068B0F1804F21
:1010100008D10548016841F001010160006800F055
:101020000100009008BD00004038024090F83D10DB
:10103000012901D001207047022180F83D1001688C
:10104000CA6842F00102CA6000681149884214D09F
:10105000B0F1804F11D00F4988420ED00E4988421E
:101060000BD00E49884208D00D49884205D00D4961
:10107000884202D00C49884204D1816801F00701FE
:10108000062903D0016841F001010160002070478A
:10109000000001400004004000080040000C004037
:1010A00000040140004001400018004070B50446B3
:1010B00090F83C000025012817D0012684F83C60F8
:1010C000022084F83D002068826822F0770222F432
:1010D0007F4282600868502838D00DDC20284FD02D
:1010E00005DC90B3102811D14AE0022070BD3028F1
:1010F00046D040280AD13BE060282FD070280DD080
:10110000B0F5805F03D0B0F5005F12D0012584F800
:101110003D60002084F83C00284670BDCB68D1E9D2
:101120000121206800F080F92068816841F0770192
:1011300009E0CB68D1E90121206800F075F9206849
:10114000816841F480418160E1E719E0CA6849683B
:10115000206800F07BF95021206806E0CA684968E1
:10116000206800F084F96021206800F067F9CEE77C
:10117000CA684968206800F069F940212068F4E7EE
:10118000226801461046F0E7FEE70000F0B587B0A0
:1011900014216846FFF7FDF826480024016841F055
:1011A00080010160016801F080010591016841F052
:1011B00001010160016801F001010591016841F040
:1011C0000801016000681C4E00F008000590012233
:1011D00048F210013046FFF7EFFA00224FF4706139
:1011E0003046FFF7E9FA154F012204213846FFF790
:1011F000E3FA48F2107000900125CDE901546946E8
:1012000030460394FFF7EAF9E802CDE90005022031
:10121000CDE9020469463046FFF7E0F9042000906A
:10122000CDE90154694638460394FFF7D7F907B072
:10123000F0BD00003038024000000240000C0240C7
:1012400010B586B0002416480094019402940394CB
:1012500004944FF08041059401605921C0E90114C4
:10126000611EC0E903148461FFF7A0FE08B1FFF717
:10127000B1F94FF48050009069460948FFF716FF16
:1012800008B1FFF7A7F9049404A905480594FFF7EE
:1012900045FE002801D0FFF79DF906B010BD000003
:1012A00018000020FEE7FEE770477047FFF790BA8E
:1012B00030B593B034216846FFF76BF814210DA8C0
:1012C000FFF767F81E480025016841F08051016072
:1012D000006800F0805012901A48016841F44041C3
:1012E00001600068022400F4404012900120009048
:1012F000000401908001CDE90640082008904FF4D9
:10130000B470CDE909040B9468460C94FFF726FCF1
:1013100088B9FFF7F7FA70B90DA90F2081E83100FD
:101320004FF4A0501090E002119005210DA8FFF796
:1013300021FB002801D0FFF74DF913B030BD0000AC
:1013400040380240007000400248016841F47001DA
:101350000160704788ED00E0F0B50268274B284D2A
:10136000284E294F294C4FF0804C984209D06045B7
:1013700007D0A84205D0B04203D0B84201D0A04265
:1013800004D122F0700E4A6842EA0E0298421BD045
:10139000604519D0A84217D0B04215D0B84213D03A
:1013A000A04211D01A4DA8420ED01A4DA8420BD01F
:1013B000194DA84208D0194DA84205D0184DA84291
:1013C00002D0184DA84203D122F44075CA682A43BE
:1013D0004D6922F080022A438D68C5620D688562DE
:1013E000984201D0A04201D109690163016841F02E
:1013F00004010160012141610260F0BD0000014073
:101400000004004000080040000C004000040140BF
:1014100000400140004401400048014000180040E5
:10142000001C00400020004010B5846842EA0322FE
:1014300024F47F440A432243826010BD826822F074
:1014400070020A4342F007018160704710B5036AD9
:10145000046A24F001040462846924F0F00444EA7C
:10146000021423F00A020A438461026210BD10B51F
:10147000036A046A24F010040462846923F0A00360
:1014800024F4704444EA023243EA011182610162A9
:1014900010BDFEE70907090E002804DB00F1E0207B
:1014A00080F80014704700F00F0000F1E02080F891
:1014B000141D7047FEF7D2FFFFF792F9FFF7F8FE11
:1014C000FFF764FEFFF7BCFEFFF74EF800B1FEE742
:1014D000FFF780F84FF04070E1EE100A704700000F
:1014E00000000000000001020304060708090000D4
:1014F000000001020304000018150008000000208D
:101500001800000000020008301500081800002034
:10151000A80600001C0200080100000010000000E6
:10152000000000000024F4000000000000000000A3
:04000005080001C529
:00000001FF
