:020000040800F2
:10000000F00F0020650200082B3400084D2F000877
:10001000293400088D09000819400008000000007C
:100020000000000000000000000000003939000856
:10003000710A000800000000D53400083B390008B0
:100040007F0200087F0200087F0200087F0200088C
:100050007F0200087F0200087F0200087F0200087C
:100060007F0200087F0200087F0200087F0200086C
:100070007F0200087F0200087F0200087F0200085C
:100080007F0200087F0200087F0200087F0200084C
:10009000910900087F0200087F0200087F02000823
:1000A0007F020008E93900087F0200087F0200088B
:1000B000E13A00087F0200087F0200087F02000882
:1000C0007F0200087F0200087F0200087F0200080C
:1000D0007F0200087F0200080D4000087F02000830
:1000E0007F0200087F0200087F0200087F020008EC
:1000F0007F0200087F0200087F0200087F020008DC
:100100007F0200087F0200087F0200087F020008CB
:100110007F0200087F0200087F0200087F020008BB
:100120007F0200087F0200087F0200087F020008AB
:100130007F02000800000000000000007F020008AD
:100140007F0200087F0200087F0200087F0200088B
:100150007F0200087F0200087F0200087F0200087B
:100160007F0200087F0200087F0200087F0200086B
:100170007F0200087F0200087F02000800000000E4
:10018000000000007F0200080000000000000000E6
:100190007F02000800000000000000007F0200084D
:1001A0000000000000000000000000007F020008C6
:1001B0007F0200087F0200087F0200087F0200081B
:1001C0007F02000800F002F800F03CF80AA090E876
:1001D000000C82448344AAF10107DA4501D100F002
:1001E00031F8AFF2090EBAE80F0013F0010F18BF93
:1001F000FB1A43F001031847D4510000F4510000EA
:10020000103A24BF78C878C1FAD8520724BF30C842
:1002100030C144BF04680C60704700000023002414
:1002200000250026103A28BF78C1FBD8520728BF06
:1002300030C148BF0B6070471FB504F0B6FC1FBD4E
:1002400010B510BD00F014F91146FFF7F5FF04F0EA
:10025000ADF800F032F903B4FFF7F2FF03BC00F091
:1002600035F900000948804709480047FEE7FEE7E6
:10027000FEE7FEE7FEE7FEE7FEE7FEE7FEE7FEE756
:1002800004480549054A064B70470000D939000863
:10029000C5010008F0090020F00F0020F00B00203D
:1002A000F00B002053EA020C00F069802DE9F04BBE
:1002B0004FF00006002B1FBFB3FA83F503FA05F4D5
:1002C00024FA05F65E4012BF1643B2FA82F502FA2E
:1002D00005F4C5F120051EBF22FA05FC44EA0C0412
:1002E000203556EA044C4FEA144418BF641C4FF002
:1002F00000084FF00009904271EB030C39D300293C
:1003000019BFB1FA81F701FA07F6B0FA80F700FADF
:1003100007F6C7F120071EBF20FA07FC46EA0C06C5
:100320002037B6FBF4FCA7EB0507103F07F01F0BC7
:10033000CBF120060CFA0BFB2CFA06F644BFB346B1
:100340000026202FA4BF5E464FF0000B5BEA060C90
:1003500008BF4FF0010B19EB0B09ABFB027C48EB1C
:100360000608C01B06FB02CC0BFB03CC71EB0C0197
:10037000C1E70B46024641464846BDE8F08B13B53F
:100380004FF000004FF00001AFF30080BDE81C40CB
:10039000704710B5203AC0F00B80B1E81850203AF1
:1003A000A0E81850B1E81850A0E81850BFF4F5AF15
:1003B0005FEA027C24BFB1E81850A0E8185044BF9F
:1003C00018C918C0BDE810405FEA827C24BF51F80C
:1003D000043B40F8043B08BF7047D20728BF31F800
:1003E000023B48BF11F8012B28BF20F8023B48BF51
:1003F00000F8012B70474FF0000200B513469446F9
:100400009646203922BFA0E80C50A0E80C50B1F16C
:100410002001BFF4F7AF090728BFA0E80C5048BF80
:100420000CC05DF804EB890028BF40F8042B08BF1E
:10043000704748BF20F8022B11F0804F18BF00F81A
:10044000012B704770477047704710B500F008F8EF
:10045000006810BD10B5044600F002F8046010BD3D
:10046000004870478C090020004870478C09002024
:100470007546FFF7F9FFAE4605006946534620F082
:100480000700854618B020B5FFF7FAFEBDE820400A
:100490004FF000064FF000074FF000084FF0000B40
:1004A00021F00701AC46ACE8C009ACE8C009ACE8F3
:1004B000C009ACE8C0098D46704710B50446AFF3DB
:1004C00000802046BDE81040FFF7C5BE0149182056
:1004D000ABBEFEE72600020070470000464910B59B
:1004E0004A6822F440324A604A6843681A434A60C4
:1004F00001684A6822F480724A6001684A680369A8
:1005000042EA03224A6001684A6822F040724A6067
:1005100001684A6883681A434A6001688A6822F45D
:1005200000628A6001688A68C3681A438A60816AC7
:100530006FF07062D14201688A6822F070628A604E
:1005400001688A680CD0836A1A438A6001688A68E5
:1005500022F040528A6001688A68C36A1A4301E047
:1005600022F040528A6001688A6822F002028A60A2
:1005700001688A68037E42EA43028A6090F820108C
:10058000002901684A680FD042F400624A6001689D
:100590004A6822F460424A6001684A68174C436A1C
:1005A00004EB43331A4301E022F400624A6001681D
:1005B000CA6A22F47002CA620168CA6A838B104C4C
:1005C00004EB03531A43CA6201688A6822F400727A
:1005D0008A6001688A6890F8303042EA43228A6073
:1005E00001688A6822F480628A6001688A684069CA
:1005F00042EA8020886010BD0023014000E0FFFF38
:100600000000F0FF2DE9F047044680682349401CB4
:10061000A060002020732048214E0068B0FBF1F05C
:10062000316800EB80076FF012000860DFF874801B
:10063000D8F800100860DFF87090D9F80010086052
:1006400000F09EF9194D8246A86840F08040A860ED
:1006500004E0504600F05AF9B8421AD230680068F7
:10066000C0438007F5D4D8F800000068C043800775
:10067000EFD4D9F800000068C0438007E9D4E86CE3
:100680002080D5F84C016080D5F84C02A080012074
:100690002073BDE8F08700000C00002040420F00EE
:1006A00070030020B8030020000400200020014057
:1006B00010B5084C217859B124220749FFF769FE8B
:1006C000002020700221054800F0ECFC012010BD44
:1006D000002010BD22000020C80600204804002091
:1006E00010B58AB0044628216846FFF784FE002131
:1006F0000120CDE9061062010591CDE900214FF6F8
:10070000E072CDE90221049108900E20099069461B
:10071000024800F037FD0AB010BD00004804002078
:1007200010B501220449054802F0DCFB08B10020A5
:1007300010BD012010BD00001A000020B0050020EF
:1007400070B50022002810D0EFF3058169B9134C71
:10075000617851B903E0521C92B2802A03D2815CC5
:100760000029F8D103E0815C09B1002070BD92B18D
:100770000121617000210A4B03E0455C5D54491C76
:1007800089B29142F9D30649064802F0BAFB10B18A
:1007900000206070E9E7012070BD00001800002013
:1007A00048060020B005002038B5EFF3108472B67B
:1007B00010490A7812B948700120087000F020F83A
:1007C0000D480021026842F001020260006800F05A
:1007D000010000900948426C22F400424264016228
:1007E000C160016821F001010160BFF34F8F84F304
:1007F000108838BD2000002044380240000001402D
:10080000F0B587B014216846FFF7F5FD224C0025AE
:10081000206840F0010020602068204F00F00100B7
:100820000590012248F21001384601F02FF900220C
:100830004FF47061384601F029F9E0140126CDE942
:1008400000060220CDE902056946384601F030F87D
:1008500048F210700090CDE901656946384603956D
:1008600001F026F8206840F00800206020680C4C59
:1008700000F00800059001220421204601F006F94D
:1008800004200090CDE9016569462046039501F0FA
:100890000FF807B0F0BD0000303802400000024001
:1008A000000C024010B5144C2068B0F1804F1ED1EE
:1008B000124813490068884219D101F06BFA1149B6
:1008C000884214D110480068C00110D40E48843802
:1008D0000068C0F38220052809D16068592806D134
:1008E000A06820B9E068401C01D1206908B100204F
:1008F00010BD012010BD0000680500200C00002084
:100900000095BA0A40A5AE028C38024001494968F8
:10091000081A7047001000E010B5154C207808BB8D
:10092000FFF7C0FF00281ED01248016841F0807117
:1009300001601149002048600A6842F001020A6023
:10094000096811F0010F0DD060600C490A6850620F
:100950000968801E08611C2001F0FEF8074801F0BC
:10096000E5FE08B1002010BD0120207010BD000080
:1009700010000020FCED00E0001000E06805002001
:100980000148406870470000001000E0FEE70000EA
:10099000014800F00ABD0000480400202DE9F041A4
:1009A000224E0122DFF8888086B00024D7023470FE
:1009B0003946404601F06AF8012000F067FF012047
:1009C000CDE90140CDE9034000220346114610461F
:1009D000009404F00EF805001BD10320019402944A
:1009E000CDE903400346002201211046009403F0A4
:1009F000E3FF05000DD10F20009003230122022107
:100A0000002004F013F8050003D103F0C1FB05003A
:100A100006D000223946404601F038F8002000E0B8
:100A20000120307006B02846BDE8F0813800002073
:100A30000000024033B50C4D0C4681B0002210215D
:100A4000284601F023F8022000900123224601A944
:100A5000064801F08BFC044601221021284601F0D3
:100A600015F820463EBD0000000002407004002042
:100A7000704772B60120FFF797FEFEE770B50C884D
:100A800004804B8843808D8885808E688660097BD2
:100A9000017321B390ED070ADFED220A9FED221AC0
:100AA00060EE200A00EE105AB8EE400A20EE010A6D
:100AB0009FED1E1A40EE010A9FED1D0AC0ED070AC8
:100AC000D16971B1016F591A00EE901AF8EEE00A7F
:100AD00060EE800AC0ED050AC16E611A0DE00020CB
:100AE00070BDC16E611A00EE901AF8EEE00A60EE79
:100AF000800AC0ED050A016F591A00EE901AF8EE4F
:100B0000E00A20EE800A80ED060A90ED050AD0ED9D
:100B1000060AB1EE400A30EE600A80ED040A0120B8
:100B200070BD00003333733FCDCC4C3D3333533C69
:100B30000000A53C2DE9F04190462DED0A8B8AB0CE
:100B40001E460D4604461A461A9FFFF797FF0028D7
:100B50007CD095F828000028FAD005F11002414613
:100B6000204603F063FE04F1100095ED060A04F13F
:100B70002401D0EC030A103003F026FB94ED0A0A9E
:100B8000DFED710AD4ED091A20EE201A9FED6F0AED
:100B900001EE801A84ED0A1A94ED0B1A61EE200A18
:100BA00094ED081A41EE000AC4ED0B0AD4ED230AB5
:100BB00094ED070A9FED661A50EE010A94ED240A9F
:100BC0009FED641A00EE810A84ED240ADFED620ACB
:100BD00003F057FAD6ED060AF1EE600A03F02DFA9B
:100BE00084ED240A84ED1D0A04F1780196ED030AD0
:100BF000081F03F081FB94ED1D0AD4ED080AD4ED23
:100C000014BA94ED15BA30EE60AA94ED1E0AD4ED34
:100C1000090A94ED1ACA94ED078A70EE609A94ED71
:100C2000160A6BEE800A94ED190A00EE8A0AD4EDDA
:100C3000170A6BEE200A00EEA9CADFED48AA68EE9B
:100C40002A8AF0EE680A03F01CFA00E079E0DFED92
:100C5000440A28EE209AF0EE490A03F0EEF984EDFA
:100C6000190AB0EE408AF0EE680AB0EE4C0A03F0C2
:100C700008FAF0EE490A03F0E0F90BEE8A8AF0EE8A
:100C8000400A84ED1A0A4BEE290A84ED0C8A28EEFC
:100C9000080AC4ED0D0A00EEA00A03F016FA84ED6E
:100CA000230A94ED070A04F13401081F20EE2A0AF2
:100CB00003F022FBD4ED0C0A94ED070A08A880EE9D
:100CC000801A8DED081AD4ED0D0A80EE801A8DED94
:100CD000001A03F039FB684603F036FB94ED070A6F
:100CE000DDED080A04F14C02111F60EE200A081F16
:100CF000C4ED0C0A9DED001A20EE011A84ED0D1AC8
:100D000095ED060A03F0FEF904F14400021FD0EC51
:100D1000030A111F94ED070A0C3803F025FD94ED2A
:100D20000E0A012087ED000A94ED0F0A87ED010AF3
:100D300094ED100A87ED020A0AB0BDEC0A8BBDE8FB
:100D4000F0810020F8E700003333733FCDCC4C3DF9
:100D50003333133F6F12833A000000003333933F65
:100D6000333393BFDFED020A30EEC00A00F002B861
:100D7000DB0FC93FDFED100A02E000BF30EE200AB2
:100D8000B5EEC00AF1EE10FAF8D30C4910EE100AD5
:100D9000884202DB30EE600AF8E7DFED090A094914
:100DA00020EE200ABDEEC00A10EE100A01EB800012
:100DB00090ED000A70470000DB0FC940DB0FC9400F
:100DC00083F9A242CC4B000810B590F83C20012AD0
:100DD0001FD0012200F83C2F0F4A536823F01F0355
:100DE000536053680C6823435360536823F44043B3
:100DF000536053684C6823435360536823F4706313
:100E00005360536889680B435360002101700846A2
:100E100010BD022010BD00000023014078B5002461
:100E2000009490F83C20012A19D0012280F83C203F
:100E30000A6807230568092A13D9EE680A3A02EB03
:100E4000420293409E43EE600B788A680A3B03EBB4
:100E500043039A400368DD682A43DA6010E0022009
:100E600078BD2E6902EB420293409E432E610B78BF
:100E70008A6803EB43039A4003681D692A431A6199
:100E80004A681F23072A13D205686E6B521E02EBB5
:100E9000820293409E436E630A8893B20A79521E7F
:100EA00002EB820293400268556B2B43536327E0A9
:100EB00005680D2A12D22E6BD21F02EB82029340DC
:100EC0009E432E630B790A88DB1F92B203EB8303E8
:100ED0009A4003681D6B2A431A6311E0EE6A0D3ACB
:100EE00002EB820293409E43EE620B790A880D3B2F
:100EF00092B203EB83039A400368DD6A2A43DA6205
:100F00001B4B0568194A9D420AD10D68122D07D165
:100F1000556825F400055560556845F48005556011
:100F200005689D421DD1134D0B68AB4201D0112BBA
:100F300017D1536823F480035360536843F40003CC
:100F400053600968A9420CD10B490C4A0968B1FBEE
:100F5000F2F101EB8101490000E0491E00910029F6
:100F6000FBD180F83C40002078BD00000023014008
:100F700000200140120000100C00002040420F0031
:100F800070B504004FF0000503D0206C002610B1AE
:100F900007E0012070BD204600F01CF8666484F86C
:100FA0003C60206CC00610D4206C20F4885040F0C7
:100FB000020020642046FFF791FA6664206C20F05E
:100FC000020040F00100206400E0012584F83C604C
:100FD000284670BDF0B587B0044614216846FFF777
:100FE0000AFA2B4A294F266800232949143A012579
:100FF00003242848BE4212D10E6846F480760E6063
:10100000096801F480710591116841F004011160D3
:101010001168009501F004010591694632E01E4F08
:10102000BE4219D10D6845F400750D60096801F4E0
:1010300000710591116841F004011160116802937B
:1010400001F0040105910221CDE900144FEA0D01E0
:1010500000F02EFC07B0F0BD10488642FAD10868B7
:1010600040F480600860086800F4806005901068B3
:1010700040F0010010601068009500F0010005903C
:1010800007486946CDE90143E2E70000002001403E
:101090004438024000080240002101400022014083
:1010A0000000024090F82020012A07D0022A05D033
:1010B000416A41F480214162012070470068426921
:1010C0000A43426100207047F0B590F82050046850
:1010D000A468012D05D0022D03D0416A41F480217E
:1010E0004DE014F0406F01D1E50045D5C4F3016433
:1010F0000125A5401D608D684FF4C0739DB1CE6879
:1011000035434E6845EAC605066803EB0417F551FA
:101110004FF4C275076805EB04150E697E51097D11
:10112000012905D009E00E88CD6845EA4655EBE770
:1011300001684E5946F480764E511179D2F8055027
:101140004FF4C67641EA0521056806EB0416A9515D
:101150001178D2F801204FF4C47541EA02210268E7
:1011600005EB04155151006803EB0411425842F09D
:10117000010242500020F0BD416A41F40011416279
:101180000120F0BD10B590F82020012A07D0022AD6
:1011900005D0416A41F480214162012010BD3B48E5
:1011A000D0F8002242F00102C0F80022D0F800225C
:1011B00022F47C52C0F80022D0F800224B6A42EAA6
:1011C0000322C0F800220A7D02F01F0301229A4088
:1011D000D0F81C329343C0F81C32CB69B3B9D0F8B5
:1011E0000C329343C0F80C328C894B6864F31F4374
:1011F0004C6900EBC404C4F840320C890B6864F3FA
:101200001F434C6900EBC404C4F84432CB69012B82
:1012100016D1D0F80C321343C0F80C320C884B684E
:1012200064F31F434C6900EBC404C4F840320C89DA
:10123000CB6864F31F434C6900EBC404C4F8443228
:101240008B69002BD0F804320ED01343C0F804325F
:101250000B69002BD0F8143208D01343C0F81432B5
:10126000096A012904D008E09343EFE79343F5E7C7
:10127000D0F81C121143C0F81C12D0F8001221F053
:101280000101C0F80012002010BD00000064004001
:1012900090F82020012A07D0022A05D0416A41F4A3
:1012A0008021416201207047006842698A4342619F
:1012B00000207047704770B590F82040012C05D091
:1012C000022C03D0416A41F4802128E0046809B36C
:1012D0002469A40720D04FF4D874056804EB0114E6
:1012E0002D5915F00405956005682D591AD0ED08A3
:1012F000556005682C5904F00204D4604FF4DA7488
:10130000056804EB01142E5906F00F06082E0CD3C5
:1013100008250DE0E468DCE7416A41F40011416210
:10132000012070BD6D0D1560E3E72D5905F00F0527
:10133000156105682D59C5F30725956105682C5978
:10134000240C54614FF4DC72046802EB0112A458BF
:101350001C700468A458240A5C700468A458240C07
:101360009C700468A258120EDA704FF4DE720468A2
:1013700002EB0112A4581C710468A458240A5C7181
:101380000468A458240C9C710468A258120EDA71E7
:10139000006829B1016941F020010161002070BDA0
:1013A000C16841F02001C160F8E72DE9F05F054612
:1013B000006800244669D0F804908768D0F80CB023
:1013C000D0F810A0D0F81880F10748D0F90714D051
:1013D00001218160B80703D5284600F0F6F90CE03A
:1013E000780702D54FF4006407E0380702D54FF4C0
:1013F000805402E0284600F0E7F9F80516D5296880
:101400004FF480708860B80503D5284600F0DFF9F6
:101410000CE0780502D544F4005407E0380502D505
:1014200044F4804402E0284600F0D0F9F80316D5D1
:1014300029684FF480308860B80303D5284600F04F
:10144000C8F90CE0780302D544F4004407E03803FF
:1014500002D544F4803402E0284600F0B9F93007A0
:1014600007D55FEACB6004D52968102044F40074E6
:10147000C86070074FF0080707D55FEA0B7004D506
:101480002868C760284600F057F9B00706D52868D5
:10149000C068800702D0284600F050F9700607D5D2
:1014A0005FEACA6004D52968102044F480640861AA
:1014B000B00607D55FEA0A7004D528680761284698
:1014C00000F052F9F00606D528680069800702D0BE
:1014D000284600F04AF9B00308D55FEAC96005D58F
:1014E000296810204860284600F040F9F00307D52D
:1014F0005FEA097004D528684760284600F06AF959
:10150000300446D55FEA497040D5F00504D55FEA5E
:10151000C87001D044F00104B00504D55FEA8870BA
:1015200001D544F00204700504D55FEA487001D586
:1015300044F00404300529D518F0700F26D008F0C7
:101540007000402815D006DC102809D020280AD0C9
:10155000302816D10AE050280ED0602811D10EE0B4
:1015600044F008040DE044F010040AE044F02004C4
:1015700007E044F0400404E044F0800401E044F457
:1015800080742868816921F07001816129680420D4
:101590004860002C05D0686A204368622846FFF73F
:1015A00089FEBDE8F09F70B5040003D094F82000D8
:1015B00010B104E0012070BD204600F081F82068E1
:1015C000016841F00101016000F066FA0546052658
:1015D00004E000F061FA401B0A2811D82068406836
:1015E000C007F6D02068016821F00201016000F018
:1015F00053FA05460BE000F04FFA401B0A2806D9C3
:10160000606A40F40030606284F82060D2E72068AD
:1016100040688007EFD4207E0128206801683DD013
:1016200021F080010160607E01282068016838D0C7
:1016300021F040010160A07E01282068016833D0BC
:1016400021F020010160E07E0128206801682ED091
:1016500041F010010160207F01282068016829D035
:1016600021F008010160607F01282068016824D012
:1016700021F004010160D4E902010843D4E9041215
:10168000114308436168491E08432168C86100206E
:101690006062012084F82000002070BD41F08001CC
:1016A000C0E741F04001C5E741F02001CAE721F061
:1016B0001001CFE741F00801D4E741F00401D9E778
:1016C00010B586B0044614216846FEF794FE17490B
:1016D0002068884228D11648016841F000710160F5
:1016E000006800F00070059011481038016841F062
:1016F000020101600068012100F0020005904FF432
:10170000407000900220CDE901010390092004906F
:101710006946084800F0CCF800220321142000F0AC
:1017200035FA142000F025FA06B010BD0064004020
:1017300040380240000402407047000010B5084BDA
:101740000446A3F11C020021FFF7B5FD002806D1D5
:1017500002212046FFF79CFD02490120087010BDC0
:10176000E406002022000020704770477047000008
:1017700070B5044690F82000012804D0606A40F457
:101780000020606218E0022084F8200020680168D0
:1017900021F00101016000F07FF905460EE000BF75
:1017A00000F07AF9401B0A2808D9606A40F400303A
:1017B0006062052084F82000012070BD2068406828
:1017C000C007EDD1606270BD7047704770477047C9
:1017D0007047704770472DE9F0410446876D00F06F
:1017E0005BF9064694F835000025022806D08020D3
:1017F000606584F834500120BDE8F08120680168FC
:1018000021F0160101602068416921F080014161E9
:10181000206C08B9A06C20B12068016821F0080193
:1018200001602068016821F0010101600CE000F016
:1018300033F9801B052807D920206065032084F830
:10184000350084F83450D7E720680068C007EED12F
:1018500094F85C103F208840B860012084F835007F
:1018600084F834500020C7E790F83510022903D0DF
:101870008021416501207047052180F835100068FE
:10188000016821F0010101600020704770B5044635
:1018900000F002F90546601C02D0044800780444B8
:1018A00000F0FAF8401BA042FAD370BD00000020FF
:1018B0002DE9F84FDFF8ACA10022012403254FF0F9
:1018C0000F090AF1040BAAF1040E00BF0B6804FA19
:1018D00002F63340B3426ED10F7907F00307012FB0
:1018E00001D0022F16D187684FEA420805FA08FC9A
:1018F00027EA0C07D1F80CC00CFA08FC4CEA070CDC
:10190000C0F808C04768B7430E79C6F30016964082
:101910003E4346600E79F643B6070AD0C6684FEAE2
:10192000420C05FA0CF7BE438F6807FA0CF73743F1
:10193000C7600E7906F00306022E10D1D60800EB20
:101940008608D8F8206057074FEAD76C09FA0CF7D9
:10195000BE430F6907FA0CF73743C8F820700668D2
:101960004FEA420C05FA0CF7BE430F7907F0030764
:1019700007FA0CF7374307604E6816F4403F6BD008
:10198000394E376847F480473760366822F00307DE
:1019900006F480460096354E07EB060CDCF8086826
:1019A00097074FEA177809FA08F7BE43304FB84255
:1019B00002D100271FE04FE02E4FB84201D101278E
:1019C00019E02D4FB84201D1022714E02B4FB84245
:1019D00001D103270FE02A4FB84201D104270AE0C2
:1019E000284FB84201D1052705E0274FB84201D161
:1019F000062700E0072707FA08F73743CCF80878EE
:101A0000DAF800605746D1F804C09E435FEACC2C58
:101A100000D51E433E60DBF800605F46D1F804C08D
:101A20009E435FEA8C2C00D51E433E60DEF80060CA
:101A30007746D1F804C09E435FEA8C3C00D51E4334
:101A40003E60084F083F3E68D1F804C09E435FEAFD
:101A5000CC3C00D51E433E60521C102AFFF436AF2A
:101A6000BDE8F88F083C0140443802400030014096
:101A7000000002400004024000080240000C024046
:101A80000010024000140240001802400AB18161B7
:101A900070470904FBE700000148806870470000B8
:101AA000000000200248816802781144816070477C
:101AB000000000200B4810B5016841F4007101607E
:101AC000016841F480610160016841F48071016046
:101AD000032000F07BF80F2000F006F800F024F857
:101AE000002010BD003C024070B50D4D04464FF47F
:101AF0007A712878B1FBF0F00A490968B1FBF0F07F
:101B000000F02CFD48B9102C07D200222146501EAF
:101B100000F03CF800206C6070BD012070BD00003A
:101B2000000000200C0000200A4808B5016841F4BC
:101B300080410160006800F4804000900548001F6B
:101B4000016841F080510160006800F08050009011
:101B500008BD000044380240002809DB00F01F02E5
:101B6000012191404009800000F1E020C0F880127E
:101B70007047002809DB00F01F0201219140400955
:101B8000800000F1E020C0F800117047F0B40E4B67
:101B90001B680C46C3F30223C3F10705042D00D9CB
:101BA0000425191D072901D2002300E0DB1E0126B0
:101BB00006FA05F1491E214099409E40761E1640C6
:101BC0003143F0BC02F029BA0CED00E0064900F008
:101BD000070208684FF6FF03184040EA0220034A54
:101BE00010430860704700000CED00E00000FA05AB
:101BF0002DE9F8431748016841F080510160006801
:101C0000154F00F08050012600903E64FFF744FF1E
:101C100005464FF47A78114C05E000BFFFF73CFF12
:101C2000401B40450DD86068C003F7D57E64FFF7C0
:101C300033FF0546464607E0FFF72EFF401BB04244
:101C400002D90320BDE8F88360688003F4D5002042
:101C5000F8E700004038024000000E4200700040EB
:101C60002DE9F0470E46050065D0DFF81481D8F85D
:101C70000000F7B200F00F00B04207D288F8007001
:101C8000D8F8000000F00F00B04254D128683D4C55
:101C9000810712D5400703D5206840F4E05020604A
:101CA0002878000703D5206840F460402060206851
:101CB000A96820F0F000084320602878C0072DD0E4
:101CC000304968680839012812D0022813D0032847
:101CD00011D00968890700292DDA216821F0030154
:101CE00001432160FFF7D8FE814641F2883A0EE0B9
:101CF00009688903EFE709688901ECE7FFF7CCFE83
:101D0000A0EB0901514502D90320BDE8F087206806
:101D1000696800F00C00B0EB810FEFD1D8F800102B
:101D2000404601F00F01B14207D90770006800F08A
:101D30000F00B04201D00120E7E72878400705D521
:101D40002068E96820F4E050084320602878000704
:101D500006D52068296920F4604040EAC10020606F
:101D600000F038F82168084AC1F30311515CC840FB
:101D70000649086006480068FFF7B6FE0020C4E781
:101D8000003C024008380240B44B00080C00002020
:101D9000040000200448054900680968044AC1F3AA
:101DA0008221515CC84070470C0000200838024076
:101DB000C44B00080448054900680968044AC1F397
:101DC0004231515CC84070470C0000200838024086
:101DD000C44B0008224810B5006810F00C022148DE
:101DE00015D04110042A11D01D4C241F082A0FD0F1
:101DF0000C2A0CD12268236802F03F025B0221D535
:101E00002068C0F38810A0FB010120E0084610BD47
:101E10002268236802F03F025B0205D52068C0F308
:101E20008810A0FB010104E02168C1F38811A1FB27
:101E300000010023FEF736FA2168C1F30141491C75
:101E400049000AE02168C1F38811A1FB00010023C9
:101E5000FEF728FA2168C1F30271B0FBF1F010BD62
:101E6000083802400024F4002DE9F84F04007DD02A
:101E7000DFF878B32078ABF10407C007A7F10405B9
:101E800050D0DBF800105846C1F3810101290FD072
:101E90000168C1F38101022902D13968490207D4DE
:101EA0000068C0F38100032809D13868400206D5D4
:101EB0002868800336D560680028D8D032E0606892
:101EC000B0F5803F10D0B0F5A02F286810D020F4D6
:101ED00080302860286820F4802028606068A0B1E5
:101EE000FFF7DAFD06460CE0286840F48030F4E79E
:101EF00040F480202860F7E7FFF7CEFD801B6428C0
:101F000076D828688003F7D50CE0FFF7C5FD0646B4
:101F100005E000BFFFF7C0FD801B6428F0D82868EB
:101F20008003F7D42078DFF8C89280074FF0000ACA
:101F300044D5DBF80010584611F00C0F0FD00168A3
:101F4000C1F38101022902D13968490207D500682D
:101F5000C0F3810003280AD13868400207D42868FA
:101F6000800715D5E068012800D111E03AE1E0686A
:101F7000B0B10120C9F80000FFF78EFD064604E06D
:101F8000FFF78AFD801B0228BAD828688007F7D59A
:101F90002868216920F0F80040EAC10028600DE0BF
:101FA000C9F800A0FFF778FD064604E0FFF774FDCE
:101FB000801B02281CD828688007F7D420780007E7
:101FC00027D5DFF828828B48616908F16C0881B158
:101FD00001210160FFF760FD064604E0FFF75CFDAC
:101FE000801B022804D8D8F800008007F6D510E03E
:101FF00089E0C0F800A0FFF74FFD064605E000BFEE
:10200000FFF74AFD801B02287DD8D8F80000800722
:10201000F6D42078400769D574484FF0000838306E
:102020000068C0000BD471483830016841F080511D
:10203000016000684FF0010800F0805000906E4E83
:102040003068C00511D4306840F480703060FFF70C
:1020500023FD009006E000BFFFF71EFD0099401A27
:10206000022850D83068C005F6D5604EA0686836A2
:1020700001280FD00528306810D020F00100306012
:10208000306820F004003060A068B8B1FFF704FDAC
:1020900000900FE0306840F00100F4E740F00400E9
:1020A0003060F7E7FFF7F8FC0099411A41F28830F9
:1020B000814264D830688007F4D50EE0FFF7ECFC6D
:1020C000009007E0FFF7E8FC0099411A41F28830E0
:1020D000814254D830688007F4D4B8F1000F05D09D
:1020E00042483830016821F080510160A069A8B3EE
:1020F000DBF80010C1F38101022947D00228C9F89A
:1021000060A005D000E03AE0FFF7C6FC044639E0E5
:10211000FFF7C2FC064604E0FFF7BEFC801B022866
:102120002DD828688001F7D4F4E907010843E16855
:10213000324A490802EB0141A26841EA8211084390
:10214000217C40EA0160217D40EA01703860012075
:10215000C9F86000FFF7A0FC044606E044E000BFB9
:10216000FFF79AFC001B022809D828688001F7D5E0
:102170003AE000BFFFF790FC001B022802D90320C1
:10218000BDE8F88F28688001F4D42DE00128F7D04D
:102190003868E26900F48001914223D1226A00F09C
:1021A0003F0191421ED147F6C071626A0140B1EB16
:1021B000821F17D1A26A4FF0FF3300F4403103EBC6
:1021C0005202B1EB024F0DD194F82C2000F0706157
:1021D000B1EB026F06D194F8301000F0E040B0EBA4
:1021E000017F01D00120CBE70020C9E70838024079
:1021F00000004742800E4742007000400000FFFF91
:1022000070B5040009D0606A002540B125616561A0
:10221000A56294F8510040B10CE0012070BD6068E7
:10222000B0F5827FF4D0E561F2E784F850502046A3
:1022300000F044F8022084F851002068016821F081
:1022400040010160A088218900F4827001F40441FA
:102250000843A18901F400610843217C01F00201D7
:102260000843217D01F001010843218B01F4007135
:102270000843217F01F03801084394F8201001F051
:1022800080010843218D01F4005108432168086052
:10229000A069042101EA104094F8241001F0100113
:1022A0000843216848602068C16921F40061C16168
:1022B0006565012084F85100002070BD30B587B0FD
:1022C000044614216846FEF796F8234D2268002143
:1022D000224802230324AA421BD1204A1432156843
:1022E00045F480551560126802F480520592026828
:1022F00042F0010202600068CDE9021400F0010022
:102300000590E020CDE900030520049069461448BB
:102310001EE0144DAA421DD1104A1032156845F432
:1023200000451560126802F400420592026842F00E
:10233000040202600068CDE9021400F00400059078
:102340004FF4E050CDE900030620049069460648AA
:10235000FFF7AEFA07B030BD003001403038024020
:1023600000000240003C0040000802402DE9FF4F01
:1023700081B01D46934604464FF001090E9EFFF7BB
:102380008BFB074694F851006168012806D0B1F52F
:10239000827F3CD1A168C9BB042838D102980028AB
:1023A00071D0BBF1000FFBD0002DF9D094F8500094
:1023B00001282CD04FF0010A84F850A094F8510065
:1023C000042802D0052084F851004FF00008C4F81A
:1023D0005480C4F838B0E587A58702992163E58663
:1023E000A586C4F84080C4F8448020680168490686
:1023F00003D4016841F040010160E068B0F5006F6E
:10240000606808D0F0B3012D49D081E0FFE70220D9
:1024100005B0BDE8F08F08B1012D39D1206B2168DE
:102420000088C860206B801C2063E08E401EE08620
:102430002EE02068816889070FD5E18E69B1B9F176
:10244000010F0AD1216B0988C160206B801C2063B9
:10245000E08E401EE0864FF0000920688168C907C1
:102460000CD0E18F51B1C068A16B0880A06B801CBB
:10247000A063E08F401EE0874FF00109FFF70CFBDF
:10248000C01B01E00BE067E0B04201D3701C50D1EB
:10249000E08E0028CDD1E08F0028CAD13EE0206B2D
:1024A000216800780873206B401C2063E08E401E7A
:1024B000E0862DE02068816889070FD5E18E69B13B
:1024C000B9F1010F0AD1216B09780173206B401C0F
:1024D0002063E08E401EE0864FF00009206881688E
:1024E000C9070CD0E18F51B1C068A16B0870A06B17
:1024F000401CA063E08F401EE0874FF00109FFF70A
:10250000CBFAC01BB04202D3701C01D011E086B1DF
:10251000E08E0028CED1E08F0028CBD13A4631465C
:10252000204601F075F950B12020606584F8508094
:1025300012E084F851A084F85080032068E7A06876
:1025400018B92068C1688068009084F851A084F8A8
:102550005080606D0028F1D0012059E710B5401E71
:10256000B0F1807F01D3012010BD4FF0E024606105
:102570000F21601701F051FD0020A06107202061AC
:10258000002010BD7047704710B590F83C20012A1C
:1025900022D0012280F83C20CA688C6822F4407264
:1025A00022434C6822F4806222430C6822F40062C9
:1025B00022430C6922F4805222434C6922F40052D7
:1025C0002243C969002322F480420A4301684A6415
:1025D00080F83C30002010BD022010BD70B590F88E
:1025E0003C20012A32D0012480F83C40022280F8AD
:1025F0003D2003685A689D6822F070060A683243DD
:102600005A60134B02689A4214D0B2F1804F11D035
:10261000104B9A420ED0104B9A420BD00F4B9A425D
:1026200008D00F4B9A4205D00E4B9A4202D00E4B67
:102630009A4204D1496825F080031943916080F8DB
:102640003D40002180F83C10084670BD022070BD5E
:10265000000001400004004000080040000C004061
:1026600000040140004001400018004010B5040083
:1026700003D094F83D0010B107E0012010BD002008
:1026800084F83C00204600F01FF8022084F83D004A
:10269000211D206801F02AFA012084F8460084F800
:1026A0003E0084F83F0084F8400084F8410084F83C
:1026B000420084F8430084F8440084F8450084F81C
:1026C0003D00002010BD000008B500681549884293
:1026D0000FD11548016841F0010101600068002236
:1026E00000F00100009001211920FFF74FFA192096
:1026F00012E0B0F1804F13D10B48001F016841F088
:10270000010101600068002200F0010000900F212B
:102710001C20FFF73BFA1C20BDE80840FFF729BA50
:1027200008BD0000000001404438024090F83D1010
:10273000012901D001207047022180F83D10016875
:10274000CA6842F00102CA6000681149884214D088
:10275000B0F1804F11D00F4988420ED00E49884207
:102760000BD00E49884208D00D49884205D00D494A
:10277000884202D00C49884204D1816801F00701E7
:10278000062903D0016841F0010101600020704773
:10279000000001400004004000080040000C004020
:1027A00000040140004001400018004070B504469C
:1027B00090F83C000025012817D0012684F83C60E1
:1027C000022084F83D002068826822F0770222F41B
:1027D0007F4282600868502838D00DDC20284FD016
:1027E00005DC90B3102811D14AE0022070BD3028DA
:1027F00046D040280AD13BE060282FD070280DD069
:10280000B0F5805F03D0B0F5005F12D0012584F8E9
:102810003D60002084F83C00284670BDCB68D1E9BB
:102820000121206801F0CAF92068816841F0770130
:1028300009E0CB68D1E90121206801F0BFF92068E7
:10284000816841F480418160E1E719E0CA68496824
:10285000206801F087FA5021206806E0CA684968BC
:10286000206801F090FA6021206801F0B1F9CEE70C
:10287000CA684968206801F075FA40212068F4E7C9
:10288000226801461046F0E770472DE9F041044602
:102890000068C66805694FF00007A90713D5B1079E
:1028A00011D5F91E01610120207720688069800719
:1028B000204602D0FFF7E8FF04E000F0A9F8204628
:1028C00000F03BF92777680716D5700714D5216803
:1028D0006FF004000861022020772068806910F4FE
:1028E000407F204602D0FFF7CFFF04E000F090F8D1
:1028F000204600F022F92777280715D5300713D591
:1029000021686FF008000861042020772068C06902
:102910008007204602D0FFF7B7FF04E000F078F808
:10292000204600F00AF92777E80616D5F00614D5F8
:1029300021686FF010000861082020772068C069C6
:1029400010F4407F204602D0FFF79EFF04E000F025
:102950005FF8204600F0F1F82777E80708D0F00785
:1029600006D021686FF001000861204600F0E6F80B
:10297000280608D5300606D521686FF0800008616A
:102980002046FFF7FFFD680608D5700606D52168CA
:102990006FF040000861204600F0DCF8A8060AD578
:1029A000B00608D521686FF0200008612046BDE818
:1029B000F041FFF7E8BDBDE8F081000010B586B03A
:1029C000044614216846FDF716FD0E49206888422A
:1029D00016D10D480021026842F001020260006831
:1029E00000F0010005904FF4E06000900220CDE976
:1029F00001010120CDE9031069460448FEF758FFA4
:102A000006B010BD00000140303802400000024016
:102A1000704770B5044690F83C0000260D4601282A
:102A20000FD0012084F83C006AB1042A1DD0082A86
:102A30002FD00C2A3FD00126002084F83C003046DD
:102A400070BD022070BD206801F0CAF8206881695D
:102A500041F0080181612068816921F004018161F0
:102A6000206881692A69114311E0206801F0E8F8C3
:102A70002068816941F4006181612068816921F4E5
:102A800080618161206881692A6941EA022181614E
:102A9000D2E7206801F00AF92068C16941F0080115
:102AA000C1612068C16921F00401C1612068C16968
:102AB0002A69114311E0206801F02CF92068C169EE
:102AC00041F40061C1612068C16921F48061C16184
:102AD0002068C1692A6941EA0221C161ACE710B5E9
:102AE000040003D094F83D0010B107E0012010BDB0
:102AF000002084F83C00204600F01EF8022084F8F4
:102B00003D00211D206800F0F1FF012084F84600FF
:102B100084F83E0084F83F0084F8400084F84100C7
:102B200084F8420084F8430084F8440084F84500A7
:102B300084F83D00002010BD704770470068B0F178
:102B4000804F03D102484168491C41607047000032
:102B50001000002070477047094982B088420CD1AC
:102B6000084A0121117001680A6849680091054905
:102B70000122891C02B000F0B5B902B07047000014
:102B8000B005002018000020F8B501680446086868
:102B9000CA684B6910F00F0F4FF0000559D003F0D1
:102BA000010602F49077374365D0C10705D0D105FF
:102BB00003D5616C41F001016164410705D5D90776
:102BC00003D0616C41F002016164810705D5D9072A
:102BD00003D0616C41F004016164010707D502F084
:102BE0002001314303D0616C41F008016164616CE4
:102BF00000293AD0800604D5900602D5204601F07F
:102C000002F920684069616CC0F38010090700D4A4
:102C100060B3204601F0D0F820684069400621D515
:102C20002068143050E8001F21F0400140E80012F5
:102C3000002AF5D1E06BA8B172490165E06BFEF79F
:102C400013FE002811D0E06B016D01B0BDE8F0402B
:102C5000084783060FD593060DD52046BDE8F840FA
:102C600001F0D1B82046FFF777FFF8BD2046FFF707
:102C700073FF6564F8BD266B2023012E7ED1C60646
:102C80007CD5D6067AD508684868009048694FF028
:102C9000020640064DD5E26B106840684FF480771D
:102CA0000004000C3AD0A18D814237D9E085D0696B
:102CB000B8422DD020680C3050E8001F21F48071FC
:102CC00040E80012002AF5D12068143050E8001FB7
:102CD00021F0010140E80012002AF5D120681430EB
:102CE00050E8001F21F0400140E80012002AF5D111
:102CF00084F84230256320680C3050E8001F21F032
:102D0000100140E80012002AF5D1E06BFEF763FDE8
:102D10006663A08DE18D401A81B206E0A18D8142EB
:102D2000A8D1D069B842A5D166632046FFF713FF4A
:102D3000F8BDA08DE18D401A81B2E08D0028F7D05A
:102D40000029F5D020680C3050E8002F22F4907252
:102D500040E80027002FF5D12068143050E8002FFC
:102D600022F0010240E80027002FF5D184F842301C
:102D7000256320680C3050E8002F00E006E022F0C8
:102D8000100240E80023002BF3D1CDE705062BD538
:102D9000150629D594F841002128C9D1A068B0F5BD
:102DA000805F01D12069B0B1206A411C2162216895
:102DB00000784860E08C401E0004000CE084B7D12D
:102DC0002068C16821F08001C1602068C16841F0BD
:102DD0004001C160F8BD206A0088C0F30800486067
:102DE000206A801C2062E5E74006F3D55006F1D545
:102DF000CA68204622F04002CA6084F8413000F0E0
:102E000099F8F8BDAB3D000870B5040004D094F803
:102E10004100002510B106E0012070BD84F840504B
:102E2000204600F023F8242084F841002068C1687F
:102E300021F40051C160204601F046F82068016984
:102E400021F4904101612068416921F02A0141612A
:102E50002068C16841F40051C1606564202084F895
:102E6000410084F842006563002070BD10B586B053
:102E7000044614216846FDF7BEFA174920688842C7
:102E800028D116480021026842F40032026000682E
:102E900000F40030059011481038026842F0010239
:102EA0000260006800F0010005900C2000900220F4
:102EB000CDE90101032003900720049069460848EA
:102EC000FEF7F6FC00220E212620FEF75FFE2620EC
:102ED000FEF74FFE06B010BD0044004040380240EF
:102EE0000000024090F84230202B01D002207047B1
:102EF00021B11AB10023036301F06CB801207047BF
:102F0000704790F84130202B01D00220704779B1F2
:102F100072B101628284C28400214164212180F85F
:102F200041100068C16841F08001C1600020704715
:102F3000012070470349884202D1034900204870AC
:102F400070470000B005002018000020FEE70000D8
:102F500070B512480068816841F001018160104835
:102F60000068816841F0010181600E480068816855
:102F700041F001018160FDF703FDFDF701FD0A4D00
:102F80000A4E04462046FDF7C1FC2968B1FBF6F164
:102F900001EB41018842F5D370BD0000B803002069
:102FA00000040020700300200C00002040420F00AD
:102FB00030B587B000241D4805940694049400940D
:102FC000019402941849039401604FF48031C0E9E0
:102FD00001140461047680F820401549C0E90A1400
:102FE0000125C561C46080F830404561FDF7C8FF28
:102FF00008B1FDF73EFD1620CDE9040404A90B48F5
:103000000694FDF7E1FE08B1FDF733FD0A20CDE996
:103010000005694605480295FDF700FF002801D02C
:10302000FDF727FD07B030BD0020014070030020F0
:103030000100000F1FB50021144800910191029179
:10304000114A039102604FF48032C0E9012101610D
:10305000017680F820100124C461C16080F830102E
:103060004461FDF78DFF08B1FDF703FD0B20CDE9AD
:103070000004694605480294FDF7D0FE002801D0FF
:10308000FDF7F7FC1FBD000000210140B803002040
:103090007FB50024134800940194029410490394CE
:1030A00001604FF48031C0E901140461047680F8B6
:1030B00020400125C561C46080F830404561FDF7BE
:1030C0005FFF08B1FDF7D5FCCDE90045694605482D
:1030D0000295FDF7A3FE002801D0FDF7CAFC7FBDD5
:1030E0000022014000040020114810B50F49016082
:1030F0000321416000214FF08072C0E902124FF4B9
:10310000102202614FF440124261017641768176CD
:103110000122C27601774177FEF745FA002803D0F5
:10312000BDE81040FDF7A5BC10BD000000640040E4
:10313000480400202DE9F04186B014216846FDF7CF
:103140005AF92E480024016841F0800101600168AD
:1031500001F080010591016841F0040101600168FE
:1031600001F004010591016841F00101016001686D
:1031700001F001010591016841F008010160016859
:1031800001F008010591016841F002010160006849
:103190001B4F00F0020048F210050590012229465D
:1031A0003846FEF773FCFE14002231463846FEF71F
:1031B0006DFCDFF85080012204214046FEF766FCDA
:1031C00000950125CDE90154694638460394FEF780
:1031D0006FFB0220CDE90204CDE90065694638465F
:1031E000FEF766FB04200090CDE901546946404695
:1031F0000394FEF75DFB06B0BDE8F0813038024075
:1032000000000240000C0240114810B50F49016057
:103210004FF48271416000214FF40062C0E9021254
:103220000122C0E90412520282613822C0E907215A
:10323000416281620A21C162FEF7E2FF002803D0E9
:10324000BDE81040FDF715BC10BD00000030014086
:1032500070040020104810B50E4901604FF48271CF
:10326000416000214FF40062C0E902120122C0E96E
:1032700004125202C0E906210162416281620A2100
:10328000C162FEF7BDFF002803D0BDE81040FDF786
:10329000F0BB10BD003C0040C804002010B596B043
:1032A00000240F9410941194129413941C216846D6
:1032B0001494FDF7A0F8202107A8FDF79CF83248E8
:1032C0003049C0E900144021816040F6CA01C0E9DC
:1032D00003140121416180218161FFF7C7F908B121
:1032E000FDF7C7FB4FF480500F900FA92648FFF75A
:1032F0005DFA08B1FDF7BDFB2348FFF7F0FB08B10D
:10330000FDF7B7FB139413A91F481494FFF766F950
:1033100008B1FDF7AEFB7020009040F26540CDE9AA
:103320000104039404940594002269461648069407
:10333000FFF76FFB08B1FDF79CFB042269461248BA
:10334000FFF767FB08B1FDF794FB082269460E48BA
:10335000FFF75FFB08B1FDF78CFB07940894099415
:103360004FF400500A94CDE90B4007A906480E948B
:10337000FFF70AF908B1FDF77CFB0348FFF71EFBD6
:1033800016B010BD000001402005002010B586B029
:1033900000241648009401940294039404944FF07E
:1033A0008041059401605921C0E90114611EC0E902
:1033B00003148461FFF75AF908B1FDF75AFB4FF483
:1033C0008050009069460948FFF7F0F908B1FDF711
:1033D00050FB049404A905480594FFF7FFF8002862
:1033E00001D0FDF746FB06B010BD000068050020C7
:1033F0000C4810B50A4901604FF461214160002179
:1034000081600C22C160C0E904128161C161FFF7D3
:10341000FBFC002803D0BDE81040FDF72ABB10BD1F
:1034200000440040B0050020FEE7FEE7B5EEC00A0C
:10343000F6EE001AF1EE10FA10B516D310EE101ACF
:103440002148814211DCF5EEC00AF1EE10FA0CD3EE
:1034500010EE901A814208DCB5EEC01AF1EE10FAB7
:1034600003D311EE101A814205DDB0EE610AF0EED1
:10347000400AB0EE401AB7EE002AF0EE612A32EEB2
:10348000403A9FED120A124943EE002A0C68FCEE06
:10349000E22A12EE903A72EE602AF0EE610AE363DD
:1034A00042EE800AFCEEE00A10EE902A72EE410A2B
:1034B00040EE801ABCEEE10A10EE100A0B689A6327
:1034C0000968486310BD0000D7A3703F00A00C45F9
:1034D00020050020704700002DE9F84F82462B4858
:1034E00089462B4900689046B0FBF1F047F6FE761E
:1034F00000EB8005FDF744FA264C0746206801687A
:1035000041F04001016007E03846FDF7FFF9A842AD
:1035100002D30320BDE8F88F20688168C94389077A
:10352000F2D48168C9430906EED5C168806800906D
:10353000002249465046FEF7A9FA206886810AE033
:103540003846FDF7E3F9A84205D301224946504623
:10355000FEF79CFADDE720688168C943C907EFD10F
:103560008168C9438907EBD48068C0430006E7D56A
:1035700020688489012249465046FEF787FAC4F341
:103580000D01A8F800100020C4E700000C00002086
:1035900040420F00C80400202DE9F04300272DED24
:1035A000028B83B00E4604460776B0EE408A28258B
:1035B0006A464FF400418248FFF78EFF00287AD117
:1035C00001AA04217F48FFF787FF002873D1BDF8C7
:1035D00000C0706BBDF80420BCEB0001B06BA2EB27
:1035E000000001D501F58041002801DA00F5804096
:1035F000DFF8D491081A484501DA00F580404FF40D
:103600000053984201DDA0F5804000EE100AB8EEAC
:10361000C00ADFED6E0A60EE200A9FED6D0A60EED3
:10362000800A9FED6C1A6C49012220EE811A4FEA44
:10363000DC1002EBDC1884ED011A08F07F0851F869
:10364000200051F828102CF07F08091AACEB08086C
:1036500001FB08F100EBE110A4F800C0BDF8041074
:103660006180BDF8001008445C49E06191F800C039
:10367000BCF1000F05D0FDEEE00AC1ED010A0F70AC
:103680000BE08F68C71B9F4202DD4B685B1E03E0A7
:103690004F4502DA4B685B1C4B6000EE900A886075
:1036A0004B68B8EEE01A9B0300EE903AF8EEE00AA1
:1036B00071EE200A00E07EE0DFED491AC0EBC003A6
:1036C0005B0060EEA10ADF1703EB97476FF30D076E
:1036D00060EE800ADB1BC4ED080A00EE903AB8EEFB
:1036E000E01AD6ED000A9FED3F2A41EE020AF5EE00
:1036F000C00AF1EE10FA02D270EEA10A06E010EE56
:10370000903A394EB34201DD70EEE10A01EE100A43
:10371000C4ED020AB8EEC11AD1ED030A21EE211A56
:1037200021EE000A81ED030A30EE601A11EE100A54
:1037300010F17F5F02D971EE210A06E011EE100A46
:103740002A4B984204DD71EE610A80EE880A01E09E
:1037500081EE080A264B0120F0EE400A2E1A03EBF8
:103760008606401C16ED011AA84286ED001A71EE7D
:10377000200AF3DB83ED000A00EE105ADFED1D1A7C
:10378000B8EEC01A80EE810A91ED041AF2EE0C0A2E
:1037900021EE211ADFED181A60EE200A00EEA11AC0
:1037A00081ED041A9FED151A20EE010A84ED030A3B
:1037B000C4ED040A227603B0BDEC028BBDE8F083B1
:1037C00000000240000C024000E0FFFF0000104239
:1037D00000008038C3B8323EEC0600203C000020D8
:1037E000DB0FC940DB0FC939DB0FC9400000404087
:1037F000EC080020A4707D3F0AD7233C398EE33CBF
:1038000001464FF400720148FCF7C3BDEC060020EE
:10381000F8B515460E460B460092044601220221D9
:1038200000F02CF8A0B9134813490068B0FBF1F080
:103830004FF47A71484300906068B0F5827F0DD1F3
:103840003346002280212046009500F017F870B121
:10385000606D40F0200060650320F8BD009830B135
:10386000401E009020688068C0430006F6D5002006
:10387000F8BD00000C00002000366E012DE9F84371
:103880001E46914688460446089DFEF705F9401BF2
:10389000351AFEF701F9074626480068C0F3CB3019
:1038A00068430AE0701C09D0FEF7F6F8C01BA84276
:1038B0000FD275B10098B8B3401E0090206881689F
:1038C00038EA010033D000214945EBD10020BDE8A2
:1038D000F8832068416821F0E00141606068B0F53C
:1038E000827F0BD1A068B0F5004F02D0B0F5806F99
:1038F00004D12068016821F040010160A06AB0F5A0
:10390000005F09D12068016821F40051016020683E
:10391000016841F400510160012084F85100002049
:1039200084F850000320D2E7FFE70025C6E7012115
:10393000CAE700000C0000207047FEF7B3B8000093
:1039400030B593B034216846FCF755FD14210DA81D
:10395000FCF751FD1E480025016841F080510160CF
:10396000006800F0805012901A48016841F440410C
:1039700001600068022400F4404012900120009091
:10398000000401908001CDE90640082008904FF422
:10399000B470CDE909040B9468460C94FEF764FA00
:1039A00088B9FEF725F970B90DA90F2081E831001B
:1039B0004FF4A0501090E002119005210DA8FEF7E1
:1039C0004FF9002801D0FDF754F813B030BD0000C6
:1039D00040380240007000400248016841F4700124
:1039E0000160704788ED00E070B5344892B000681F
:1039F0000169C943C90703D1C168C943C90705D0D3
:103A000012B02E48BDE87040FEF73FBF6FF00101D5
:103A100001612B48FCF7F6FD9FED2A0A2A492B4845
:103A2000FFF7BAFD264B04AC0FCB84E80F0024222D
:103A3000264908A8FCF7ADFC254E3068224D254CE0
:103A4000022813D1A86A002810DDD4F8881081421A
:103A50000CD922489FED200A84ED1D0A84ED1E0A30
:103A600080ED020A80ED030A80ED040A01A80090AF
:103A7000154B1A4A04A91748FDF75CF828B1E86904
:103A800058B101A890EC030A0DE00120FCF78CFE70
:103A9000104800F02DFE12B070BD9DED021ADDED54
:103AA000030A9DED010AFFF7C1FC30680228F2D13C
:103AB00054F8880F401C2060EDE70000200500202E
:103AC000F805002017B7D137100100204C03002063
:103AD00024000020640000200000000050000020AE
:103AE0000148FEF7D2BE000068050020F0B502686C
:103AF000274B284D284E294F294C4FF0804C984297
:103B000009D0604507D0A84205D0B04203D0B842E2
:103B100001D0A04204D122F0700E4A6842EA0E029F
:103B200098421BD0604519D0A84217D0B04215D09A
:103B3000B84213D0A04211D01A4DA8420ED01A4D4F
:103B4000A8420BD0194DA84208D0194DA84205D063
:103B5000184DA84202D0184DA84203D122F4407556
:103B6000CA682A434D6922F080022A438D68C562E3
:103B70000D688562984201D0A04201D109690163B4
:103B8000016841F004010160012141610260F0BD62
:103B9000000001400004004000080040000C00400C
:103BA0000004014000400140004401400048014041
:103BB00000180040001C00400020004010B5846840
:103BC00042EA032224F47F440A432243826010BD68
:103BD000826822F070020A4342F007018160704758
:103BE000F0B5036A026A22F0010202624268846947
:103BF000124E24F073050C682C4323F002058B68E9
:103C00002B430D4DA84201D0B04205D123F0080747
:103C1000CB683B4323F00403A84201D0B04205D156
:103C20004D6922F4407215438A692A4342608461D7
:103C3000496841630362F0BD000001400004014097
:103C4000F0B5026A036A23F01003036243688469D3
:103C50000D6824F4E64444EA05248D6822F020022D
:103C600042EA05120F4D104EA84201D0B04206D1D3
:103C7000CF6822F0800242EA071222F04002A842F6
:103C800001D0B04207D14D6923F4406343EA850374
:103C90008D6943EA850343608461496881630262F8
:103CA000F0BD00000000014000040140F0B5026AD0
:103CB000036A23F4807303624368C46922F40072C8
:103CC00024F073050C68124E2C438D6842EA0522DD
:103CD0000E4DA84201D0B04206D1CF6822F4006256
:103CE00042EA072222F48062A84201D0B04207D102
:103CF0004D6923F4405343EA05138D6943EA0513E4
:103D00004360C4614968C1630262F0BD00000140C4
:103D10000004014030B5046A026A22F48052026253
:103D20004268C3690D6823F4E64343EA05238D68BE
:103D300024F4005444EA0534084DA84202D0084D4A
:103D4000A84204D14D6922F4804242EA85124260C1
:103D5000C36149680164046230BD00000000014095
:103D60000004014010B5036A046A24F001040462EF
:103D7000846924F0F00444EA021423F00A020A439E
:103D80008461026210BD10B5036A046A24F0100455
:103D90000462846923F0A00324F4704444EA0232EC
:103DA00043EA01118261016210BD10B5806B0021F0
:103DB000C185FEF7D1FE10BD01680C3151E8002F1E
:103DC00022F4907241E80023002BF5D101681431F0
:103DD00051E8002F22F0010241E80023002BF5D129
:103DE000016B012909D101680C3151E8002F22F043
:103DF000100241E80023002BF5D1202180F8421069
:103E000000210163704708B590F84210222901D0C3
:103E1000022008BD82684FF480539A4201D10169A3
:103E200021B1816A9A421BD04AB10AE00268816AD4
:103E30005268C2F308020A80816A891C08E002699C
:103E400072B10268526802F07F020A70816A491CEE
:103E50008162C18D491E0904090CC18503D01BE094
:103E600002685268F1E70168CA6822F02002CA605D
:103E70000168CA6822F48072CA6001684A6922F047
:103E800001024A61202180F8421000214163026B47
:103E9000012A03D0FFF734F8002008BD0163016850
:103EA0000C3151E8002F22F0100241E80023002BD2
:103EB000F5D101680A68D20602D50A6849680091FE
:103EC000818DFEF748FEE7E770B50446006801699A
:103ED000E26821F44051114301612169A068E2695F
:103EE00008436169114308432168CA6849F20C63B9
:103EF0009A430243CA6020684169A26921F4407173
:103F00001143416131492068884202D030498842DA
:103F100002D1FDF74FFF01E0FDF73CFFE26900230E
:103F2000192164253226B2F5004F626828D0A0FB23
:103F30000101930F9200FCF7B5F90146B0FBF5F0D3
:103F40006FF01802504301EB800006EB0010B0FB4D
:103F5000F5F000F0F002B1FBF5F002EB0012B1FB5E
:103F6000F5F06FF01803584301EB800006EB0010EA
:103F7000B0FBF5F000F00F0021681044886070BDC0
:103F8000A0FB010192185B41FCF78CF90146B0FBE4
:103F9000F5F00201B1FBF5F06FF01803584301EBA7
:103FA000800006EBC000B0FBF5F000F0F80002EB7B
:103FB0004002B1FBF5F0584301EB800006EBC00076
:103FC000B0FBF5F000F00700D6E70000001001405C
:103FD0000014014081628285C28500214164222152
:103FE00080F84210016921B10168CA6842F4807208
:103FF000CA6001684A6942F001024A610068C1680A
:1040000041F02001C1600020704700000148FEF728
:10401000BBBD0000B0050020FEE70907090E00281F
:1040200004DB00F1E02080F80014704700F00F007E
:1040300000F1E02080F8141D704710B52DED028BC3
:10404000B0EE608AF0EE408A18EE101A18EE900A70
:1040500000F03CFD00F07040B0F1005F0CD018EEB5
:10406000100A20F00040C0F1FF40C00F02BFB0EEC8
:10407000480ABDEC028B10BDB0EE680ABDEC028BA5
:1040800010BD10B52DED028BB0EE608AF0EE408AC7
:1040900018EE101A18EE900A00F018FD00F07040AB
:1040A000B0F1004F0CD018EE100A20F00040C0F123
:1040B000FF40C00F02BFB0EE480ABDEC028B10BD3E
:1040C000B0EE680ABDEC028B10BD10B52DED028B71
:1040D000B1EEC08A18EE100A20F00040C0F1FF4097
:1040E000C00F0AD010EE100A20F00040C0F1FF40CF
:1040F000C00F04BF0120FCF7ADF9B0EE480ABDECDB
:10410000028B10BD70B514462DED048B0D4606468E
:10411000F0EE418AB0EE609AF0EE409AFCF722FE93
:10412000F0EE401AB0EE690AB0EE618AFCF722FEAA
:1041300068EE090A9FED141A9FED142A40EE680AF2
:1041400060EE011A68EE022A28EE011AC6ED000A96
:10415000F6EE000A48EE601A40EE602A00EE601AA1
:1041600061EE891A42EEE81AC5ED001A60EE021AF5
:1041700048EE601A61EE891A41EE681AC4ED001A21
:10418000BDEC048B70BD0000D7B35D3FD7B35DBFFE
:1041900008B56946062000F099FA002812D1BDF84A
:1041A000000040F01C01062000F04FFC002809D15F
:1041B0000120FDF76BFBBDF8000020F01C0106207C
:1041C00000F043FC08BD000070B50C462DED068BD9
:1041D0000546F0EE618AB0EE419AF0EE609AB0EEDC
:1041E00040AAFCF7BFFDB0EE402AB0EE4A0AB0EE9E
:1041F000428AFCF7BFFDDFED170AF6EE002ADFED7D
:10420000161A20EE201A68EE200A08EE621A40EE16
:10421000620A21EE093A20EE211A08EE293A08EE48
:10422000621A01EE283A9FED0D1A23EE012A85ED60
:10423000002A28EE212A60EE691A00EE622A42EE78
:10424000491A40EEE81A21EE810A84ED000ABDEC1D
:10425000068B70BDD7B35D3FD7B35DBFABAA2A3F16
:10426000012131EE601A814070EE600A491E00EEB5
:10427000101AB8EE400A20EE800AC0EE010ABCEE29
:10428000E00A10EE100A704710B52DED028BB0EE6B
:10429000418AFFF7D2FEF0EE480ABDEC028BBDE882
:1042A0001040FFF7CABE10B52DED028BB0EE418A6B
:1042B000FFF7E7FEF0EE480ABDEC028BBDE81040C8
:1042C000FFF7DFBE9FED080A80ED160A9FED070A93
:1042D00080ED170A9FED060A80ED140A9FED050A8E
:1042E00080ED150A704700003D0A573E295C0F3EDD
:1042F000B81E453F3333933F70B50C462DED028B0E
:10430000B0EE408A90ED000AD1ED000A054620EE9D
:10431000000A00EEA00AFFF7D8FEB4EEC80AF1EEDC
:1043200010FA0DDDC8EE000A95ED000A20EE200A15
:1043300085ED000A94ED000A20EE200A84ED000AC3
:10434000BDEC028B70BD000090ED000AB5EEC00A16
:10435000F1EE10FA01D2012100E0002100EE901AE6
:10436000F0EE001A0E4AB8EE601AF7EE000A41EEBF
:10437000610AB0EEC01A11EE101A914208DB9FEDEF
:10438000091A20EE010A9FED081A00EE810A03E0E7
:10439000F0EE040A20EE200A80ED000A70470000CB
:1043A0000AD7233C7F6A7C3F4260653C8AB0FCF7B9
:1043B00027FAFDF77FFBFFF7C3FAFEF7BBFEFEF718
:1043C000E5FFFFF715F8FEF71FFFFEF767FFFEF7A3
:1043D000EFFDFEF72FFEFEF75BFEFEF73BFFFEF75D
:1043E00083FE324C01202062FCF77AF900285AD172
:1043F0002F48FDF7BDF9002855D102212C48FCF7C4
:1044000051FE00284FD1FCF787FA00284BD0FCF76B
:10441000C5FA002847D1A4F1AC0000F069F99FED7E
:10442000250AA4F1AC0080ED070A943000F08CF965
:10443000B2EE080A84ED030AA4F1AC00FFF742FFD4
:10444000FEF786FDA4F13C01081F00F008FB50B305
:1044500004F13C00FFF7D4F904F50F724FF400416A
:104460001548FFF739F8F0B904F23E220421134849
:10447000FFF732F8B8B912496FF001000968086116
:104480000F48FEF753F970B9FCF74AF958B10DA07F
:10449000FCF756F96846FCF70BF90028FAD0684695
:1044A00000F018F8F6E7FCF7E4FA0000100100202D
:1044B000480400200000404200000240000C02407E
:1044C00020050020424F4F54204F4B204552523D73
:1044D000300D0A002DE9F04192B0044618216846DB
:1044E000FBF789FF00250E950F95A068002878D16D
:1044F000E068002875D12069082872D13A4E2068FA
:10450000316A88426DD1A6F1AC07C7F8885004F132
:104510001C00804600F038FA01463448FC290ED0D1
:1045200004DC01291AD0FA2904D110E0FD2909D0B0
:10453000FE2909D02E480068022813D025E0022168
:10454000016022E0056020E001202A4904E094F89F
:1045500022007F2819D82849086016E094F8220024
:104560002649F9E706A9404600F0B2F906A9EFF39B
:10457000108472B6BFF35F8F1B481422C038FBF75C
:1045800008FFBFF35F8F84F31088EFF3108072B6DB
:10459000BFF35F8F1A4991ED010A8DED0B0A91ED82
:1045A000030A8DED0C0A97ED0A0ABFF35F8F80F3C3
:1045B0001088DFED140A0BAA0EA820EE200A8DED5C
:1045C0000D0A96F8201000F021F8706A009002950C
:1045D0000620CDE9035010AB0EAA69460A48FCF745
:1045E00073FD12B0BDE8F08110010020280000200A
:1045F000240000202C000020300000203400002087
:104600004C0300209A994940480400202DE9F041CC
:1046100015462DED068B0F460446F2EE090A92ED83
:10462000000AFFF72EFDFAEE090AFFF706FDF0EE8D
:10463000408A95ED010AF2EE040AFFF722FDFAEE38
:10464000040AFFF7FAFC9FED1F9AB0EE408A95ED41
:10465000020AF0EE490AFFF714FD9FED1BAAF0EEE7
:104660004A0AFFF7EAFCF0EE409A1020B2EE091A6F
:10467000FAEE090AB0EE680AFFF7F2FD05460C20D3
:10468000B2EE041AFAEE040AB0EE480AFFF7E8FDAB
:1046900006460C20B0EE491AF0EE4A0AB0EE690A5E
:1046A000FFF7DEFD2770290A6170A5703109E170FE
:1046B000310141EA102121716071BDEC068BBDE82A
:1046C000F081000000001042000010C210B50C463E
:1046D00000F00F004FF4004141EAC0202146FCF7F2
:1046E000A9F9002803D12188C1F30A01218010BD56
:1046F0009FED140A80ED1D0A80ED1E0A80ED080A68
:1047000080ED090A80ED0B0A80ED0A0A80ED190A96
:1047100080ED1A0A80ED240A80ED0C0A80ED0D0A66
:1047200080ED230A80ED110A80ED120A80ED130A54
:10473000B6EE000A80ED0E0A80ED0F0A80ED100A39
:1047400070470000000000009FED040B80ED000B9F
:104750009FED040A80ED040A70470000000000008D
:10476000000039400AD7034070B514462DED088B80
:10477000F0EE619AB0EE41AAF0EE60AAB0EE408A87
:104780000D460646B0EE691AF0EE4A0AB0EE6A0A25
:10479000FFF789FDF0EE408AB0EE691AF0EE4A0AA2
:1047A000B0EE6A0AFFF770FD38EE800AF6EE008A76
:1047B00020EE289A7AEEC90ADFED1AAA80EE880A5E
:1047C000F0EE6A0A30EE280AFFF737FC9FED16BAC2
:1047D000F0EE4B0AFFF755FC7AEE490A86ED000A27
:1047E00080EE880AF0EE6A0A30EE280AFFF725FC10
:1047F000F0EE4B0AFFF745FC85ED000A39EEC90AD9
:10480000C0EE080A30EEA80AF0EE6A0AFFF715FCBF
:10481000F0EE4B0AFFF735FC84ED000ABDEC088B87
:1048200070BD000000000000D7A3703F10B5184C09
:104830000B68A34202DB9FED170A07E0164CA34268
:1048400002D291ED000A03E09FED140A81ED000A07
:10485000D2ED010A91ED021A70EE600A91ED040AA0
:1048600001EE200AD1ED010A92ED031A70EEC10AA1
:1048700091ED031A01EE200ADFED090A80EE201AFD
:104880009FED080A80ED1E1A80ED1D0A10BD000084
:10489000DB0F4940DB0F4940DB0F49C0DB0F49C04C
:1048A0009A9949400000000001EE100A70EEC00A1B
:1048B0000122B8EE411A8A40521E21EE201A00EE63
:1048C000902AF8EE601AC1EE210A30EE800A704795
:1048D0002DE9F0410C462DED028BF2EE090A01881C
:1048E000BAEE090A4ABA81780B01C17843EA111875
:1048F000037901F00F0143EA012641790B01817927
:10490000C07943EA111501F00F0140EA0127102197
:104910001046FFF7C9FF84ED000A0C21F2EE040AED
:10492000BAEE040A4046FFF7BFFF9FED148A84EDFC
:10493000010A0C21DFED100AB0EE480A3046FFF7FD
:10494000B3FF84ED020A0C21F1EE040AB0EE480A2E
:104950002846FFF7A9FF84ED030A0C21DFED080AC2
:104960009FED080A3846FFF79FFF84ED040ABDEC6F
:10497000028BBDE8F08100000000FA430000000057
:1049800000001042000010C2014600200A5CFF2A0D
:1049900010D1401C0628F9D3C879FA280BD0012879
:1049A00009D08979FF2905D1FC2804D0FD2802D03F
:1049B000FE2800D000207047F0B48002DDE90445F5
:1049C00040EA412040EA0220DDE9066740EA831020
:1049D00040EA441040EA051040EAC60040EA870079
:1049E000DDF820C0F0BC40EA0C0081B2062000F0E7
:1049F0002CB8F0B44002DDE9044540EA012040EA69
:104A0000C210DDE9066740EA431040EA041040EABC
:104A1000C50040EA860040EA4700DDF820C0F0BC4F
:104A200040EA0C0081B2022000F00FB830B48002DE
:104A300040EA012040EA8210029C40EA0310204331
:104A400081B230BC0520AFF3008000F00F0208B542
:104A5000084662F3DF206946FBF7ECFF08BD2DE94D
:104A6000FF41002688460746354600960196029685
:104A7000344603966846FBF7C5FD9DF80C000028F8
:104A800014D0BDF800000644BDF8020005440A2019
:104A9000FCF7FCFE641C322CECDB322096FBF0F1C0
:104AA000396095FBF0F10120C8F8001004B0BDE8B2
:104AB000F081000000EE100A00EE901AB4EE600AD9
:104AC000F1EE10FA78BF704700F00DB810B5FFF79F
:104AD000F1FFEFF3008020F0104038BF40F00040BD
:104AE00080F3008810BDBDE8104010B500F017F845
:104AF0000000000900F007B84FF0404010F1004FEF
:104B0000EFF300807047401058BFC0F1404049109B
:104B100058BFC1F140418142EFF3008070470EF170
:104B2000020E2EF0030E5EF8044B244204D44FEA2A
:104B30004102B2F17F4F11D84FEA4003B3F17F4FEA
:104B40000CD80ED14FEAD07CB2F17F4F0CEB4C0C5D
:104B50000CF1020C08BF4CEBD17C04E04FF0080CC8
:104B600001E04FEAD17C0CEB4C0324FA03F404F08F
:104B70000704B4F1040C06D20EEB840CBDE810401F
:104B80004CF0010C6047DFE80CF0070802024FF020
:104B90000040A0F5800010BD0846420018BFD2F1C9
:104BA000807288BF00F0004010BD4FF04070E1EE11
:104BB000100A70470000000000000000010203041A
:104BC00006070809000000000102030400000000BD
:104BD0002975493CDF6EC93C6F0E173D3160493D78
:104BE0008FA97B3D38F4963D6B0EB03D4721C93D02
:104BF0005E2EE23DEC2FFB3D7F130A3E698C163E94
:104C000076FD223EA5662F3E97CA3B3E4A29483E86
:104C1000807D543EDAC9603E560E6D3EF54A793EBF
:104C20003CBD823E0FD1883EA4DF8E3EFBE8943E21
:104C3000C4EB9A3EFFE7A03EFCDEA63E6CCFAC3E46
:104C40004EB9B23EA29CB83E1878BE3EB24BC43EAE
:104C5000BD18CA3EECDDCF3EED99D53E614FDB3E3F
:104C600059FAE03EC39EE63EB038EC3E71C9F13ED3
:104C70005452F73EBBD0FC3E5322013FB2D7033F14
:104C8000D387063FB532093F5AD80B3FC0780E3F55
:104C90004013113F82A8133FDF37163F55C1183F1D
:104CA000E5441B3F8FC21D3F543A203F8AAB223F51
:104CB000DB16253F9E7B273FD3D9293F7B312C3FF5
:104CC000ED812E3F79CC303FD00F333FF14B353F54
:104CD0008481373FE2AF393F0AD73B3FFDF63D3F86
:104CE000130F403F9B20423F9E29443F132C463FD9
:104CF0000326483FBD184A3F9B034C3FF3E54D3F19
:104D000016C14F3FB493513F745E533F5721553FF7
:104D10000EDB563F8F8D583FE3365A3FB2D75B3F8D
:104D2000A4705D3F69005F3F5188603F0C07623FA0
:104D30009A7C633FA3E9643F274E663F7EA9673FA5
:104D400050FC683F4E456A3FC6856B3F12BD6C3FC5
:104D500031EB6D3F23106F3F412B703FD93D713FC9
:104D60009D46723F3546733F9F3C743F3529753FE2
:104D70009E0C763F32E6763F9AB6773F2C7D783FA1
:104D8000EB39793F7CED793F39977A3F22377B3F8A
:104D900036CD7B3F75597C3F87DC7C3F1D557D3F81
:104DA00087C47D3F74297E3F34857E3F77D67E3F22
:104DB0008E1E7F3F295C7F3FEF8F7F3F88BA7F3F0A
:104DC000A5DA7F3FEDF07F3F61FD7F3F0000803F30
:104DD00023F87F3F19E77F3F92CB7F3F37A67F3F86
:104DE000AF777F3FAB3E7F3FD2FB7E3F25AF7E3F1D
:104DF000A3587E3F4DF87D3F228E7D3F221A7D3F96
:104E00004E9C7C3FA5147C3F27837B3FD5E77A3FB0
:104E100057437A3F0395793FDBDC783FDF1A783FD1
:104E2000B54F773FB77A763FE59B753FE5B3743F63
:104E3000B9C2733FB9C7723F8BC3713F31B6703F80
:104E4000029F6F3FA67E6E3F1D556D3F68226C3FEF
:104E500086E66A3F1FA2693FE353683F22FD663F33
:104E6000349D653F1A34643F22C3623F5648613F18
:104E7000ACC55F3FD6395E3F7AA55C3F9A085B3F81
:104E80003563593F4AB5573F82FF553F8E40543FE7
:104E9000637A523FB4AB503F80D44E3F6FF54C3FE6
:104EA000280F4B3F5C20493FB329473FD42B453F58
:104EB0001826433F7E18413FB0033F3FABE73C3FDE
:104EC00072C43A3F5B99383FB667363FDC2E343FB9
:104ED000CCEE313F2FA82F3F5C5A2D3FFB052B3FD7
:104EE0000DAB283F9049263F2EE2233F9773213F89
:104EF00019FF1E3FB6841C3FC5031A3F957D173F1F
:104F0000D8F0143FDD5E123FFCC60F3F35290D3F40
:104F10002F860A3FECDD073F6A30053FAA7D023F3E
:104F2000598BFF3E3012FA3E8A8EF43E0803EF3E64
:104F3000096DE93EDDCDE33E8525DE3E4F75D83E69
:104F40003CBDD23EFCFBCC3EDF32C73E3563C13EAA
:104F50005D8ABB3E47ACB53E05C5AF3E84D8A93E91
:104F600075E5A33E89EA9D3E60EA973EF7E4913EEF
:104F700002D98B3ECEC7853EB7627F3EF52D733E8C
:104F8000B7EE663EFDA45A3E65534E3EF0F9413EF3
:104F90003D9B353E0E32293EA0C31C3EF44F103ED1
:104FA0000AD7033EC4B1EE3DB9A5D53DA298BC3D9C
:104FB0001B82A33D49658A3D6685623DD637303DFB
:104FC000F7C7FB3CC615973C5374C93B5374C9BB28
:104FD000C61597BCF7C7FBBCD63730BD668562BD2A
:104FE00049658ABD1B82A3BDA298BCBDB9A5D5BD2C
:104FF000C4B1EEBD0AD703BEF44F10BEA0C31CBEA1
:105000000E3229BE3D9B35BEF0F941BE65534EBE02
:10501000FDA45ABEB7EE66BEF52D73BEB7627FBE65
:10502000CEC785BE02D98BBEF7E491BE60EA97BEBB
:1050300089EA9DBE75E5A3BE84D8A9BE05C5AFBEED
:1050400047ACB5BE5D8ABBBE3563C1BEDF32C7BEED
:10505000FCFBCCBE3CBDD2BE4F75D8BE8525DEBEA6
:10506000DDCDE3BE096DE9BE0803EFBE8A8EF4BE56
:105070003012FABE598BFFBEAA7D02BF6A3005BF4F
:10508000ECDD07BF2F860ABF35290DBFFCC60FBF59
:10509000DD5E12BFD8F014BF957D17BFC5031ABFE0
:1050A000B6841CBF19FF1EBF977321BF2EE223BF1A
:1050B000904926BF0DAB28BFFB052BBF5C5A2DBF07
:1050C0002FA82FBFCCEE31BFDC2E34BFB66736BF62
:1050D0005B9938BF72C43ABFABE73CBFB0033FBF78
:1050E0007E1841BF182643BFD42B45BFB32947BF05
:1050F0005C2049BF280F4BBF6FF54CBF80D44EBF1B
:10510000B4AB50BF637A52BF8E4054BF82FF55BFCD
:105110004AB557BF356359BF9A085BBF7AA55CBFD4
:10512000D6395EBFACC55FBF564861BF22C362BF00
:105130001A3464BF349D65BF22FD66BFE35368BF68
:105140001FA269BF86E66ABF68226CBF1D556DBF8E
:10515000A67E6EBF029F6FBF31B670BF8BC371BF9B
:10516000B9C772BFB9C273BFE5B374BFE59B75BF62
:10517000B77A76BFB54F77BFDF1A78BFDBDC78BF71
:10518000039579BF57437ABFD5E77ABF27837BBFA3
:10519000A5147CBF4E9C7CBF221A7DBF228E7DBF92
:1051A0004DF87DBFA3587EBF25AF7EBFD2FB7EBF2B
:1051B000AB3E7FBFAF777FBF37A67FBF92CB7FBFAE
:1051C00019E77FBF23F87FBF000080BF61FD7FBF6D
:1051D000EDF07FBFA5DA7FBF88BA7FBFEF8F7FBFBB
:1051E000295C7FBF8E1E7FBF77D67EBF34857EBF92
:1051F00074297EBF87C47DBF1D557DBF87DC7CBF02
:1052000075597CBF36CD7BBF22377BBF39977ABFBC
:105210007CED79BFEB3979BF2C7D78BF9AB677BF2B
:1052200032E676BF9E0C76BF352975BF9F3C74BFB2
:10523000354673BF9D4672BFD93D71BF412B70BFCC
:1052400023106FBF31EB6DBF12BD6CBFC6856BBF46
:105250004E456ABF50FC68BF7EA967BF274E66BF38
:10526000A3E964BF9A7C63BF0C0762BF518860BF2B
:1052700069005FBFA4705DBFB2D75BBFE3365ABFA2
:105280008F8D58BF0EDB56BF572155BF745E53BF7D
:10529000B49351BF16C14FBFF3E54DBF9B034CBF45
:1052A000BD184ABF032648BF132C46BF9E2944BFE2
:1052B0009B2042BF130F40BFFDF63DBF0AD73BBF47
:1052C000E2AF39BF848137BFF14B35BFD00F33BF59
:1052D00079CC30BFED812EBF7B312CBFD3D929BF14
:1052E0009E7B27BFDB1625BF8AAB22BF543A20BF67
:1052F0008FC21DBFE5441BBF55C118BFDF3716BFA6
:1053000082A813BF401311BFC0780EBF5AD80BBF7D
:10531000B53209BFD38706BFB2D703BF532201BF3F
:10532000BBD0FCBE5452F7BE71C9F1BEB038ECBE62
:10533000C39EE6BE59FAE0BE614FDBBEED99D5BE15
:10534000ECDDCFBEBD18CABEB24BC4BE1878BEBE1F
:10535000A29CB8BE4EB9B2BE6CCFACBEFCDEA6BE3F
:10536000FFE7A0BEC4EB9ABEFBE894BEA4DF8EBEEE
:105370000FD188BE3CBD82BEF54A79BE560E6DBEC9
:10538000DAC960BE807D54BE4A2948BE97CA3BBE7A
:10539000A5662FBE76FD22BE698C16BE7F130ABE9F
:1053A000EC2FFBBD5E2EE2BD4721C9BD6B0EB0BD2B
:1053B00038F496BD8FA97BBD316049BD6F0E17BD16
:1053C000DF6EC9BC297549BC00000000EC53000821
:1053D0000000002050000000000200083C540008BB
:1053E00050000020A00F00001C0200080100000077
:1053F00010000000000000000024F4000000000085
:10540000000000000000000000000000000000009C
:1054100000000000FFFFFFFF00000000FFFFFFFF94
:10542000FFFFFFFF0000000001000000000000007F
:0C54300000200000000000000000000050
:04000005080001C529
:00000001FF
