:020000040800F2
:10000000100F0020650200080B2900088924000851
:1000100009290008E1080008753300080000000005
:10002000000000000000000000000000712D00082A
:10003000B9090008000000000D290008732D000810
:100040007F0200087F0200087F0200087F0200088C
:100050007F0200087F0200087F0200087F0200087C
:100060007F0200087F0200087F0200087F0200086C
:100070007F0200087F0200087F0200087F0200085C
:100080007F0200087F0200087F0200087F0200084C
:100090007F0200087F0200087F0200087F0200083C
:1000A0007F020008212E00087F0200087F0200085E
:1000B000752E00087F0200087F0200087F020008FA
:1000C0007F0200087F0200087F0200087F0200080C
:1000D0007F0200087F020008693300087F020008E1
:1000E0007F0200087F0200087F0200087F020008EC
:1000F0007F0200087F0200087F0200087F020008DC
:100100007F0200087F0200087F0200087F020008CB
:100110007F0200087F0200087F0200087F020008BB
:100120007F0200087F0200087F0200087F020008AB
:100130007F02000800000000000000007F020008AD
:100140007F0200087F0200087F0200087F0200088B
:100150007F0200087F0200087F0200087F0200087B
:100160007F0200087F0200087F0200087F0200086B
:100170007F0200087F0200087F02000800000000E4
:10018000000000007F0200080000000000000000E6
:100190007F02000800000000000000007F0200084D
:1001A0000000000000000000000000007F020008C6
:1001B0007F0200087F0200087F0200087F0200081B
:1001C0007F02000800F002F800F03CF80AA090E876
:1001D000000C82448344AAF10107DA4501D100F002
:1001E00031F8AFF2090EBAE80F0013F0010F18BF93
:1001F000FB1A43F001031847C4330000E433000046
:10020000103A24BF78C878C1FAD8520724BF30C842
:1002100030C144BF04680C60704700000023002414
:1002200000250026103A28BF78C1FBD8520728BF06
:1002300030C148BF0B6070471FB503F0AEF91FBD5A
:1002400010B510BD00F006F91146FFF7F5FF03F0F9
:10025000BDF800F024F903B4FFF7F2FF03BC00F08F
:1002600027F900000948804709480047FEE7FEE7F4
:10027000FEE7FEE7FEE7FEE7FEE7FEE7FEE7FEE756
:1002800004480549054A064B70470000112E000836
:10029000C501000810090020100F0020100B0020DD
:1002A000100B002053EA020C00F069802DE9F04B9E
:1002B0004FF00006002B1FBFB3FA83F503FA05F4D5
:1002C00024FA05F65E4012BF1643B2FA82F502FA2E
:1002D00005F4C5F120051EBF22FA05FC44EA0C0412
:1002E000203556EA044C4FEA144418BF641C4FF002
:1002F00000084FF00009904271EB030C39D300293C
:1003000019BFB1FA81F701FA07F6B0FA80F700FADF
:1003100007F6C7F120071EBF20FA07FC46EA0C06C5
:100320002037B6FBF4FCA7EB0507103F07F01F0BC7
:10033000CBF120060CFA0BFB2CFA06F644BFB346B1
:100340000026202FA4BF5E464FF0000B5BEA060C90
:1003500008BF4FF0010B19EB0B09ABFB027C48EB1C
:100360000608C01B06FB02CC0BFB03CC71EB0C0197
:10037000C1E70B46024641464846BDE8F08B13B53F
:100380004FF000004FF00001AFF30080BDE81C40CB
:10039000704710B5203AC0F00B80B1E81850203AF1
:1003A000A0E81850B1E81850A0E81850BFF4F5AF15
:1003B0005FEA027C24BFB1E81850A0E8185044BF9F
:1003C00018C918C0BDE810405FEA827C24BF51F80C
:1003D000043B40F8043B08BF7047D20728BF31F800
:1003E000023B48BF11F8012B28BF20F8023B48BF51
:1003F00000F8012B70474FF0000200B513469446F9
:100400009646203922BFA0E80C50A0E80C50B1F16C
:100410002001BFF4F7AF090728BFA0E80C5048BF80
:100420000CC05DF804EB890028BF40F8042B08BF1E
:10043000704748BF20F8022B11F0804F18BF00F81A
:10044000012B7047704770477047000000487047A5
:10045000B00800207546FFF7F9FFAE460500694673
:10046000534620F00700854618B020B5FFF708FF77
:10047000BDE820404FF000064FF000074FF00008A5
:100480004FF0000B21F00701AC46ACE8C009ACE826
:10049000C009ACE8C009ACE8C0098D46704710B58A
:1004A0000446AFF300802046BDE81040FFF7D3BEFE
:1004B00001491820ABBEFEE726000200704700008D
:1004C000464910B54A6822F440324A604A68436897
:1004D0001A434A6001684A6822F480724A600168DF
:1004E0004A68036942EA03224A6001684A6822F0C6
:1004F00040724A6001684A6883681A434A6001682A
:100500008A6822F400628A6001688A68C3681A43B4
:100510008A60816A6FF07062D14201688A6822F055
:1005200070628A6001688A680CD0836A1A438A60A4
:1005300001688A6822F040528A6001688A68C36A4A
:100540001A4301E022F040528A6001688A6822F072
:1005500002028A6001688A68037E42EA43028A6076
:1005600090F82010002901684A680FD042F4006218
:100570004A6001684A6822F460424A6001684A6839
:10058000174C436A04EB43331A4301E022F4006240
:100590004A600168CA6A22F47002CA620168CA6AC3
:1005A000838B104C04EB03531A43CA6201688A68B8
:1005B00022F400728A6001688A6890F8303042EA5A
:1005C00043228A6001688A6822F480628A60016836
:1005D0008A68406942EA8020886010BD002301409B
:1005E00000E0FFFF0000F0FF2DE9F04704468068BF
:1005F0002349401CA060002020732048214E006841
:10060000B0FBF1F0316800EB80076FF0120008607A
:10061000DFF87480D8F800100860DFF87090D9F81F
:100620000010086000F056F9194D8246A86840F0A5
:100630008040A86004E0504600F012F9B8421AD297
:1006400030680068C0438007F5D4D8F8000000681F
:10065000C0438007EFD4D9F800000068C04380078A
:10066000E9D4E86C2080D5F84C016080D5F84C02C4
:10067000A08001202073BDE8F08700000C0000205E
:1006800040420F002003002068030020B003002038
:100690000020014070B50022002810D0EFF3058142
:1006A00069B9134C217851B903E0521C92B2802AE7
:1006B00003D2815C0029F8D103E0815C09B10020FC
:1006C00070BD92B10121217000210A4B03E0455C0D
:1006D0005D54491C89B29142F9D30649064801F09C
:1006E000AEFE10B100202070E9E7012070BD0000CF
:1006F00018000020900500203805002038B5EFF3E1
:10070000108472B610490A7812B948700120087036
:1007100000F020F80D480021026842F0010202605A
:10072000006800F0010000900948426C22F4004289
:1007300042640162C160016821F001010160BFF300
:100740004F8F84F3108838BD1900002044380240D0
:1007500000000140F0B587B014216846FFF74BFE5A
:10076000224C0025206840F0010020602068204FC6
:1007700000F001000590012248F21001384600F017
:1007800047FC00224FF47061384600F041FCE01451
:100790000126CDE900060220CDE90205694638466A
:1007A00000F048FB48F210700090CDE90165694601
:1007B0003846039500F03EFB206840F008002060BA
:1007C00020680C4C00F0080005900122042120460E
:1007D00000F01EFC04200090CDE90165694620462A
:1007E000039500F027FB07B0F0BD00003038024051
:1007F00000000240000C024010B5144C2068B0F11B
:10080000804F1ED1124813490068884219D100F068
:1008100083FD1149884214D110480068C00110D4EA
:100820000E4884380068C0F38220052809D160682A
:10083000592806D1A06820B9E068401C01D1206980
:1008400008B1002010BD012010BD0000F004002000
:100850000C0000200095BA0A40A5AE028C38024078
:1008600001494968081A7047001000E010B5154C9E
:10087000207808BBFFF7C0FF00281ED0124801688F
:1008800041F0807101601149002048600A6842F01F
:1008900001020A60096811F0010F0DD060600C4977
:1008A0000A6850620968801E08611C2000F016FC6E
:1008B000074801F0FDF908B1002010BD01202070AB
:1008C00010BD000010000020FCED00E0001000E072
:1008D000F00400200148406870470000001000E06C
:1008E000FEE700002DE9F041224E0122DFF888806A
:1008F00086B00024D70234703946404600F088FBA9
:10090000012000F085FA0120CDE90140CDE9034046
:100910000022034611461046009402F0DEFD050059
:100920001BD1032001940294CDE903400346002229
:1009300001211046009402F0B3FD05000DD10F20F7
:100940000090032301220221002002F0E3FD0500B4
:1009500003D102F020FD050006D0002239464046B2
:1009600000F056FB002000E00120307006B0284661
:10097000BDE8F0811B0000200000024033B50C4DA3
:100980000C4681B000221021284600F041FB0220D5
:1009900000900123224601A9064800F0A9FF044661
:1009A00001221021284600F033FB20463EBD000006
:1009B00000000240F8030020704772B60120FFF7E4
:1009C0009DFEFEE770B50C8804804B8843808D88BF
:1009D00085808E688660097B017321B390ED070ADC
:1009E000DFED220A9FED221A60EE200A00EE105A77
:1009F000B8EE400A20EE010A9FED1E1A40EE010AF1
:100A00009FED1D0AC0ED070AD16971B1016F591A36
:100A100000EE901AF8EEE00A60EE800AC0ED050ADA
:100A2000C16E611A0DE0002070BDC16E611A00EE4A
:100A3000901AF8EEE00A60EE800AC0ED050A016F38
:100A4000591A00EE901AF8EEE00A20EE800A80EDC6
:100A5000060A90ED050AD0ED060AB1EE400A30EE26
:100A6000600A80ED040A012070BD00003333733F3B
:100A7000CDCC4C3D3333533C0000A53C10B590F831
:100A80003C20012A1FD0012200F83C2F0F4A536856
:100A900023F01F03536053680C682343536053686B
:100AA00023F44043536053684C68234353605368B6
:100AB00023F470635360536889680B4353600021CB
:100AC0000170084610BD022010BD00000023014047
:100AD00078B50024009490F83C20012A19D0012216
:100AE00080F83C200A6807230568092A13D9EE68B4
:100AF0000A3A02EB420293409E43EE600B788A680A
:100B00000A3B03EB43039A400368DD682A43DA603B
:100B100010E0022078BD2E6902EB420293409E4312
:100B20002E610B788A6803EB43039A4003681D69C2
:100B30002A431A614A681F23072A13D205686E6B7D
:100B4000521E02EB820293409E436E630A8893B268
:100B50000A79521E02EB820293400268556B2B43C6
:100B6000536327E005680D2A12D22E6BD21F02EBC9
:100B7000820293409E432E630B790A88DB1F92B258
:100B800003EB83039A4003681D6B2A431A6311E049
:100B9000EE6A0D3A02EB820293409E43EE620B79BD
:100BA0000A880D3B92B203EB83039A400368DD6A27
:100BB0002A43DA621B4B0568194A9D420AD10D6827
:100BC000122D07D1556825F400055560556845F488
:100BD0008005556005689D421DD1134D0B68AB42E1
:100BE00001D0112B17D1536823F48003536053684D
:100BF00043F4000353600968A9420CD10B490C4A25
:100C00000968B1FBF2F101EB8101490000E0491EE6
:100C100000910029FBD180F83C40002078BD000005
:100C20000023014000200140120000100C000020B1
:100C300040420F0070B504004FF0000503D0206C57
:100C4000002610B107E0012070BD204600F01CF81E
:100C5000666484F83C60206CC00610D4206C20F4DC
:100C6000885040F0020020642046FFF729FC6664AB
:100C7000206C20F0020040F00100206400E001251B
:100C800084F83C60284670BDF0B587B00446142156
:100C90006846FFF7B0FB2B4A294F266800232949F5
:100CA000143A012503242848BE4212D10E6846F4A6
:100CB00080760E60096801F480710591116841F039
:100CC000040111601168009501F004010591694665
:100CD00032E01E4FBE4219D10D6845F400750D601B
:100CE000096801F400710591116841F00401116077
:100CF0001168029301F0040105910221CDE900146D
:100D00004FEA0D0100F096F807B0F0BD104886429A
:100D1000FAD1086840F480600860086800F48060D8
:100D20000590106840F0010010601068009500F018
:100D30000100059007486946CDE90143E2E700005C
:100D400000200140443802400008024000210140D8
:100D500000220140000002402DE9F0410446876D69
:100D600000F05CF9064694F835000025022806D00C
:100D70008020606584F834500120BDE8F08120684F
:100D8000016821F0160101602068416921F08001AD
:100D90004161206C08B9A06C20B12068016821F085
:100DA000080101602068016821F0010101600CE088
:100DB00000F034F9801B052807D920206065032046
:100DC00084F8350084F83450D7E720680068C007FD
:100DD000EED194F85C103F208840B860012084F880
:100DE000350084F834500020C7E790F83510022908
:100DF00003D08021416501207047052180F835101E
:100E00000068016821F001010160002070470000C6
:100E100070B5044600F002F90546601C02D0044893
:100E20000078044400F0FAF8401BA042FAD370BDE9
:100E3000000000202DE9F84FDFF8ACA100220124CA
:100E400003254FF00F090AF1040BAAF1040E00BFAD
:100E50000B6804FA02F63340B3426ED10F7907F003
:100E60000307012F01D0022F16D187684FEA4208ED
:100E700005FA08FC27EA0C07D1F80CC00CFA08FCAC
:100E80004CEA070CC0F808C04768B7430E79C6F3B0
:100E9000001696403E4346600E79F643B6070AD0E8
:100EA000C6684FEA420C05FA0CF7BE438F6807FA92
:100EB0000CF73743C7600E7906F00306022E10D1F7
:100EC000D60800EB8608D8F8206057074FEAD76CA1
:100ED00009FA0CF7BE430F6907FA0CF73743C8F855
:100EE000207006684FEA420C05FA0CF7BE430F79F2
:100EF00007F0030707FA0CF7374307604E6816F44C
:100F0000403F6BD0394E376847F4804737603668CA
:100F100022F0030706F480460096354E07EB060CD8
:100F2000DCF8086897074FEA177809FA08F7BE4314
:100F3000304FB84202D100271FE04FE02E4FB84299
:100F400001D1012719E02D4FB84201D1022714E049
:100F50002B4FB84201D103270FE02A4FB84201D1ED
:100F600004270AE0284FB84201D1052705E0274FA2
:100F7000B84201D1062700E0072707FA08F73743F0
:100F8000CCF80878DAF800605746D1F804C09E43E0
:100F90005FEACC2C00D51E433E60DBF800605F4664
:100FA000D1F804C09E435FEA8C2C00D51E433E60FE
:100FB000DEF800607746D1F804C09E435FEA8C3CBF
:100FC00000D51E433E60084F083F3E68D1F804C07C
:100FD0009E435FEACC3C00D51E433E60521C102A63
:100FE000FFF436AFBDE8F88F083C014044380240BA
:100FF00000300140000002400004024000080240AE
:10100000000C024000100240001402400018024090
:101010000AB1816170470904FBE70000014880685C
:1010200070470000000000200248816802781144E7
:1010300081607047000000200B4810B5016841F442
:1010400000710160016841F480610160016841F450
:1010500080710160032000F07BF80F2000F006F89B
:1010600000F024F8002010BD003C024070B50D4D8A
:1010700004464FF47A712878B1FBF0F00A49096808
:10108000B1FBF0F000F02CFD48B9102C07D2002283
:101090002146501E00F03CF800206C6070BD01201D
:1010A00070BD0000000000200C0000200A4808B5B8
:1010B000016841F480410160006800F480400090C4
:1010C0000548001F016841F080510160006800F090
:1010D0008050009008BD000044380240002809DB21
:1010E00000F01F02012191404009800000F1E02042
:1010F000C0F880127047002809DB00F01F020121B0
:1011000091404009800000F1E020C0F800117047D4
:10111000F0B40E4B1B680C46C3F30223C3F1070562
:10112000042D00D90425191D072901D2002300E050
:10113000DB1E012606FA05F1491E214099409E401A
:10114000761E16403143F0BC02F015B90CED00E0FC
:10115000064900F0070208684FF6FF03184040EA0E
:101160000220034A10430860704700000CED00E0C5
:101170000000FA052DE9F8431748016841F0805155
:1011800001600068154F00F08050012600903E6419
:10119000FFF744FF05464FF47A78114C05E000BF95
:1011A000FFF73CFF401B40450DD86068C003F7D5F2
:1011B0007E64FFF733FF0546464607E0FFF72EFF44
:1011C000401BB04202D90320BDE8F8836068800369
:1011D000F4D50020F8E700004038024000000E423D
:1011E000007000402DE9F0470E46050065D0DFF89D
:1011F0001481D8F80000F7B200F00F00B04207D217
:1012000088F80070D8F8000000F00F00B04254D108
:1012100028683D4C810712D5400703D5206840F46B
:10122000E05020602878000703D5206840F4604033
:1012300020602068A96820F0F0000843206028782A
:10124000C0072DD0304968680839012812D002281B
:1012500013D0032811D00968890700292DDA2168E5
:1012600021F0030101432160FFF7D8FE814641F2DE
:10127000883A0EE009688903EFE709688901ECE71D
:10128000FFF7CCFEA0EB0901514502D90320BDE8D0
:10129000F0872068696800F00C00B0EB810FEFD197
:1012A000D8F80010404601F00F01B14207D907708D
:1012B000006800F00F00B04201D00120E7E7287875
:1012C000400705D52068E96820F4E0500843206015
:1012D0002878000706D52068296920F4604040EA94
:1012E000C100206000F038F82168084AC1F30311FA
:1012F000515CC8400649086006480068FFF7B6FE22
:101300000020C4E7003C024008380240A435000831
:101310000C0000200400002004480549006809680A
:10132000044AC1F38221515CC84070470C00002080
:1013300008380240B43500080448054900680968C7
:10134000044AC1F34231515CC84070470C00002090
:1013500008380240B4350008224810B5006810F083
:101360000C02214815D04110042A11D01D4C241F15
:10137000082A0FD00C2A0CD12268236802F03F0201
:101380005B0221D52068C0F38810A0FB010120E09A
:10139000084610BD2268236802F03F025B0205D5B3
:1013A0002068C0F38810A0FB010104E02168C1F3AC
:1013B0008811A1FB00010023FEF774FF2168C1F32F
:1013C0000141491C49000AE02168C1F38811A1FBD1
:1013D00000010023FEF766FF2168C1F30271B0FB34
:1013E000F1F010BD083802400024F4002DE9F84F58
:1013F00004007DD0DFF878B32078ABF10407C00794
:10140000A7F1040550D0DBF800105846C1F3810164
:1014100001290FD00168C1F38101022902D1396885
:10142000490207D40068C0F38100032809D1386855
:10143000400206D52868800336D560680028D8D0D9
:1014400032E06068B0F5803F10D0B0F5A02F28687A
:1014500010D020F480302860286820F48020286094
:101460006068A0B1FFF7DAFD06460CE0286840F49A
:101470008030F4E740F480202860F7E7FFF7CEFDE6
:10148000801B642876D828688003F7D50CE0FFF726
:10149000C5FD064605E000BFFFF7C0FD801B6428C0
:1014A000F0D828688003F7D42078DFF8C892800746
:1014B0004FF0000A44D5DBF80010584611F00C0F2D
:1014C0000FD00168C1F38101022902D139684902B4
:1014D00007D50068C0F3810003280AD138684002AC
:1014E00007D42868800715D5E068012800D111E0ED
:1014F0003AE1E068B0B10120C9F80000FFF78EFDC5
:10150000064604E0FFF78AFD801B0228BAD8286847
:101510008007F7D52868216920F0F80040EAC1006B
:1015200028600DE0C9F800A0FFF778FD064604E04A
:10153000FFF774FD801B02281CD828688007F7D4A9
:101540002078000727D5DFF828828B48616908F1E9
:101550006C0881B101210160FFF760FD064604E0DF
:10156000FFF75CFD801B022804D8D8F80000800734
:10157000F6D510E089E0C0F800A0FFF74FFD064661
:1015800005E000BFFFF74AFD801B02287DD8D8F890
:1015900000008007F6D42078400769D574484FF0E2
:1015A000000838300068C0000BD47148383001683A
:1015B00041F08051016000684FF0010800F0805058
:1015C00000906E4E3068C00511D4306840F48070D1
:1015D0003060FFF723FD009006E000BFFFF71EFD1F
:1015E0000099401A022850D83068C005F6D5604EE0
:1015F000A068683601280FD00528306810D020F088
:1016000001003060306820F004003060A068B8B19C
:10161000FFF704FD00900FE0306840F00100F4E7B0
:1016200040F004003060F7E7FFF7F8FC0099411A3A
:1016300041F28830814264D830688007F4D50EE0EA
:10164000FFF7ECFC009007E0FFF7E8FC0099411A77
:1016500041F28830814254D830688007F4D4B8F120
:10166000000F05D042483830016821F080510160F8
:10167000A069A8B3DBF80010C1F38101022947D0AB
:101680000228C9F860A005D000E03AE0FFF7C6FCE8
:10169000044639E0FFF7C2FC064604E0FFF7BEFC53
:1016A000801B02282DD828688001F7D4F4E90701AF
:1016B0000843E168324A490802EB0141A26841EA65
:1016C00082110843217C40EA0160217D40EA0170DB
:1016D00038600120C9F86000FFF7A0FC044606E06E
:1016E00044E000BFFFF79AFC001B022809D82868D5
:1016F0008001F7D53AE000BFFFF790FC001B0228FD
:1017000002D90320BDE8F88F28688001F4D42DE0C9
:101710000128F7D03868E26900F48001914223D1B2
:10172000226A00F03F0191421ED147F6C071626A01
:101730000140B1EB821F17D1A26A4FF0FF3300F4D2
:10174000403103EB5202B1EB024F0DD194F82C2043
:1017500000F07061B1EB026F06D194F8301000F028
:10176000E040B0EB017F01D00120CBE70020C9E7CA
:101770000838024000004742800E47420070004097
:101780000000FFFF70B5040009D0606A002540B179
:1017900025616561A56294F8510040B10CE001201B
:1017A00070BD6068B0F5827FF4D0E561F2E784F83F
:1017B0005050204600F044F8022084F85100206880
:1017C000016821F040010160A088218900F4827045
:1017D00001F404410843A18901F400610843217C1C
:1017E00001F002010843217D01F001010843218B32
:1017F00001F400710843217F01F03801084394F897
:10180000201001F080010843218D01F400510843AC
:1018100021680860A069042101EA104094F82410AE
:1018200001F010010843216848602068C16921F473
:101830000061C1616565012084F85100002070BD20
:1018400030B587B0044614216846FEF7D4FD234D19
:1018500022680021224802230324AA421BD1204AE5
:101860001432156845F480551560126802F48052F0
:101870000592026842F0010202600068CDE902149C
:1018800000F001000590E020CDE900030520049060
:10189000694614481EE0144DAA421DD1104A103268
:1018A000156845F400451560126802F4004205927F
:1018B000026842F0040202600068CDE9021400F000
:1018C000040005904FF4E050CDE900030620049099
:1018D00069460648FFF7AEFA07B030BD0030014058
:1018E0003038024000000240003C00400008024046
:1018F0002DE9FF4F81B01D46934604464FF0010984
:101900000E9EFFF78BFB074694F851006168012893
:1019100006D0B1F5827F3CD1A168C9BB042838D17B
:101920000298002871D0BBF1000FFBD0002DF9D038
:1019300094F8500001282CD04FF0010A84F850A0F0
:1019400094F85100042802D0052084F851004FF08B
:101950000008C4F85480C4F838B0E587A587029918
:101960002163E586A586C4F84080C4F844802068D9
:101970000168490603D4016841F040010160E06854
:10198000B0F5006F606808D0F0B3012D49D081E058
:10199000FFE7022005B0BDE8F08F08B1012D39D175
:1019A000206B21680088C860206B801C2063E08E5B
:1019B000401EE0862EE02068816889070FD5E18E01
:1019C00069B1B9F1010F0AD1216B0988C160206B9F
:1019D000801C2063E08E401EE0864FF000092068E6
:1019E0008168C9070CD0E18F51B1C068A16B088034
:1019F000A06B801CA063E08F401EE0874FF00109C0
:101A0000FFF70CFBC01B01E00BE067E0B04201D325
:101A1000701C50D1E08E0028CDD1E08F0028CAD1B3
:101A20003EE0206B216800780873206B401C206327
:101A3000E08E401EE0862DE02068816889070FD582
:101A4000E18E69B1B9F1010F0AD1216B09780173F7
:101A5000206B401C2063E08E401EE0864FF00009A2
:101A600020688168C9070CD0E18F51B1C068A16BB3
:101A70000870A06B401CA063E08F401EE0874FF011
:101A80000109FFF7CBFAC01BB04202D3701C01D092
:101A900011E086B1E08E0028CED1E08F0028CBD1B6
:101AA0003A463146204601F0CFF850B1202060651B
:101AB00084F8508012E084F851A084F8508003200C
:101AC00068E7A06818B92068C1688068009084F849
:101AD00051A084F85080606D0028F1D0012059E7B2
:101AE00010B5401EB0F1807F01D3012010BD4FF032
:101AF000E02460610F21601701F03DFC0020A0612F
:101B000007202061002010BD7047704710B590F885
:101B10003C20012A22D0012280F83C20CA688C682F
:101B200022F4407222434C6822F4806222430C6803
:101B300022F4006222430C6922F4805222434C6951
:101B400022F400522243C969002322F480420A434E
:101B500001684A6480F83C30002010BD022010BDAE
:101B600070B590F83C20012A32D0012480F83C4026
:101B7000022280F83D2003685A689D6822F07006B2
:101B80000A6832435A60134B02689A4214D0B2F189
:101B9000804F11D0104B9A420ED0104B9A420BD06E
:101BA0000F4B9A4208D00F4B9A4205D00E4B9A42E7
:101BB00002D00E4B9A4204D1496825F080031943A4
:101BC000916080F83D40002180F83C10084670BDCF
:101BD000022070BD000001400004004000080040E9
:101BE000000C00400004014000400140001800408B
:101BF00010B5040003D094F83D0010B107E00120B7
:101C000010BD002084F83C00204600F01FF80220A0
:101C100084F83D00211D206801F032F9012084F88C
:101C2000460084F83E0084F83F0084F8400084F8C1
:101C3000410084F8420084F8430084F8440084F8AA
:101C4000450084F83D00002010BD000008B5006884
:101C5000154988420FD11548016841F00101016022
:101C60000068002200F00100009001211920FFF718
:101C70004FFA192012E0B0F1804F13D10B48001F2A
:101C8000016841F0010101600068002200F00100DC
:101C900000900F211C20FFF73BFA1C20BDE80840F4
:101CA000FFF729BA08BD0000000001404438024097
:101CB00090F83D10012901D001207047022180F8E1
:101CC0003D100168CA6842F00102CA60006811490B
:101CD000884214D0B0F1804F11D00F4988420ED005
:101CE0000E4988420BD00E49884208D00D498842DF
:101CF00005D00D49884202D00C49884204D1816840
:101D000001F00701062903D0016841F001010160DB
:101D1000002070470000014000040040000800401F
:101D2000000C004000040140004001400018004049
:101D300070B5044690F83C000025012817D0012614
:101D400084F83C60022084F83D002068826822F01C
:101D5000770222F47F4282600868502838D00DDC78
:101D600020284FD005DC90B3102811D14AE0022082
:101D700070BD302846D040280AD13BE060282FD0E3
:101D800070280DD0B0F5805F03D0B0F5005F12D0A1
:101D9000012584F83D60002084F83C00284670BD91
:101DA000CB68D1E90121206801F0D2F82068816870
:101DB00041F0770109E0CB68D1E90121206801F009
:101DC000C7F82068816841F480418160E1E719E04B
:101DD000CA684968206801F08FF95021206806E040
:101DE000CA684968206801F098F96021206801F00C
:101DF000B9F8CEE7CA684968206801F07DF940214A
:101E00002068F4E7226801461046F0E770472DE9A4
:101E1000F04104460068C66805694FF00007A9074D
:101E200013D5B10711D5F91E016101202077206873
:101E300080698007204602D0FFF7E8FF04E000F049
:101E4000A9F8204600F03BF92777680716D57007F8
:101E500014D521686FF00400086102202077206803
:101E6000806910F4407F204602D0FFF7CFFF04E0E6
:101E700000F090F8204600F022F92777280715D5C2
:101E8000300713D521686FF008000861042020771F
:101E90002068C0698007204602D0FFF7B7FF04E042
:101EA00000F078F8204600F00AF92777E80616D502
:101EB000F00614D521686FF0100008610820207723
:101EC0002068C06910F4407F204602D0FFF79EFFD3
:101ED00004E000F05FF8204600F0F1F82777E8070B
:101EE00008D0F00706D021686FF001000861204695
:101EF00000F0E6F8280608D5300606D521686FF010
:101F0000800008612046FFF7FFFD680608D57006CF
:101F100006D521686FF040000861204600F0DCF82B
:101F2000A8060AD5B00608D521686FF02000086120
:101F30002046BDE8F041FFF7E8BDBDE8F0810000B4
:101F400010B586B0044614216846FEF754FA0E49CF
:101F50002068884216D10D480021026842F0010233
:101F60000260006800F0010005904FF4E06000900E
:101F70000220CDE901010120CDE9031069460448A2
:101F8000FEF758FF06B010BD000001403038024097
:101F900000000240704770B5044690F83C000026EF
:101FA0000D4601280FD0012084F83C006AB1042AB4
:101FB0001DD0082A2FD00C2A3FD00126002084F8FB
:101FC0003C00304670BD022070BD206800F0D2FF9A
:101FD0002068816941F0080181612068816921F0F0
:101FE00004018161206881692A69114311E0206838
:101FF00000F0F0FF2068816941F400618161206890
:10200000816921F480618161206881692A6941EADE
:1020100002218161D2E7206801F012F82068C169CD
:1020200041F00801C1612068C16921F00401C1616A
:102030002068C1692A69114311E0206801F034F871
:102040002068C16941F40061C1612068C16921F45F
:102050008061C1612068C1692A6941EA0221C161C8
:10206000ACE710B5040003D094F83D0010B107E0D0
:10207000012010BD002084F83C00204600F01EF82E
:10208000022084F83D00211D206800F0F9FE0120A7
:1020900084F8460084F83E0084F83F0084F840004D
:1020A00084F8410084F8420084F8430084F8440036
:1020B00084F8450084F83D00002010BD704770474B
:1020C0000068B0F1804F03D102484168491C41606B
:1020D00070470000100000207047704770470000F4
:1020E000F8B5016804460868CA684B6910F00F0F1C
:1020F0004FF0000559D003F0010602F49077374302
:1021000065D0C10705D0D10503D5616C41F001014F
:102110006164410705D5D90703D0616C41F0020124
:102120006164810705D5D90703D0616C41F00401D2
:102130006164010707D502F02001314303D0616CCF
:1021400041F008016164616C00293AD0800604D531
:10215000900602D5204601F020F820684069616CA5
:10216000C0F38010090700D460B3204600F0EEFFF2
:1021700020684069400621D52068143050E8001FCF
:1021800021F0400140E80012002AF5D1E06BA8B12F
:1021900072490165E06BFEF728FE002811D0E06B64
:1021A000016D01B0BDE8F040084783060FD59306E6
:1021B0000DD52046BDE8F84000F0EFBF2046FFF700
:1021C0008DFFF8BD2046FFF789FF6564F8BD266BDB
:1021D0002023012E7ED1C6067CD5D6067AD5086886
:1021E0004868009048694FF0020640064DD5E26B02
:1021F000106840684FF480770004000C3AD0A18D3D
:10220000814237D9E085D069B8422DD020680C30A2
:1022100050E8001F21F4807140E80012002AF5D137
:102220002068143050E8001F21F0010140E800123E
:10223000002AF5D12068143050E8001F21F0400139
:1022400040E80012002AF5D184F842302563206866
:102250000C3050E8001F21F0100140E80012002A65
:10226000F5D1E06BFEF778FD6663A08DE18D401A35
:1022700081B206E0A18D8142A8D1D069B842A5D132
:1022800066632046FFF729FFF8BDA08DE18D401A57
:1022900081B2E08D0028F7D00029F5D020680C30FD
:1022A00050E8002F22F4907240E80027002FF5D16B
:1022B0002068143050E8002F22F0010240E8002787
:1022C000002FF5D184F84230256320680C3050E8A7
:1022D000002F00E006E022F0100240E80023002B6F
:1022E000F3D1CDE705062BD5150629D594F8410085
:1022F0002128C9D1A068B0F5805F01D12069B0B1B3
:10230000206A411C2162216800784860E08C401EF0
:102310000004000CE084B7D12068C16821F080017E
:10232000C1602068C16841F04001C160F8BD206A09
:102330000088C0F308004860206A801C2062E5E73E
:102340004006F3D55006F1D5CA68204622F0400277
:10235000CA6084F8413000F08BF8F8BD3F310008C6
:1023600070B5040004D094F84100002510B106E0D7
:10237000012070BD84F84050204600F023F824204E
:1023800084F841002068C16821F40051C1602046F2
:1023900000F064FF2068016921F490410161206828
:1023A000416921F02A0141612068C16841F400516E
:1023B000C1606564202084F8410084F842006563B0
:1023C000002070BD10B586B0044614216846FEF7A3
:1023D00012F817492068884228D11648002102685F
:1023E00042F400320260006800F4003005901148A9
:1023F0001038026842F001020260006800F001003B
:1024000005900C2000900220CDE9010103200390EB
:102410000720049069460848FEF70CFD00220E21B3
:102420002620FEF775FE2620FEF765FE06B010BDDD
:10243000004400404038024000000240704790F8DD
:102440004130202B01D00220704779B172B1016276
:102450008284C28400214164212180F841100068F7
:10246000C16841F08001C1600020704701207047C1
:102470000349884202D103490020087070470000D8
:102480003805002018000020FEE7000070B5124853
:102490000068816841F0010181601048006881682E
:1024A00041F0010181600E480068816841F001013E
:1024B0008160FEF70FFAFEF70DFA0A4D0A4E044648
:1024C0002046FEF7CDF92968B1FBF6F101EB410199
:1024D0008842F5D370BD000068030020B0030020DF
:1024E000200300200C00002040420F0030B587B0D0
:1024F00000241D48059406940494009401940294C9
:102500001849039401604FF48031C0E9011404615B
:10251000047680F820401549C0E90A140125C561F8
:10252000C46080F830404561FEF784FB08B1FEF7D7
:1025300044FA1620CDE9040404A90B480694FEF7DA
:102540009DFA08B1FEF739FA0A20CDE9000569467F
:1025500005480295FEF7BCFA002801D0FEF72DFAD7
:1025600007B030BD00200140200300200100000F13
:102570001FB500211448009101910291114A039165
:1025800002604FF48032C0E901210161017680F8D8
:1025900020100124C461C16080F830104461FEF74E
:1025A00049FB08B1FEF709FA0B20CDE900046946A2
:1025B00005480294FEF78CFA002801D0FEF7FDF9D9
:1025C0001FBD000000210140680300207FB50024EA
:1025D00013480094019402941049039401604FF44D
:1025E0008031C0E901140461047680F8204001259F
:1025F000C561C46080F830404561FEF71BFB08B13F
:10260000FEF7DBF9CDE90045694605480295FEF77E
:102610005FFA002801D0FEF7D0F97FBD002201400B
:10262000B00300202DE9F04186B014216846FDF783
:10263000E2FE2A480024016841F08001016001683F
:1026400001F080010591016841F004010160016819
:1026500001F004010591016841F001010160016888
:1026600001F001010591016841F008010160006875
:102670001B4F00F0080048F2100505900122294682
:102680003846FEF7C5FCFE14002231463846FEF7F8
:10269000BFFCDFF85080012204214046FEF7B8FC61
:1026A00000950125CDE90154694638460394FEF7AB
:1026B000C1FB0220CDE90204CDE900656946384638
:1026C000FEF7B8FB04200090CDE90154694640466E
:1026D0000394FEF7AFFB06B0BDE8F081303802404E
:1026E00000000240000C0240114810B50F49016083
:1026F0004FF48271416000214FF40062C0E9021280
:102700000122C0E90412520282613822C0E9072185
:10271000416281620A21C162FFF734F8002803D0C8
:10272000BDE81040FEF749B910BD0000003001407F
:10273000F8030020104810B50E4901604FF4827173
:10274000416000214FF40062C0E902120122C0E999
:1027500004125202C0E906210162416281620A212B
:10276000C162FFF70FF8002803D0BDE81040FEF764
:1027700024B910BD003C00405004002010B596B0B4
:1027800000240F9410941194129413941C21684601
:102790001494FDF730FE202107A8FDF72CFE3248E7
:1027A0003049C0E900144021816040F6CA01C0E907
:1027B00003140121416180218161FFF719FA08B1F9
:1027C000FEF7FBF84FF480500F900FA92648FFF753
:1027D000AFFA08B1FEF7F1F82348FFF742FC08B161
:1027E000FEF7EBF8139413A91F481494FFF7B8F9F8
:1027F00008B1FEF7E2F87020009040F26540CDE9A4
:102800000104039404940594002269461648069432
:10281000FFF7C1FB08B1FEF7D0F804226946124861
:10282000FFF7B9FB08B1FEF7C8F8082269460E4861
:10283000FFF7B1FB08B1FEF7C0F8079408940994BC
:102840004FF400500A94CDE90B4007A906480E94B6
:10285000FFF75CF908B1FEF7B0F80348FFF770FB2B
:1028600016B010BD00000140A804002010B586B0CD
:1028700000241648009401940294039404944FF0A9
:102880008041059401605921C0E90114611EC0E92D
:1028900003148461FFF7ACF908B1FEF78EF84FF42A
:1028A0008050009069460948FFF742FA08B1FEF7E8
:1028B00084F8049404A905480594FFF751F9002809
:1028C00001D0FEF77AF806B010BD0000F004002039
:1028D0000C4810B50A4901604FF4612141600021A4
:1028E00081600C22C160C0E904128161C161FFF7FF
:1028F00037FD002803D0BDE81040FEF75EB810BDDC
:102900000044004038050020FEE7FEE77047000065
:102910002DE9F84F82462B4889462B49006890469E
:10292000B0FBF1F047F6FE7600EB8005FDF7D2FF35
:10293000264C07462068016841F04001016007E02D
:102940003846FDF78DFFA84202D30320BDE8F88F7B
:1029500020688168C9438907F2D48168C9430906A0
:10296000EED5C16880680090002249465046FEF7C7
:102970004FFB206886810AE03846FDF771FFA842C8
:1029800005D3012249465046FEF742FBDDE72068A9
:102990008168C943C907EFD18168C9438907EBD46E
:1029A0008068C0430006E7D5206884890122494633
:1029B0005046FEF72DFBC4F30D01A8F800100020CF
:1029C000C4E700000C00002040420F00500400202B
:1029D0002DE9F04300272DED028B83B00E4604460F
:1029E0000776B0EE408A28256A464FF400418248B7
:1029F000FFF78EFF00287AD101AA04217F48FFF754
:102A000087FF002873D1BDF800C0706BBDF80420AB
:102A1000BCEB0001B06BA2EB000001D501F58041D9
:102A2000002801DA00F58040DFF8D491081A484503
:102A300001DA00F580404FF40053984201DDA0F523
:102A4000804000EE100AB8EEC00ADFED6E0A60EEBC
:102A5000200A9FED6D0A60EE800A9FED6C1A6C49AA
:102A6000012220EE811A4FEADC1002EBDC1884ED23
:102A7000011A08F07F0851F8200051F828102CF0B6
:102A80007F08091AACEB080801FB08F100EBE11024
:102A9000A4F800C0BDF804106180BDF8001008441F
:102AA0005C49E06191F800C0BCF1000F05D0FDEE7B
:102AB000E00AC1ED010A0F700BE08F68C71B9F424F
:102AC00002DD4B685B1E03E04F4502DA4B685B1C7E
:102AD0004B6000EE900A88604B68B8EEE01A9B03EA
:102AE00000EE903AF8EEE00A71EE200A00E07EE097
:102AF000DFED491AC0EBC0035B0060EEA10ADF17EF
:102B000003EB97476FF30D0760EE800ADB1BC4ED04
:102B1000080A00EE903AB8EEE01AD6ED000A9FEDF2
:102B20003F2A41EE020AF5EEC00AF1EE10FA02D297
:102B300070EEA10A06E010EE903A394EB34201DD84
:102B400070EEE10A01EE100AC4ED020AB8EEC11AF5
:102B5000D1ED030A21EE211A21EE000A81ED030ACC
:102B600030EE601A11EE100A10F17F5F02D971EE9B
:102B7000210A06E011EE100A2A4B984204DD71EE9C
:102B8000610A80EE880A01E081EE080A264B0120E6
:102B9000F0EE400A2E1A03EB8606401C16ED011AD1
:102BA000A84286ED001A71EE200AF3DB83ED000ADD
:102BB00000EE105ADFED1D1AB8EEC01A80EE810A41
:102BC00091ED041AF2EE0C0A21EE211ADFED181A2B
:102BD00060EE200A00EEA11A81ED041A9FED151A8D
:102BE00020EE010A84ED030AC4ED040A227603B044
:102BF000BDEC028BBDE8F08300000240000C0240F7
:102C000000E0FFFF0000104200008038C3B8323EF1
:102C1000100600201C000020DB0FC940DB0FC93963
:102C2000DB0FC9400000404010080020A4707D3F29
:102C30000AD7233C398EE33C01464FF40072014829
:102C4000FDF7A7BB10060020F8B515460E460B464B
:102C5000009204460122022100F02CF8A0B913488A
:102C600013490068B0FBF1F04FF47A7148430090CB
:102C70006068B0F5827F0DD1334600228021204666
:102C8000009500F017F870B1606D40F020006065AD
:102C90000320F8BD009830B1401E00902068806885
:102CA000C0430006F6D50020F8BD00000C0000204F
:102CB00000366E012DE9F8431E46914688460446CB
:102CC000089DFEF7ABF9401B351AFEF7A7F907463A
:102CD00026480068C0F3CB3068430AE0701C09D076
:102CE000FEF79CF9C01BA8420FD275B10098B8B38B
:102CF000401E00902068816838EA010033D000212E
:102D00004945EBD10020BDE8F8832068416821F0F7
:102D1000E00141606068B0F5827F0BD1A068B0F53A
:102D2000004F02D0B0F5806F04D12068016821F017
:102D300040010160A06AB0F5005F09D12068016818
:102D400021F4005101602068016841F400510160E4
:102D5000012084F85100002084F850000320D2E7BD
:102D6000FFE70025C6E70121CAE700000C000020AC
:102D70007047FEF759B9000030B593B0342168466A
:102D8000FDF739FB14210DA8FDF735FB1E48002582
:102D9000016841F080510160006800F0805012909D
:102DA0001A48016841F4404101600068022400F4BF
:102DB0004040129001200090000401908001CDE974
:102DC0000640082008904FF4B470CDE909040B9434
:102DD00068460C94FEF70AFB88B9FEF7CBF970B988
:102DE0000DA90F2081E831004FF4A0501090E002AF
:102DF000119005210DA8FEF7F5F9002801D0FDF787
:102E0000DCFD13B030BD00004038024000700040CF
:102E10000248016841F470010160704788ED00E0EC
:102E20000E4810B500680169C943C90711D1C068CF
:102E3000C043C0070DD10A48FDF7D6FB9FED090A34
:102E400009490A48FFF7C4FD074A05490848FDF744
:102E5000B9FDBDE810400148FEF7D9BFA804002025
:102E60008005002017B7D137C0000020FC020020E9
:102E7000300000200148FEF7CABF0000F004002027
:102E8000F0B50268274B284D284E294F294C4FF0AA
:102E9000804C984209D0604507D0A84205D0B04286
:102EA00003D0B84201D0A04204D122F0700E4A688B
:102EB00042EA0E0298421BD0604519D0A84217D0B2
:102EC000B04215D0B84213D0A04211D01A4DA8423A
:102ED0000ED01A4DA8420BD0194DA84208D0194D5A
:102EE000A84205D0184DA84202D0184DA84203D1DF
:102EF00022F44075CA682A434D6922F080022A43B1
:102F00008D68C5620D688562984201D0A04201D1EA
:102F100009690163016841F0040101600121416117
:102F20000260F0BD000001400004004000080040C5
:102F3000000C0040000401400040014000440140FA
:102F40000048014000180040001C004000200040E4
:102F500010B5846842EA032224F47F440A432243E2
:102F6000826010BD826822F070020A4342F00701BD
:102F700081607047F0B5036A026A22F001020262C2
:102F800042688469124E24F073050C682C4323F0C8
:102F900002058B682B430D4DA84201D0B04205D1EC
:102FA00023F00807CB683B4323F00403A84201D079
:102FB000B04205D14D6922F4407215438A692A4313
:102FC00042608461496841630362F0BD00000140D2
:102FD00000040140F0B5026A036A23F010030362A3
:102FE000436884690D6824F4E64444EA05248D6846
:102FF00022F0200242EA05120F4D104EA84201D0E5
:10300000B04206D1CF6822F0800242EA071222F0D5
:103010004002A84201D0B04207D14D6923F4406379
:1030200043EA85038D6943EA850343608461496807
:1030300081630262F0BD0000000001400004014015
:10304000F0B5026A036A23F4807303624368C469BB
:1030500022F4007224F073050C68124E2C438D6824
:1030600042EA05220E4DA84201D0B04206D1CF68F7
:1030700022F4006242EA072222F48062A84201D0D0
:10308000B04207D14D6923F4405343EA05138D69DB
:1030900043EA05134360C4614968C1630262F0BD3D
:1030A000000001400004014030B5046A026A22F4C5
:1030B000805202624268C3690D6823F4E64343EA22
:1030C00005238D6824F4005444EA0534084DA842D1
:1030D00002D0084DA84204D14D6922F4804242EA50
:1030E00085124260C36149680164046230BD00001A
:1030F000000001400004014010B5036A046A24F096
:1031000001040462846924F0F00444EA021423F008
:103110000A020A438461026210BD10B5036A046AA0
:1031200024F010040462846923F0A00324F47044A2
:1031300044EA023243EA01118261016210BD10B516
:10314000806B0021C185FEF7C9FF10BD01680C31FD
:1031500051E8002F22F4907241E80023002BF5D1B2
:103160000168143151E8002F22F0010241E80023E8
:10317000002BF5D1016B012909D101680C3151E80F
:10318000002F22F0100241E80023002BF5D120216E
:1031900080F8421000210163704708B590F8421092
:1031A000222901D0022008BD82684FF480539A4240
:1031B00001D1016921B1816A9A421BD04AB10AE06A
:1031C0000268816A5268C2F308020A80816A891C17
:1031D00008E0026972B10268526802F07F020A7068
:1031E000816A491C8162C18D491E0904090CC1858F
:1031F00003D01BE002685268F1E70168CA6822F058
:103200002002CA600168CA6822F48072CA6001683C
:103210004A6922F001024A61202180F8421000210F
:103220004163026B012A03D0FFF708F9002008BDB3
:10323000016301680C3151E8002F22F0100241E8CF
:103240000023002BF5D101680A68D20602D50A686E
:1032500049680091818DFEF740FFE7E770B50446AD
:1032600000680169E26821F440511143016121695C
:10327000A068E26908436169114308432168CA688C
:1032800049F20C639A430243CA6020684169A2690B
:1032900021F440711143416131492068884202D0D4
:1032A0003049884202D1FEF747F801E0FEF734F8D2
:1032B000E2690023192164253226B2F5004F6268C5
:1032C00028D0A0FB0101930F9200FCF7EBFF014611
:1032D000B0FBF5F06FF01802504301EB800006EBF5
:1032E0000010B0FBF5F000F0F002B1FBF5F002EBDE
:1032F0000012B1FBF5F06FF01803584301EB8000AA
:1033000006EB0010B0FBF5F000F00F002168104450
:10331000886070BDA0FB010192185B41FCF7C2FF01
:103320000146B0FBF5F00201B1FBF5F06FF01803B8
:10333000584301EB800006EBC000B0FBF5F000F055
:10334000F80002EB4002B1FBF5F0584301EB8000BE
:1033500006EBC000B0FBF5F000F00700D6E7000078
:1033600000100140001401400148FEF7B9BE000002
:1033700038050020FEE70907090E002804DB00F1EC
:10338000E02080F80014704700F00F0000F1E0200A
:1033900080F8141D704708B56946062000F06EF8E5
:1033A000002812D1BDF8000040F01C01062000F0FA
:1033B000C0F8002809D10120FDF72AFDBDF8000062
:1033C00020F01C01062000F0B4F808BDFDF7C2F99A
:1033D000FDF732FEFFF7D0FCFFF724F9FFF746FABE
:1033E000FFF776FAFFF780F9FFF7C8F9FFF77EF8E5
:1033F000FFF7BEF8FFF7EAF8FFF79CF9FDF736FA9A
:1034000020B3FDF76FFA08BBFFF740F81249081F19
:1034100000F099F8D0B110485C30FFF70DFC0F4A6E
:103420004FF400410E48FFF773FA78B90B4A0421B4
:10343000921C0C48FFF76CFA40B90B496FF0010081
:10344000096808610848FEF733FC08B1FDF7B5FAD2
:1034500006A0FDF71FF9FEE7A0000020FC020020F7
:1034600000000240000C0240A8040020424F4F54CC
:10347000204F4B204552523D300D0A0010B50C46EE
:1034800000F00F004FF4004141EAC0202146FDF753
:1034900075FA002803D12188C1F30A01218010BDEB
:1034A000F0B48002DDE9044540EA412040EA022010
:1034B000DDE9066740EA831040EA441040EA05105F
:1034C00040EAC60040EA8700DDF820C0F0BC40EAD0
:1034D0000C0081B2062000F02CB8F0B44002DDE907
:1034E000044540EA012040EAC210DDE9066740EAEF
:1034F000431040EA041040EAC50040EA860040EA72
:103500004700DDF820C0F0BC40EA0C0081B2022088
:1035100000F00FB830B4800240EA012040EA821087
:10352000029C40EA0310204381B230BC0520AFF377
:10353000008000F00F0208B5084662F3DF206946FC
:10354000FDF71CFA08BD2DE9FF4100268846074615
:103550003546009601960296344603966846FDF776
:1035600043F89DF80C00002814D0BDF80000064474
:10357000BDF8020005440A20FDF74AFC641C322C09
:10358000ECDB322096FBF0F1396095FBF0F1012085
:10359000C8F8001004B0BDE8F0814FF04070E1EED3
:1035A000100A704700000000000000000102030440
:1035B000060708090000000001020304DC350008CA
:1035C0000000002030000000000200080C36000857
:1035D00030000020E00E00001C0200080100000086
:1035E00010000000000000000024F40000000000B3
:1035F00000000000000000000100000000000000CA
:0C3600000020000000000000000000009E
:04000005080001C529
:00000001FF
