:020000040800F2
:1000000020BA0020D50200081B5900083D54000802
:1000100019590008B12800084168000800000000D4
:10002000000000000000000000000000296100083E
:100030009529000800000000955A00082B6100086F
:10004000EF020008EF020008EF020008EF020008CC
:10005000EF020008EF020008EF020008EF020008BC
:10006000EF020008EF020008EF020008EF020008AC
:10007000EF020008EF020008EF020008EF0200089C
:10008000EF020008EF020008EF020008EF0200088C
:10009000B5280008EF020008EF020008EF02000890
:1000A000EF020008D9610008EF020008EF02000823
:1000B000ED620008EF020008EF020008EF020008FE
:1000C000EF020008EF020008EF020008EF0200084C
:1000D000EF020008EF02000835680008EF02000890
:1000E000EF020008EF020008EF020008EF0200082C
:1000F000EF020008EF020008EF020008EF0200081C
:10010000EF020008EF020008EF020008EF0200080B
:10011000EF020008EF020008EF020008EF020008FB
:10012000EF020008EF020008EF020008EF020008EB
:10013000EF0200080000000000000000EF020008CD
:10014000EF020008EF020008EF020008EF020008CB
:10015000EF020008EF020008EF020008EF020008BB
:10016000EF020008EF020008EF020008EF020008AB
:10017000EF020008EF020008EF0200080000000094
:1001800000000000EF020008000000000000000076
:10019000EF0200080000000000000000EF0200086D
:1001A000000000000000000000000000EF02000856
:1001B000EF020008EF020008EF020008EF0200085B
:1001C000EF02000800F002F800F075F80AA090E8CD
:1001D000000C82448344AAF10107DA4501D100F002
:1001E0006AF8AFF2090EBAE80F0013F0010F18BF5A
:1001F000FB1A43F001031847449300006493000086
:100200000A444FF0000C10F8013B13F0070408BF3C
:1002100010F8014B1D1108BF10F8015B641E05D0DA
:1002200010F8016B641E01F8016BF9D113F0080F8F
:100230001EBF10F8014BAD1C0C1B09D16D1E58BF21
:1002400001F801CBFAD505E014F8016B01F8016B58
:100250006D1EF9D59142D6D37047000000230024CB
:1002600000250026103A28BF78C1FBD8520728BFC6
:1002700030C148BF0B607047662908F03D8464298F
:1002800000F00481732900F00685002070471FB537
:1002900008F0ABFB00F09AFD04000020002108F0FC
:1002A000F5F8401C60600020002108F0D9F8E060FB
:1002B0001FBD10B510BD00F0FDFE1146FFF7E7FFB2
:1002C00007F084F901F0A6F903B4FFF7F2FF03BCCD
:1002D00001F0EAF90948804709480047FEE7FEE7D0
:1002E000FEE7FEE7FEE7FEE7FEE7FEE7FEE7FEE7E6
:1002F00004480549054A064B70470000C9610008DB
:10030000C501000820B4002020BA002020B600203B
:1003100020B6002053EA020C00F069802DE9F04B72
:100320004FF00006002B1FBFB3FA83F503FA05F464
:1003300024FA05F65E4012BF1643B2FA82F502FABD
:1003400005F4C5F120051EBF22FA05FC44EA0C04A1
:10035000203556EA044C4FEA144418BF641C4FF091
:1003600000084FF00009904271EB030C39D30029CB
:1003700019BFB1FA81F701FA07F6B0FA80F700FA6F
:1003800007F6C7F120071EBF20FA07FC46EA0C0655
:100390002037B6FBF4FCA7EB0507103F07F01F0B57
:1003A000CBF120060CFA0BFB2CFA06F644BFB34641
:1003B0000026202FA4BF5E464FF0000B5BEA060C20
:1003C00008BF4FF0010B19EB0B09ABFB027C48EBAC
:1003D0000608C01B06FB02CC0BFB03CC71EB0C0127
:1003E000C1E70B46024641464846BDE8F08B13B5CF
:1003F0004FF000004FF00001AFF30080BDE81C405B
:10040000704700000FB41CB50C0007AA009001D083
:100410002044401E074B7B4469460190069800F03B
:1004200008FC002C03D06946002000F015FC1CBC21
:100430005DF814FB4908000070B50C460546012A1A
:1004400005D02878800600D5EA69002302E0012360
:1004500005E05B1C934202D2E05C0028F9D1A86958
:10046000E618C01AA861286A184428622846AFF323
:10047000008004E0D5E9012114F8010B9047B44253
:10048000F8D32846AFF3008070BD00002DE9F0419D
:100490000646002410687529314616A510D0AFF322
:1004A0000080002802DA404213A507E031688A077D
:1004B00001D512A502E0490704D511A5012401E0E8
:1004C000AFF3008000210A2206F1240709E0B0FB07
:1004D000F2FCB0FBF2F302FB1C00303078541846FB
:1004E000491C0028F3D123462A463046BDE8F04196
:1004F00000F031B9000000002D0000002B000000CA
:10050000200000002DE9F0474FF0000A894604461C
:10051000C0F820A02046E1688847002876D025282A
:1005200006D0D4E901219047206A401C2062F1E7FF
:10053000E168204600268847C4F81CA0054600272D
:10054000C4F818A02A2D09D0284606F0A4FB38B319
:1005500004EB8708303DC8F8185019E059F8041B1F
:10056000204604EB87029161E1688847012F054628
:1005700018D1E069002820DA26F020061DE0D8F81E
:10058000180000EB800005EB40003038C8F8180078
:100590002046E1688847054606F07DFB0028EED13D
:1005A000012F0AD02E2D08D12046E16888477F1CF4
:1005B0000546022F46F02006C4DBA069002803DAB6
:1005C000404246F00106A061F00701D026F0100677
:1005D0006C2D0AD0682D08D04C2D39D06A2D35D01D
:1005E000742D35D07A2D33D016E0E1682F462046A1
:1005F0008847B84205460AD16C2F27D04FF4806057
:10060000E168064320468847054605E027E06C2F51
:100610001AD04FF4807006430DB3A5F1410019289C
:1006200002D8203546F400664A4629462046266010
:100630004E46FFF721FE80B101280BD0F61D26F0B3
:10064000070000F1080965E74020E4E78020D7E7CC
:100650000020D5E706F104095CE7284661E7206A37
:10066000BDE8F08770B5064600F066F804680546F8
:1006700030460A22002100F065FB2C6070BD10B5E9
:10068000203AC0F00B80B1E81850203AA0E818508A
:10069000B1E81850A0E81850BFF4F5AF5FEA027C4B
:1006A00024BFB1E81850A0E8185044BF18C918C0BA
:1006B000BDE810405FEA827C24BF51F8043B40F85B
:1006C000043B08BF7047D20728BF31F8023B48BF40
:1006D00011F8012B28BF20F8023B48BF00F8012B7E
:1006E00070474FF0000200B51346944696462039F5
:1006F00022BFA0E80C50A0E80C50B1F12001BFF4DB
:10070000F7AF090728BFA0E80C5048BF0CC05DF840
:1007100004EB890028BF40F8042B08BF704748BF8E
:1007200020F8022B11F0804F18BF00F8012B704702
:10073000704770477047000000487047C0B3002002
:1007400010B5FFF7F9FF006810BD10B50446FFF7BC
:10075000F3FF046010BD2DE9F0470D46994692461F
:10076000044600F124080168880604D5E06921F0F8
:100770001001216000E00120A84201DD471B00E0DC
:100780000027A1697A1902EB0900081AA0612078F4
:10079000C00602D42046AFF30080002608E0D4E96A
:1007A00001211AF806009047206A401C761C20623E
:1007B0004E45F4DB2078C0060AD52046AFF3008012
:1007C00006E0D4E9012130209047206A401C2062D5
:1007D000381EA7F10107F4DC07E0D4E9012118F87D
:1007E00005009047206A401C2062281EA5F10105E3
:1007F000F3DC2046AFF300802078000602D502200B
:10080000BDE8F0870120FBE770472DE9FF4F0C465C
:100810001E464FF0FF378BB0D2E90001DDF8608053
:100820000A908A46C1F30A5505B93D46002108469B
:100830004FF00000BAF1000F00F4400005DA00EBC1
:1008400080004FF4400101EA50004FEA9059B9F19D
:10085000010F00DDB9460A9850EA4A000ED044F66E
:100860001050A5F2FF3545432F14B8F1000F1ED0EC
:100870007542291E1EDDC9F100021CE0B8F1010F0E
:100880004FF0000001D0302103E0F24305E0215495
:10089000401CB042FBDB30460022002121540B9962
:1008A000C1F80880C1E900200FB0BDE8F08FBD1B82
:1008B0006D1CDEE74A4600DA694206A800F088FBB4
:1008C00006AB93E8070003AB83E8070050460A999C
:1008D00001F02EF98DE80700A0F500501F380090B8
:1008E0000398002D0ADD42F21F014A460844002306
:1008F00003A90390684601F0D9FB09E0A0F5005078
:100900004A461F38002303A90390684601F0F8FB0C
:100910008DE807000004000C03D04FF0FF304108C1
:1009200000E01046B8F1000F03D0002200921546F7
:100930001EE0751E05D400F04DFA303262556D1E72
:10094000F9D5B3460122084302D000227F1C04E0FF
:100950002078302801D100227F1E002A099784D0F8
:100960001DE0112D07DA00F035FA303262556D1CAA
:1009700050EA0102F5D1084302D00098C8B10EE058
:100980000021681E05E0235C625C63542254401E13
:10099000491C8142F7DBAB46A81B401E0990002092
:1009A00004F80B000B98099AC0F80880C0E9002BE6
:1009B0007AE711264FF0000857E72DE9F04F8846F7
:1009C0000446D21D22F0070191B0D1E90001CDE922
:1009D0000A0105F036FF02460B98C00F01D02D200A
:1009E00007E02068810701D52B2002E0202101EAE1
:1009F000C000032A099001D0072A05DB03464146BF
:100A0000204600F035FA0BE12078800601D5E06938
:100A100000E00620B8F1650F814606D0B8F1660FF8
:100A200018D0B8F1670F70D131E00020B9F1110F83
:100A3000009001DB112301E009F101030AAA01A9D9
:100A40000CA8FFF7E2FEDDE90C70002609F10105B4
:100A5000834647E001204B4600904FF000470AAA2A
:100A600001A90CA8FFF7D1FEDDE90DB00C995D4698
:100A7000002610B909F101000D18B9EB050003D4E7
:100A8000C0F1FF3609F10105A5EB09002BE0B9F132
:100A9000010F01DA4FF001090020B9F1110F0090A8
:100AA000484601DD112300E003460AAA01A90CA86B
:100AB000FFF7ABFEDDE90C704D460026834620783B
:100AC00000070AD4AB4500DA5D4601A8012D04DD1C
:100AD000411911F8011C302907D04F4502DA17F1EE
:100AE000040F04DA012082460FE06D1EEEE7002FAE
:100AF00002DCED1B3E4403E0781CA84200DD7D1CB7
:100B0000B81B00F1010A4FF000472078000703D41A
:100B1000AA4501DB4FF0FF3A0021B7F1004F0DF17C
:100B200043088DF8431024D002202B23002F01DA34
:100B30007F422D230A21021EA0F1010000DC5FB1DB
:100B400097FBF1FC97FBF1F201FB1C7C17460CF1C3
:100B5000300C08F801CDEEE7A8F101000370218800
:100B6000090501D5452100E06521A0F1010800F843
:100B7000011C09980FA9A1EB0807FF1D00B1012076
:100B8000411901EBEA70A1693844081A401EA061BE
:100B90002078C00602D42046AFF30080099828B11F
:100BA000D4E901219047206A401C20622078C006C9
:100BB00022D52046AFF300801EE0002E04DBB345B3
:100BC00002DD01A8805D00E03020D4E901219047DA
:100BD000206A401C2062761CAAF101005FEA000A2C
:100BE0000AD100F0F3F8C0680168405CD4E9012143
:100BF0009047206A401C2062281EA5F10105DCDC1C
:100C000007E0D4E9012118F8010B9047206A401C45
:100C10002062381EA7F10107F3DC2046AFF3008005
:100C2000032011B041E6000001694A1C0261087806
:100C3000704700B58FB0CDE901310021059105491C
:100C40007944CDE9031011466846FFF75BFC0FB00D
:100C500000BD0000E5FFFFFF0A6802F8010B0A6013
:100C60007047D1E900239A4202D2531C0B601070E6
:100C7000704710B5436913B1AFF3008001E0FFF78F
:100C8000DBFB012010BD127800F124010A70002264
:100C90004A700122EDE711684FF0FF32E9E70000EA
:100CA0000FB4002300B589B00CA900910B99CB605B
:100CB000214B7B440693214B7B44079304236FF025
:100CC0000042CDE901321E4A7A446B460892024640
:100CD000002007F073FF09B05DF814FB70B50646FD
:100CE0004FF0FF3015460C46324686B00091CDE9F4
:100CF000010169460020049004A8FFF7D1FF0246D5
:100D00000498211825B108B1084600E02046286063
:100D1000049800280DD0002A02DD0098884208D0EF
:100D20003246081B69460094CDE9010404A8FFF788
:100D3000B7FF06B070BD00003B0200005302000088
:100D4000930100002DE9F04791460F468046044686
:100D5000002614F8015B2DB100F030F80068405D0A
:100D6000C007F6D12B2D02D02D2D18D0641E4A4677
:100D70003946204600F0DCF827B13968A14201D19C
:100D8000C7F800804FF0020471050BD540420028DF
:100D900003DDFFF7D1FC0460A007BDE8F08746F44F
:100DA0008066E4E70028F8DAFFF7C6FC04606FF01D
:100DB0000040F2E700487047C0B3002010B500F0D3
:100DC00005F8001D10BD00BFC57600000048704743
:100DD000E0B3002030B5B0F10A024FEA900E71F195
:100DE00000034EEA817EB0EB0E0061EB91014FEA09
:100DF000101E4EEA017E10EB0E0041EB11114FEA7E
:100E0000102E4EEA016E10EB0E0041EB11214FEA5D
:100E1000104E4EEA014E10EB0E0041EB114140180E
:100E200041F100014FEAD00040EA41704FEAD101A0
:100E300010EB80054FEA810444EA907444EB01040E
:100E40006D1944EB0404521BA3414FF0000348BF4B
:100E50000A3200D530BD401C41F1000130BD10B553
:100E60000446FFF7ABFF0068005D00F0010010BD15
:100E70002DE9F0411F46044603260168072A01F4C4
:100E8000006004DB08B116A505E016A503E008B173
:100E900015A500E015A521F010002060A069C01E76
:100EA000A0610FB1401EA0612046AFF300804FB19A
:100EB000D4E9012138469047206A401C2062C01CBA
:100EC000206206E0206AFAE7D4E9012115F8010B57
:100ED0009047761EF8D22046AFF30080BDE8F0813F
:100EE0004E414E006E616E00494E4600696E6600CE
:100EF000426842B1016811F8013B23B1521EC0E9BA
:100F00000012184670470121C160881E7047426870
:100F10005AB1C368016843B983688B4205D0491E42
:100F2000521CC0E90012002070474FF0FF3070479C
:100F30002DE9F05F824615468B4600270AF1010431
:100F4000B9460078302801D09DB113E014F8010BA8
:100F50000127782803D0582801D045B10AE00DB107
:100F6000102D07D1002714F8010B102502E00825E9
:100F700000E00A250026B0460EE005FB080005FB50
:100F800006F101271FFA80F801EB1046B6F5803F05
:100F900000D3B94614F8010B294600F0B0F8002838
:100FA000EBDABBF1000F05D00FB1641E00E0544630
:100FB000CBF80040B9F1000F06D0FFF7BDFB0221CE
:100FC0000160C81EBDE8F09F48EA0640FAE700004D
:100FD0002DE9F047814616468AB0354878440DC859
:100FE0008DE80D0032487844801C03AC0DC884E8BD
:100FF0000D0041F69B300844372190FBF1F290FB45
:10100000F1F5A5F1800501FB12041B3C02D56442F9
:10101000012000E00020DFF898A080460027FA4475
:10102000AAF1BE0A0EE0E0070AD03246684607EB96
:10103000470101230AEB810101F062F88DE8070006
:1010400064107F1C002CEED1194F7F44AE3F19E095
:10105000E80715D007EB04100DF1180A90E80E0010
:101060008AE80E00C068F04201D198190890324613
:10107000012306A903A801F043F803AB83E80700A6
:101080006D10641C002DE3D14FF001033246694618
:10109000B8F1000F03A802D001F008F801E001F058
:1010A0002FF8C9E90001C9F808200AB0BDE8F087A7
:1010B000D48400007546FFF77DFEAE460500694604
:1010C000534620F00700854618B020B5FFF710F909
:1010D000BDE820404FF000064FF000074FF0000839
:1010E0004FF0000B21F00701AC46ACE8C009ACE8BA
:1010F000C009ACE8C009ACE8C0098D4670473A2881
:1011000000D2303820F02002412A01D3A2F137006A
:10111000884201D34FF0FF30704700002DE9FF4FA8
:1011200006468BB00878FF2806D0491C2D2805D02C
:1011300000244FF0000908E000200CE00124F8E74B
:1011400009EB8903491C00EB43090878FF28F7D114
:1011500014B1C9F100008146107800252C46AA463A
:1011600029462D2801D02B2804D1521C2D2813D01C
:10117000002082468B461078FF280FD04FF0000CDD
:101180000A21521CA5FB017804FB018105FB0C110F
:10119000C5194BEB0104EEE70120EAE70021084600
:1011A0004FF00000BAF1000F02D000EB80004008C1
:1011B000C0F38157012F01DD4FF0FF370E9955EA3B
:1011C000040009EB01080BD04FF0020918F5FA7F73
:1011D00016DA4FEACA70002F706008DD012007E0C0
:1011E0004FEACA70C6E900B00FB0BDE8F08F00202A
:1011F0003060FFF7A1FAC0F800901821084616E009
:10120000B8F5FA7F18DD002F02DAF748784401E0DC
:10121000F6487844D0E90010C6E9001040EACA70E8
:101220007060FFF789FAC0F80090142108460FB0EB
:10123000BDE8F04F07F05DBC002108464FF000000C
:10124000B8F10001099002DAC7F1000200E03A4665
:1012500001DAC8F1000106A8FFF7BAFE06AB93E871
:10126000070003AB83E8070044F23E005BEA040199
:101270000090584604D144F21E012C465D46009170
:10128000210C0904014306D10099240444EA1544C1
:101290002D041039009104F07F41014306D10099DB
:1012A000240244EA15642D020839009104F07041CB
:1012B000014306D10099240144EA15742D01091F48
:1012C000009104F04041014306D10099A40044EA92
:1012D0009574AD00891E009104F00041084304D1CB
:1012E00000986D196441401E00904FF001033A468A
:1012F0006846B8F1000FCDE9014503A902DD00F011
:1013000014FF01E000F0E7FEBAF1000F04460D46BD
:1013100001D084F00044002108464FF000000999F4
:1013200040F2FF77484010F00C0F07D124F0004046
:10133000284303D0C4F30A50B84212D1FFF7FCF996
:10134000C0F80090C4F30A50B8420AD1A8487844C3
:10135000D0E90010C6E9001004F0004108437060B5
:1013600042E7C6E900543FE72DE9FF4F1F464FF023
:10137000000A4FF0FF38454691B0D7E90146CDF855
:101380003CA0FFF723FDC0680168405C1090B9697C
:1013900012986D1C8847396A814688470028F6D123
:1013A000B9F1FF3F0AD0002E24F4D06411DDB9F169
:1013B0002B0F08D0B9F12D0F0BD102E0404615B02C
:1013C00013E744F48064B96912986D1C8847761E4F
:1013D0008146600504A901D52D2000E02B20002EB8
:1013E00001F1010B0DF130088DF810003FDDB9F16E
:1013F000690F08D0B9F1490F05D0B9F16E0F02D0CD
:10140000B9F14E0F1CD13B4601A8009580E850026F
:10141000DDE912126FF0020007F0D4FBC11CCED13F
:101420000EE0B96912986D1C884781461398761EA4
:1014300044F4007405600F98401C002E0F9016DDD8
:10144000B9F1300FEDD0B9F1780F02D0B9F1580FE2
:101450000DD10F9801280AD13B46CDE90054DDE9B2
:101460001212001F029607F0ABFBC11CA7D1109906
:1014700089453ED144F0800406E01399681CAAF126
:10148000010A44F400740860B9696D1C1298761E54
:10149000884730288146F0D02BE01099894505D146
:1014A000200603D4761E44F0800418E0484605F078
:1014B000F2FB08B3761E0DF123018B4544F4007452
:1014C00008D2A9F130000BF8010B200607D5AAF1CC
:1014D000010003E0200602D40AF101008246A005C3
:1014E00002D51399681C0860B96912986D1C884769
:1014F0008146002ED1DC53E0002E51DDB9F1650F9D
:1015000002D0B9F1450F4BD1A00549D5B9696D1C81
:101510001298761E24F440748847002E81460CDD14
:101520002B2804D0B9F12D0F07D144F48074B96988
:1015300012986D1C8847761E8146E00501D52D2145
:1015400000E02B2108F8011BCDF8008021E0761E79
:101550000DF13901884544F400740CD2A9F1300032
:1015600010F0FF0088F8000002D10099884509D9E1
:1015700008F1010806E0E00501D51E4801E042F24D
:101580000F708246B96912986D1C8847814613987E
:101590000560002E04DD484605F07DFB0028D6D10D
:1015A000F96912988847FF2053468BF8000088F8A5
:1015B000000000200A900B9004AA0CA90AA8FFF7CB
:1015C000ADFDA00502D46FF00100F8E614F0240F81
:1015D00012D0E0071CD13868DDE90A12031D3B6018
:1015E0000068C0E9001213E0548300004683000045
:1015F0000A820000F1D8FFFF0AA9684605F038FB0F
:10160000E00705D13868009A011D39600068026062
:101610002846D4E610B50446AFF300802046BDE866
:101620001040FEF751BE00004FF0013C50F8042B73
:1016300051F8043B9A4221D1A2EB0C03934313EAE5
:10164000CC1317D150F8042B51F8043B9A4215D112
:10165000A2EB0C03934313EACC130BD150F8042BE9
:1016600051F8043B9A4209D1A2EB0C03934313EACD
:10167000CC13DBD04FF00000704700BFD01A01BA86
:10168000B1FA81F101F0180122FA01F0CB40C1F169
:101690002001DBB2C0B2C01A2CFA01F3D11A914377
:1016A00011EAC311E6D1704701491820ABBEFEE72D
:1016B000260002002DE9FF4F1F464FF03C0987B07E
:1016C0004FF00042DDE9141001F10108DDF858A0E7
:1016D00002EA4050039000200590834605460446E8
:1016E0000490B969461E08988847AAF1010A029039
:1016F000BAF1000F3BDD02982E2815D01021FFF71C
:10170000FEFC00282EDB4FF0010B0599014317D09A
:10171000B9F1000F0BDB4A46C11700F0F6F905439B
:101720000C43A9F1040905E0012004900BE008B185
:1017300045F0010501200590049820B9361D02E00E
:10174000049800B1361FB969089808F10108884764
:10175000BBF1000FAAF1010A0290C9D00999C1F8A2
:101760000080C5E70298702808D0502806D0F96993
:1017700008988847BBF1000F14D04FE0002002907A
:101780000120BBF1000F049009D0B969089808F155
:1017900001088847AAF10109B9F1000F07DCF969CE
:1017A000089888476FF001000BB0BDE8F08F2B2838
:1017B00004D02D280CD14FF0FF300490B96908985F
:1017C00008F101088847A9F10109B9F1000FE6DD28
:1017D000411CE4D00A21FFF792FC0028DFDB0299CC
:1017E00008F1010801EB810100EB41000290B969A9
:1017F000089888470A21FFF782FC099AA9F1010994
:10180000B9F1000FC2F8008001DD0028E7DAF969BC
:10181000089888470499029800FB016655EA04007D
:1018200004D004F04041090002D006E0039898E09B
:10183000A40044EA9574AD00B61E04F0004108000F
:1018400002D16D196441761E159810F0240F03D053
:101850004FF00B095C4803E04FF028096FF07D0062
:101860008246564507DAAAEB06018944B9F1410FD1
:1018700001DD4FF0410901200021A9F1010200F032
:1018800044F9024628400B462140084301D001217B
:1018900000E00021501E029143F1FF312840214019
:1018A000084301D0012000E000200299834651EA5C
:1018B0000B014FD0002108464FF00000039900F4BF
:1018C000400039B100EB80004FF4400100EBD070D4
:1018D00001EA60008015012802DD4FF0FF3000E0D2
:1018E00013D0401C36D0029860B3BBF1000F0CD16E
:1018F0004A460120002100F008F928402140084311
:1019000001D0012000E00020E0B101204A46002182
:1019100000F0FBF8034640190A4661412D1A8C413C
:1019200011D3B9F1400F09DD159810F0240F02D042
:10193000AAF1340603E0AAF1170600E0761C0025A0
:101940004FF0004406E05B1E42F1FF3220EA03053F
:1019500021EA0204CAF10100B04206DA1B490398E9
:1019600008430190002000900EE0039AC4F3D321B5
:10197000E80A0A43164940EA44500A433146CDE991
:101980000002684605F07DF9159810F0240F0BD081
:101990001598C00715D13868DDE90012031D3B60BA
:1019A0000068C0E900120CE002A8694605F060F981
:1019B0001598C00705D13868029A011D3960006882
:1019C00002604046F0E6000002FCFFFF0000F07FEE
:1019D0000000F03F2DE9FF4F92461D4685B04FF0C5
:1019E0000041DDE9124BDDE914727F1E01EA4B5024
:1019F000414940F0FF4940EA0108002122F020005F
:101A00004928049102D04E2828D04CE03BA0012662
:101A100007C88DE80700A9690698641C88477F1EDF
:101A2000014606D41DF8060018B121F020018142BC
:101A30000BD0E96906988847032E34D0082E32D09F
:101A40006FF0010009B0BDE8F08F761C032E01D0C5
:101A5000082EE0D1601CCAF80000DCE7A9690698EE
:101A6000641C88477F1E2AD420F02000412826D1FC
:101A7000A9690698641C88477F1E20D420F02000A6
:101A80004E281CD1A9690698641C88477F1E48F41B
:101A9000002849F48009CAF8004001D4282806D05B
:101AA000E969069888475FEACB7012D022E0A969FD
:101AB0000698641C88477F1E01D4002803DAE96970
:101AC00006988847BCE72928F1D1641CCAF8004071
:101AD000E9E71BF0240F07D028680499031D2B6049
:101AE0000068C0E9001805E02868021D2A60006847
:101AF000C0F800902046A5E70000F07F494E464917
:101B00004E495459000000007047B2F120030AD535
:101B1000C2F1200301FA02F120FA03F300FA02F005
:101B200041EA0301704700FA03F14FF000007047EB
:101B30005FEA400C08BF91F0000F4FEA8C234FEA98
:101B4000C12243EA51514FEA1C5018BF00F5F04042
:101B50004FEA300018BF41F000415FEA6C5C00F0D2
:101B60002980BCF1FF3F08BF40F080407047130C54
:101B700006BF12044FF0100C4FF0000C130E04BF00
:101B800012020CF1080C130F04BF12010CF1040C2B
:101B9000930F04BF92000CF1020CD30F04BF52004C
:101BA0000CF1010C11464FF00002A0F11F00A0EB58
:101BB0000C00704711F0004F08BF704731F0004132
:101BC0003FF4D5AF0B0C06BF09044FF0100C4FF0DB
:101BD000000C0B0E04BF09020CF1080C0B0F04BF24
:101BE00009010CF1040C8B0F04BF89000CF1020CED
:101BF000CB0F04BF49000CF1010CCCF12003A0EB8A
:101C00000C0022FA03F302FA0CF241EA030100F19C
:101C10000100704720F07F4C80EA030023F07F47EB
:101C2000ACEB070303F57C5300F0004003F1FF0326
:101C30002DE980494FEA154B09B44FEA144325EAD0
:101C40000B4E24EA03480FF2042606EB132749083B
:101C50003E785FEA320203FB0667C7F5000707FB21
:101C600006F64FEA54374FEAD64606F1020607FB5E
:101C7000066CCCF1005C4FEA1C472CEA074C07FBD2
:101C800006F40CFB06F504EB15464FEA961634BF36
:101C900000204FF000404FEAD13706FB07FC4FEA27
:101CA0001C4C0CFB0BF7D21B03FB0CF761EB070181
:101CB0000CFB0EF7B0EB074072EB17420CFB08F77A
:101CC00034BFA2EB0742B2EB074261EB17414FEA88
:101CD0000C444FEA910706FB07FC4FEA1C4C0CFB37
:101CE0000BF7B0EBC74072EB573203FB0CF734BF76
:101CF000A2EBC742B2EBC74261EB57310CFB0EF7C8
:101D0000B0EBC70072EB57720CFB08F734BFA2EBC5
:101D1000C702B2EBC70261EB5771039F4FEA8161C3
:101D200041EA921104EBCC044FEAD1374FEA8262C8
:101D300006FB07FC42EA90124FEA80604FEA1C4C17
:101D40000CFB0BF7D21B03FB0CF761EB07010CFB41
:101D50000EF7B0EB074072EB17420CFB08F734BFED
:101D6000A2EB0742B2EB074261EB17414FEA8C55F9
:101D70004FEA910704EB9C2406FB07FC4FEA1C4C3E
:101D80000CFB0BF7B0EBC74072EB573203FB0CF7C1
:101D900034BFA2EBC742B2EBC74261EB57310CFB39
:101DA0000EF7B0EBC70072EB57720CFB08F734BFAD
:101DB000A2EBC702B2EBC70261EB577115EB4C25E2
:101DC0004FEA816141EA92114FEA82624FEAD137CC
:101DD00042EA901206FB07FC44F100044FEA8060DF
:101DE0004FEA1C4C0CFB0BF7D21B03FB0CF761EB0F
:101DF00007010CFB0EF7B0EB074072EB17420CFB30
:101E000008F734BFA2EB0742B2EB074261EB174180
:101E100015EB1C154FEA813141EA92414FEA8232BB
:101E200042EA90424FEA80304FEA0C7644F10004D7
:101E300048EA03434EEA0B484FF0000EB2EB080CA1
:101E400071EB030724BF624639464EEB0E0E4FF08E
:101E5000000B0018524149414BEB0B0BB2EB080C45
:101E600071EB03077BF1000B24BF624639464EEB52
:101E70000E0E4FF0000B0018524149414BEB0B0B7B
:101E8000B2EB080C71EB03077BF1000B24BF624639
:101E900039464EEB0E0E51EA020718BF46F0010616
:101EA00016EB0E7655F1000254F1000103D5BDE8A2
:101EB0008901BDE80088BDE88901BDE80048B61980
:101EC000524141EB0101A3F10103704780807F7E05
:101ED0007D7C7B7A797877767675747372717170A0
:101EE0006F6E6E6D6C6C6B6A6A6968686766666552
:101EF0006464636362616160605F5F5E5E5D5D5CE0
:101F00005C5B5B5A5A595958585757565655555550
:101F10005454535352525251515050504F4F4F4EB0
:101F20004E4D4D4D4C4C4C4B4B4B4A4A4A494949FE
:101F30004848484747474746464645454544444440
:101F400044434343434242424241414146EA0646FA
:101F5000A3F570534FEA164646EA42564FEAD2229C
:101F600042EA415210B54FEAD121A3F1010300F03A
:101F70002FF820F0004000F1020C00F0004701EBC8
:101F800000501146BCF5006F40EA070000D210BDBA
:101F9000BAF1000F0AD01CB503B44FF004004FF0A3
:101FA00004014FF000000FBCBDE810404FF00001ED
:101FB000BBF1010FB9BF04484FF0FF3103480021C6
:101FC00040EA070010BD00BFFFFFEF7F0000F07F79
:101FD000002B9C4630D477002BD01CB54FEA370736
:101FE00003B44FF010004FF01001BAF1000F06D00B
:101FF000BCF1000FDCBF40F0080040F008014FF0DA
:1020000000000FBCBDE810400BF1010BBBF1010F4C
:1020100008BF5FEA170722BF12F1010211F10101A7
:102020004FF0004143F1000300F0004043EA00009C
:102030007047F9D35708D0E746EA064613F1400F38
:102040004FEA16461FDD13F1200FDFBF16430A4685
:10205000002120335B42BED0C3F1200746EA06468A
:1020600002FA07F74FEA164646EA0706C3F12007C9
:1020700022FA03F201FA07F721FA03F14FF0000305
:1020800042EA0702A7E746EA020646EA06464FEAA0
:10209000164646EA0106BCBF46EA0646360C4FF035
:1020A00000034FF000024FF0000194E72DE9804C4F
:1020B0009A46934670B491E8380007C831EA400C5C
:1020C00048BF34EA430C03D5FFF7A4FDFFF780FFB8
:1020D000F0BCBDE8008C2DE9804C9A46934670B464
:1020E00091E8380007C831EA400C48BF34EA430C95
:1020F00003D5FFF78FFDFFF729FFF0BCBDE8008C8B
:102100002DE9804C9A46934670B491E8380007C890
:1021100010F0804F08BF13F0804F03D100F01AF881
:10212000FFF756FFF0BCBDE8008C2DE9804C9A46C5
:10213000934670B491E8380007C810F0804F08BF8C
:1021400013F0804F03D100F005F8FFF7FFFEF0BC5D
:10215000BDE8008C20F07F4780EA030023F07F4C2D
:1021600007EB0C03A3F57C5300F00040A3F1FE0342
:1021700092F0000F00F0B38095F0000F00F0778030
:102180002DE901494FEA11404FEA144621EA00487F
:1021900000FB06FC24EA064708FB06F607FB08F8E6
:1021A00000FB07F718EB06484CEB164C4FEA124BB6
:1021B00018EB07484FEA15464CEB174022EA0B4E46
:1021C0000BFB06FC25EA06470EFB06F607FB0EFE98
:1021D0000BFB07F71EEB064E4CEB164C4FF00006C0
:1021E0001EEB074E4CEB174B18EB0B0840F10000B1
:1021F00018EB0E0B58EB000840F100008F1A4FF05F
:1022000000013CBFC943661B14BFB5EB040C0021A1
:102210003CBFC943F61B4FEA17444EEA8E0E27EA2D
:1022200004454FEA1C4704FB07622CEA074C05FBF8
:1022300007F70CFB05F604FB0CFC16EB074642EB1C
:10224000174216EB0C4642EB1C421BEB060658EB02
:102250000202414146EA9E0601D5BDE80189B61950
:10226000524141EB0101A3F10103BDE801894FEAAD
:1022700014454FEA114724EA054621EA074C05FBBD
:1022800007F406FB07F70CFB06F105FB0CFC11EB52
:10229000074144EB17444FEA124711EB0C4144EB62
:1022A0001C4422EA074C05FB07F206FB07F70CFB70
:1022B00006F605FB0CFC16EB074642EB174216EB45
:1022C0000C4642EB1C456A1854F1000148BF7047A8
:1022D000B619524141EB0101A3F10103704795F09A
:1022E000000F37D04FEA11424FEA144721EA024665
:1022F00024EA074C02FB07F106FB07F70CFB06F488
:1023000002FB0CFC14EB074441EB17414FEA154765
:1023100014EB0C4441EB1C4125EA074C02FB07F58A
:1023200006FB07F70CFB06F602FB0CFC16EB074658
:1023300045EB174516EB0C4645EB1C42121951F1C3
:10234000000148BF7047B619524141EB0101A3F1AA
:10235000010370474FEA14454FEA114724EA054646
:1023600021EA074C05FB07F106FB07F70CFB06F219
:102370004FF0000605FB0CFC12EB074241EB174146
:1023800012EB0C4251EB1C4148BF7047921841EBD5
:102390000101A3F101037047464910B54A6822F4D0
:1023A00040324A604A6843681A434A6001684A6892
:1023B00022F480724A6001684A68036942EA032293
:1023C0004A6001684A6822F040724A6001684A68BF
:1023D00083681A434A6001688A6822F400628A604E
:1023E00001688A68C3681A438A60816A6FF0706204
:1023F000D14201688A6822F070628A6001688A6846
:102400000CD0836A1A438A6001688A6822F04052BD
:102410008A6001688A68C36A1A4301E022F0405268
:102420008A6001688A6822F002028A6001688A680C
:10243000037E42EA43028A6090F820100029016876
:102440004A680FD042F400624A6001684A6822F488
:1024500060424A6001684A68174C436A04EB4333A0
:102460001A4301E022F400624A600168CA6A22F459
:102470007002CA620168CA6A838B104C04EB035372
:102480001A43CA6201688A6822F400728A6001688D
:102490008A6890F8303042EA43228A6001688A688C
:1024A00022F480628A6001688A68406942EA80207A
:1024B000886010BD0023014000E0FFFF0000F0FF36
:1024C0002DE9F047044680682349401CA0600020A5
:1024D00020732048214E0068B0FBF1F0316800EB1A
:1024E00080076FF012000860DFF87480D8F80010E1
:1024F0000860DFF87090D9F80010086000F0CEF99D
:10250000194D8246A86840F08040A86004E050461B
:1025100000F084F9B8421AD230680068C0438007DE
:10252000F5D4D8F800000068C0438007EFD4D9F88C
:1025300000000068C0438007E9D4E86C2080D5F82B
:102540004C016080D5F84C02A08001202073BDE8CA
:10255000F08700007C02002040420F00A40300200E
:10256000EC030020340400200020014010B5084C8A
:10257000217859B124220749FEF781F80020207004
:102580000221054800F06EFE012010BD002010BDA4
:1025900092020020FC0600207C04002010B58AB0C6
:1025A000044628216846FEF79CF800210120CDE969
:1025B000061062010591CDE900214FF6E072CDE9E8
:1025C0000221049108900E2009906946024800F00B
:1025D000B9FE0AB010BD00007C04002030B50346EF
:1025E0000020EFF3108272B60C490C782CB1888869
:1025F000C88000200870401E0DE0CC888D88AC4259
:1026000009D00748CC88005D1870C888401C00F0CD
:102610003F00C880012082F3108830BD880200206E
:102620003C06002010B501220449054802F0B0FE26
:1026300008B1002010BD012010BD00008A0200205A
:10264000E405002070B50022002810D0EFF30581CA
:1026500069B9134C617851B903E0521C92B2802AD7
:1026600003D2815C0029F8D103E0815C09B100202C
:1026700070BD92B10121617000210A4B03E0455CFD
:102680005D54491C89B29142F9D30649064802F0CB
:10269000AFFE10B100206070E9E7012070BD0000BE
:1026A000880200207C060020E405002038B5EFF306
:1026B000108472B610490A7812B948700120087067
:1026C00000F026F80D480021026842F00102026085
:1026D000006800F0010000900948426C22F40042BA
:1026E00042640162C160016821F001010160BFF331
:1026F0004F8F84F3108838BD900200204438024088
:10270000000001400148007870470000900200205E
:10271000F0B587B014216846FDF7E3FF224C002591
:10272000206840F0010020602068204F00F0010088
:102730000590012248F21001384601F031FB0022D9
:102740004FF47061384601F02BFBE0140126CDE90F
:1027500000060220CDE902056946384601F032FA4A
:1027600048F210700090CDE901656946384603953E
:1027700001F028FA206840F00800206020680C4C26
:1027800000F00800059001220421204601F008FB1A
:1027900004200090CDE9016569462046039501F0CB
:1027A00011FA07B0F0BD00003038024000000240CE
:1027B000000C024010B5144C2068B0F1804F1ED1BF
:1027C000124813490068884219D101F06DFC114983
:1027D000884214D110480068C00110D40E488438D3
:1027E0000068C0F38220052809D16068592806D105
:1027F000A06820B9E068401C01D1206908B1002020
:1028000010BD012010BD00009C0500207C020020AE
:102810000095BA0A40A5AE028C38024001494968C9
:10282000081A7047001000E04FF08041496A081A0A
:102830007047000010B5154C207808BBFFF7BAFFB1
:1028400000281ED01248016841F0807101601149D2
:10285000002048600A6842F001020A60096811F02D
:10286000010F0DD060600C490A6850620968801E33
:1028700008611C2001F0FAFA074802F0E1F808B1FB
:10288000002010BD0120207010BD0000800200203B
:10289000FCED00E0001000E09C05002001484068CD
:1028A00070470000001000E04FF08040406A704721
:1028B000FEE70000014800F058BE00007C04002044
:1028C0002DE9F041224E0122DFF8888086B00024F5
:1028D000D70234703946404601F062FA012001F017
:1028E000B5F80120CDE90140CDE9034000220346BF
:1028F00011461046009405F053FD05001BD103203E
:1029000001940294CDE903400346002201211046C0
:10291000009405F028FD05000DD10F200090032341
:1029200001220221002005F058FD050003D104F02A
:10293000FFF9050006D000223946404601F030FA82
:10294000002000E00120307006B02846BDE8F0818C
:10295000A80200200000024033B50C4D0C4681B0A7
:1029600000221021284601F01BFA022000900123CA
:10297000224601A9064801F083FE044601221021E7
:10298000284601F00DFA20463EBD0000000002403E
:10299000A4040020704772B60120FFF787FEFEE70F
:1029A000002229B101291AD002291BD04FF440720C
:1029B0000E490B6823F440730B600B6813430B60E4
:1029C0000A6822F0F8020A600A68022303EBC000DA
:1029D00002430A60086840F48030086070474FF492
:1029E0008072E5E74FF40072E2E70000103C02401D
:1029F0001348016889050FD5016821F40071016051
:102A0000016841F400610160016821F40061016026
:102A1000016841F400710160016849050FD5016842
:102A200021F480610160016841F480510160016816
:102A300021F480510160016841F4806101607047B8
:102A4000003C024008490A6822F440720A600A68A1
:102A500042F004020A600A684FF4803343EA00201F
:102A600002430A6070470000103C0240064A1368A7
:102A700023F44073136013681360136843F0010379
:102A80001360017070470000103C0240094910B506
:102A90000C6824F440740C600C6844F440740C60BE
:102AA0000C6844F001040C600260BFF36F8F436058
:102AB00010BD0000103C0240074A136823F4407325
:102AC0001360136843F480731360136843F00103C9
:102AD0001360018070470000103C0240074A1368F1
:102AE00023F440731360136843F400731360136896
:102AF00043F001031360016070470000103C024086
:102B00001C490868C2061C4805D5C26942F010027B
:102B1000C26110220A600A68920605D5C26942F0B5
:102B20000802C26120220A600A68520605D5C269FD
:102B300042F00402C26140220A600A68120605D50A
:102B4000C26942F00202C26180220A600A68D205AC
:102B500006D5C26942F00102C2614FF480720A6078
:102B60000A68920705D5C26942F02002C2610220BC
:102B7000086070470C3C02405002002070B51149BB
:102B800004460020C86101F011F906460E4D09E027
:102B9000601C07D024B101F009F9801BA04201D9C3
:102BA000032070BD2868C003F2D42868C00701D094
:102BB00001202860286810F4F970F2D0FFF7A0FF18
:102BC000012070BD500200200C3C024070B50C8802
:102BD00004804B8843808D8885808E688660097B61
:102BE000017321B390ED070ADFED220A9FED221A4F
:102BF00060EE200A00EE105AB8EE400A20EE010AFC
:102C00009FED1E1A40EE010A9FED1D0AC0ED070A56
:102C1000D16971B1016F591A00EE901AF8EEE00A0D
:102C200060EE800AC0ED050AC16E611A0DE0002059
:102C300070BDC16E611A00EE901AF8EEE00A60EE07
:102C4000800AC0ED050A016F591A00EE901AF8EEDD
:102C5000E00A20EE800A80ED060A90ED050AD0ED2C
:102C6000060AB1EE400A30EE600A80ED040A012047
:102C700070BD00003333733FCDCC4C3D3333533CF8
:102C80000000A53C2DE9F04190462DED0A8B8AB05D
:102C90001E460D4604461A461A9FFFF797FF002866
:102CA0007CD095F828000028FAD005F110024146A2
:102CB000204605F087FA04F1100095ED060A04F1AC
:102CC0002401D0EC030A103004F0E4FA94ED0A0A6F
:102CD000DFED710AD4ED091A20EE201A9FED6F0A7C
:102CE00001EE801A84ED0A1A94ED0B1A61EE200AA7
:102CF00094ED081A41EE000AC4ED0B0AD4ED230A44
:102D000094ED070A9FED661A50EE010A94ED240A2D
:102D10009FED641A00EE810A84ED240ADFED620A59
:102D200003F07AFED6ED060AF1EE600A03F050FEDB
:102D300084ED240A84ED1D0A04F1780196ED030A5E
:102D4000081F04F0E9FB94ED1D0AD4ED080AD4ED48
:102D500014BA94ED15BA30EE60AA94ED1E0AD4EDC3
:102D6000090A94ED1ACA94ED078A70EE609A94ED00
:102D7000160A6BEE800A94ED190A00EE8A0AD4ED69
:102D8000170A6BEE200A00EEA9CADFED48AA68EE2A
:102D90002A8AF0EE680A03F03FFE00E079E0DFEDFA
:102DA000440A28EE209AF0EE490A03F011FE84ED61
:102DB000190AB0EE408AF0EE680AB0EE4C0A03F051
:102DC0002BFEF0EE490A03F003FE0BEE8A8AF0EECA
:102DD000400A84ED1A0A4BEE290A84ED0C8A28EE8B
:102DE000080AC4ED0D0A00EEA00A03F0F9FE84ED16
:102DF000230A94ED070A04F13401081F20EE2A0A81
:102E000004F08AFBD4ED0C0A94ED070A08A880EEC2
:102E1000801A8DED081AD4ED0D0A80EE801A8DED22
:102E2000001A04F0A1FB684604F09EFB94ED070A2B
:102E3000DDED080A04F14C02111F60EE200A081FA4
:102E4000C4ED0C0A9DED001A20EE011A84ED0D1A56
:102E500095ED060A03F026FF04F14400021FD0ECB2
:102E6000030A111F94ED070A0C3805F049F994ED97
:102E70000E0A012087ED000A94ED0F0A87ED010A82
:102E800094ED100A87ED020A0AB0BDEC0A8BBDE88A
:102E9000F0810020F8E700003333733FCDCC4C3D88
:102EA0003333133F6F12833A000000003333933FF4
:102EB000333393BFDFED020A30EEC00A00F002B8F0
:102EC000DB0FC93FDFED100A02E000BF30EE200A41
:102ED000B5EEC00AF1EE10FAF8D30C4910EE100A64
:102EE000884202DB30EE600AF8E7DFED090A0949A3
:102EF00020EE200ABDEEC00A10EE100A01EB8000A1
:102F000090ED000A70470000DB0FC940DB0FC9409D
:102F100083F9A242388C000800F0F6BD10B586B0E7
:102F200014216846FDF7DDFB00F036FE002813D1C2
:102F30000A49F3200860002000900620029001203A
:102F400003900220049005A9684600F091FD04005A
:102F500001D000F0D9FD204606B010BD0C3C024067
:102F6000074A084B02449A4201D2820701D001204D
:102F700070470A4600230146022000F0CFBD000042
:102F80000000FCF7FDFF010010B590F83C20012A7D
:102F90001FD0012200F83C2F0F4A536823F01F0373
:102FA000536053680C6823435360536823F44043D1
:102FB000536053684C6823435360536823F4706331
:102FC0005360536889680B435360002101700846C1
:102FD00010BD022010BD00000023014078B5002480
:102FE000009490F83C20012A19D0012280F83C205E
:102FF0000A6807230568092A13D9EE680A3A02EB22
:10300000420293409E43EE600B788A680A3B03EBD2
:1030100043039A400368DD682A43DA6010E0022027
:1030200078BD2E6902EB420293409E432E610B78DD
:103030008A6803EB43039A4003681D692A431A61B7
:103040004A681F23072A13D205686E6B521E02EBD3
:10305000820293409E436E630A8893B20A79521E9D
:1030600002EB820293400268556B2B43536327E0C7
:1030700005680D2A12D22E6BD21F02EB82029340FA
:103080009E432E630B790A88DB1F92B203EB830306
:103090009A4003681D6B2A431A6311E0EE6A0D3AE9
:1030A00002EB820293409E43EE620B790A880D3B4D
:1030B00092B203EB83039A400368DD6A2A43DA6223
:1030C0001B4B0568194A9D420AD10D68122D07D184
:1030D000556825F400055560556845F48005556030
:1030E00005689D421DD1134D0B68AB4201D0112BD9
:1030F00017D1536823F480035360536843F40003EB
:1031000053600968A9420CD10B490C4A0968B1FB0C
:10311000F2F101EB8101490000E0491E0091002914
:10312000FBD180F83C40002078BD00000023014026
:1031300000200140120000107C02002040420F00DD
:1031400070B504004FF0000503D0206C002610B1CC
:1031500007E0012070BD204600F01CF8666484F88A
:103160003C60206CC00610D4206C20F4885040F0E5
:10317000020020642046FFF70FF96664206C20F0FF
:10318000020040F00100206400E0012584F83C606A
:10319000284670BDF0B587B0044614216846FDF797
:1031A000A0FA2B4A294F266800232949143A012501
:1031B00003242848BE4212D10E6846F480760E6081
:1031C000096801F480710591116841F004011160F2
:1031D0001168009501F004010591694632E01E4F27
:1031E000BE4219D10D6845F400750D60096801F4FF
:1031F00000710591116841F004011160116802939A
:1032000001F0040105910221CDE900144FEA0D01FE
:1032100000F0D8FC07B0F0BD10488642FAD108682B
:1032200040F480600860086800F4806005901068D1
:1032300040F0010010601068009500F0010005905A
:1032400007486946CDE90143E2E70000002001405C
:1032500044380240000802400021014000220140A1
:103260000000024090F82020012A07D0022A05D051
:10327000416A41F48021416201207047006842693F
:103280000A43426100207047F0B590F8205004686E
:10329000A468012D05D0022D03D0416A41F480219C
:1032A0004DE014F0406F01D1E50045D5C4F3016451
:1032B0000125A5401D608D684FF4C0739DB1CE6897
:1032C00035434E6845EAC605066803EB0417F55119
:1032D0004FF4C275076805EB04150E697E51097D30
:1032E000012905D009E00E88CD6845EA4655EBE78F
:1032F00001684E5946F480764E511179D2F8055046
:103300004FF4C67641EA0521056806EB0416A9517B
:103310001178D2F801204FF4C47541EA0221026805
:1033200005EB04155151006803EB0411425842F0BB
:10333000010242500020F0BD416A41F40011416297
:103340000120F0BD10B590F82020012A07D0022AF4
:1033500005D0416A41F480214162012010BD3B4803
:10336000D0F8002242F00102C0F80022D0F800227A
:1033700022F47C52C0F80022D0F800224B6A42EAC4
:103380000322C0F800220A7D02F01F0301229A40A6
:10339000D0F81C329343C0F81C32CB69B3B9D0F8D3
:1033A0000C329343C0F80C328C894B6864F31F4392
:1033B0004C6900EBC404C4F840320C890B6864F318
:1033C0001F434C6900EBC404C4F84432CB69012BA1
:1033D00016D1D0F80C321343C0F80C320C884B686D
:1033E00064F31F434C6900EBC404C4F840320C89F9
:1033F000CB6864F31F434C6900EBC404C4F8443247
:103400008B69002BD0F804320ED01343C0F804327D
:103410000B69002BD0F8143208D01343C0F81432D3
:10342000096A012904D008E09343EFE79343F5E7E5
:10343000D0F81C121143C0F81C12D0F8001221F071
:103440000101C0F80012002010BD0000006400401F
:1034500090F82020012A07D0022A05D0416A41F4C1
:103460008021416201207047006842698A434261BD
:1034700000207047704770B590F82040012C05D0AF
:10348000022C03D0416A41F4802128E0046809B38A
:103490002469A40720D04FF4D874056804EB011404
:1034A0002D5915F00405956005682D591AD0ED08C1
:1034B000556005682C5904F00204D4604FF4DA74A6
:1034C000056804EB01142E5906F00F06082E0CD3E4
:1034D00008250DE0E468DCE7416A41F4001141622F
:1034E000012070BD6D0D1560E3E72D5905F00F0546
:1034F000156105682D59C5F30725956105682C5997
:10350000240C54614FF4DC72046802EB0112A458DD
:103510001C700468A458240A5C700468A458240C25
:103520009C700468A258120EDA704FF4DE720468C0
:1035300002EB0112A4581C710468A458240A5C719F
:103540000468A458240C9C710468A258120EDA7105
:10355000006829B1016941F020010161002070BDBE
:10356000C16841F02001C160F8E72DE9F05F054630
:10357000006800244669D0F804908768D0F80CB041
:10358000D0F810A0D0F81880F10748D0F90714D06F
:1035900001218160B80703D5284600F0F6F90CE058
:1035A000780702D54FF4006407E0380702D54FF4DE
:1035B000805402E0284600F0E7F9F80516D529689E
:1035C0004FF480708860B80503D5284600F0DFF915
:1035D0000CE0780502D544F4005407E0380502D524
:1035E00044F4804402E0284600F0D0F9F80316D5F0
:1035F00029684FF480308860B80303D5284600F06E
:10360000C8F90CE0780302D544F4004407E038031D
:1036100002D544F4803402E0284600F0B9F93007BE
:1036200007D55FEACB6004D52968102044F4007404
:10363000C86070074FF0080707D55FEA0B7004D524
:103640002868C760284600F057F9B00706D52868F3
:10365000C068800702D0284600F050F9700607D5F0
:103660005FEACA6004D52968102044F480640861C8
:10367000B00607D55FEA0A7004D5286807612846B6
:1036800000F052F9F00606D528680069800702D0DC
:10369000284600F04AF9B00308D55FEAC96005D5AD
:1036A000296810204860284600F040F9F00307D54B
:1036B0005FEA097004D528684760284600F06AF977
:1036C000300446D55FEA497040D5F00504D55FEA7D
:1036D000C87001D044F00104B00504D55FEA8870D9
:1036E00001D544F00204700504D55FEA487001D5A5
:1036F00044F00404300529D518F0700F26D008F0E6
:103700007000402815D006DC102809D020280AD0E7
:10371000302816D10AE050280ED0602811D10EE0D2
:1037200044F008040DE044F010040AE044F02004E2
:1037300007E044F0400404E044F0800401E044F475
:1037400080742868816921F07001816129680420F2
:103750004860002C05D0686A204368622846FFF75D
:1037600089FEBDE8F09F70B5040003D094F82000F6
:1037700010B104E0012070BD204600F081F82068FF
:10378000016841F00101016000F010FB05460526CB
:1037900004E000F00BFB401B0A2811D820684068A9
:1037A000C007F6D02068016821F00201016000F036
:1037B000FDFA05460BE000F0F9FA401B0A2806D98D
:1037C000606A40F40030606284F82060D2E72068CC
:1037D00040688007EFD4207E0128206801683DD032
:1037E00021F080010160607E01282068016838D0E6
:1037F00021F040010160A07E01282068016833D0DB
:1038000021F020010160E07E0128206801682ED0AF
:1038100041F010010160207F01282068016829D053
:1038200021F008010160607F01282068016824D030
:1038300021F004010160D4E902010843D4E9041233
:10384000114308436168491E08432168C86100208C
:103850006062012084F82000002070BD41F08001EA
:10386000C0E741F04001C5E741F02001CAE721F07F
:103870001001CFE741F00801D4E741F00401D9E796
:1038800010B586B0044614216846FCF72AFF174994
:103890002068884228D11648016841F00071016013
:1038A000006800F00070059011481038016841F080
:1038B000020101600068012100F0020005904FF450
:1038C000407000900220CDE901010390092004908E
:1038D0006946084800F076F900220321142000F020
:1038E000DFFA142000F0CFFA06B010BD00640040EB
:1038F00040380240000402407047000010B5084BF9
:103900000446A3F11C020021FFF7B5FD002806D1F3
:1039100002212046FFF79CFD02490120087010BDDE
:10392000180700209202002070477047704700007F
:1039300070B5044690F82000012804D0606A40F475
:103940000020606218E0022084F8200020680168EE
:1039500021F00101016000F029FA05460EE000BFE8
:1039600000F024FA401B0A2808D9606A40F40030AD
:103970006062052084F82000012070BD2068406846
:10398000C007EDD1606270BD7047704770477047E7
:103990007047704770472DE9F0410446876D00F08D
:1039A00005FA064694F835000025022806D0802046
:1039B000606584F834500120BDE8F081206801681A
:1039C00021F0160101602068416921F08001416108
:1039D000206C08B9A06C20B12068016821F00801B2
:1039E00001602068016821F0010101600CE000F035
:1039F000DDF9801B052807D920206065032084F8A5
:103A0000350084F83450D7E720680068C007EED14D
:103A100094F85C103F208840B860012084F835009D
:103A200084F834500020C7E790F83510022903D0FD
:103A30008021416501207047052180F8351000681C
:103A4000016821F0010101600020704770B5044653
:103A500000F0ACF90546601C02D00448007804442C
:103A600000F0A4F9401BA042FAD370BD7002002000
:103A70002DE9F047044622480F46017E01290AD06D
:103A80000121804601764CF250394846FFF776F81E
:103A9000020003D02FE00220BDE8F0874FF0FF3096
:103AA00038602068174D012801D0A6681CE0207CF2
:103AB0006168FEF7C7FF4846FFF760F802462868CE
:103AC00020F00400286014E0217C3046FEF768FFF7
:103AD0004846FFF753F80200286820F0FA002860F3
:103AE00001D03E6005E0761CD4E902100844B042E3
:103AF000EAD8FEF77DFF002188F818101046CBE7C2
:103B000050020020103C02400348016841F000418F
:103B10000160002070470000103C02402DE9F04792
:103B20001B4E05461446307E1F468946012808D0A4
:103B3000012030764CF250384046FFF71FF818B19C
:103B400014E00220BDE8F0879DB1012D16D0022DB2
:103B500019D022463B464846FEF798FF4046FFF7FD
:103B60000DF80C490A6822F001020A600021317642
:103B7000E8E7E1B24846FEF779FFEFE7A1B2484631
:103B8000FEF79AFFEAE721464846FEF7A7FFE5E77A
:103B900050020020103C0240074900200A68002A19
:103BA00009DA054A054B0C3A1360054B13600968A6
:103BB000002900DA01207047103C024023016745CC
:103BC000AB89EFCD2DE9F84FDFF8ACA1002201243D
:103BD00003254FF00F090AF1040BAAF1040E00BFF0
:103BE0000B6804FA02F63340B3426ED10F7907F046
:103BF0000307012F01D0022F16D187684FEA420830
:103C000005FA08FC27EA0C07D1F80CC00CFA08FCEE
:103C10004CEA070CC0F808C04768B7430E79C6F3F2
:103C2000001696403E4346600E79F643B6070AD02A
:103C3000C6684FEA420C05FA0CF7BE438F6807FAD4
:103C40000CF73743C7600E7906F00306022E10D139
:103C5000D60800EB8608D8F8206057074FEAD76CE3
:103C600009FA0CF7BE430F6907FA0CF73743C8F897
:103C7000207006684FEA420C05FA0CF7BE430F7934
:103C800007F0030707FA0CF7374307604E6816F48E
:103C9000403F6BD0394E376847F48047376036680D
:103CA00022F0030706F480460096354E07EB060C1B
:103CB000DCF8086897074FEA177809FA08F7BE4357
:103CC000304FB84202D100271FE04FE02E4FB842DC
:103CD00001D1012719E02D4FB84201D1022714E08C
:103CE0002B4FB84201D103270FE02A4FB84201D130
:103CF00004270AE0284FB84201D1052705E0274FE5
:103D0000B84201D1062700E0072707FA08F7374332
:103D1000CCF80878DAF800605746D1F804C09E4322
:103D20005FEACC2C00D51E433E60DBF800605F46A6
:103D3000D1F804C09E435FEA8C2C00D51E433E6040
:103D4000DEF800607746D1F804C09E435FEA8C3C01
:103D500000D51E433E60084F083F3E68D1F804C0BE
:103D60009E435FEACC3C00D51E433E60521C102AA5
:103D7000FFF436AFBDE8F88F083C014044380240FC
:103D800000300140000002400004024000080240F0
:103D9000000C0240001002400014024000180240D3
:103DA0000AB1816170470904FBE70000014880689F
:103DB00070470000700200200248816802781144B8
:103DC00081607047700200200B4810B5016841F413
:103DD00000710160016841F480610160016841F493
:103DE00080710160032000F07BF80F2000F006F8DE
:103DF00000F024F8002010BD003C024070B50D4DCD
:103E000004464FF47A712878B1FBF0F00A4909684A
:103E1000B1FBF0F000F02CFD48B9102C07D20022C5
:103E20002146501E00F03CF800206C6070BD01205F
:103E300070BD0000700200207C0200200A4808B516
:103E4000016841F480410160006800F48040009006
:103E50000548001F016841F080510160006800F0D2
:103E60008050009008BD000044380240002809DB63
:103E700000F01F02012191404009800000F1E02084
:103E8000C0F880127047002809DB00F01F020121F2
:103E900091404009800000F1E020C0F80011704717
:103EA000F0B40E4B1B680C46C3F30223C3F10705A5
:103EB000042D00D90425191D072901D2002300E093
:103EC000DB1E012606FA05F1491E214099409E405D
:103ED000761E16403143F0BC02F0D1BC0CED00E080
:103EE000064900F0070208684FF6FF03184040EA51
:103EF0000220034A10430860704700000CED00E008
:103F00000000FA052DE9F8431748016841F0805197
:103F100001600068154F00F08050012600903E645B
:103F2000FFF744FF05464FF47A78114C05E000BFD7
:103F3000FFF73CFF401B40450DD86068C003F7D534
:103F40007E64FFF733FF0546464607E0FFF72EFF86
:103F5000401BB04202D90320BDE8F88360688003AB
:103F6000F4D50020F8E700004038024000000E427F
:103F7000007000402DE9F0470E46050065D0DFF8DF
:103F80001481D8F80000F7B200F00F00B04207D259
:103F900088F80070D8F8000000F00F00B04254D14B
:103FA00028683D4C810712D5400703D5206840F4AE
:103FB000E05020602878000703D5206840F4604076
:103FC00020602068A96820F0F0000843206028786D
:103FD000C0072DD0304968680839012812D002285E
:103FE00013D0032811D00968890700292DDA216828
:103FF00021F0030101432160FFF7D8FE814641F221
:10400000883A0EE009688903EFE709688901ECE75F
:10401000FFF7CCFEA0EB0901514502D90320BDE812
:10402000F0872068696800F00C00B0EB810FEFD1D9
:10403000D8F80010404601F00F01B14207D90770CF
:10404000006800F00F00B04201D00120E7E72878B7
:10405000400705D52068E96820F4E0500843206057
:104060002878000706D52068296920F4604040EAD6
:10407000C100206000F038F82168084AC1F303113C
:10408000515CC8400649086006480068FFF7B6FE64
:104090000020C4E7003C024008380240208C0008A1
:1040A0007C02002074020020044805490068096869
:1040B000044AC1F38221515CC84070477C02002051
:1040C00008380240308C0008044805490068096837
:1040D000044AC1F34231515CC84070477C02002061
:1040E00008380240308C0008224810B5006810F0F3
:1040F0000C02214815D04110042A11D01D4C241F58
:10410000082A0FD00C2A0CD12268236802F03F0243
:104110005B0221D52068C0F38810A0FB010120E0DC
:10412000084610BD2268236802F03F025B0205D5F5
:104130002068C0F38810A0FB010104E02168C1F3EE
:104140008811A1FB00010023FCF7E4F82168C1F30A
:104150000141491C49000AE02168C1F38811A1FB13
:1041600000010023FCF7D6F82168C1F30271B0FB0F
:10417000F1F010BD083802400024F4002DE9F84F9A
:1041800004007DD0DFF878B32078ABF10407C007D6
:10419000A7F1040550D0DBF800105846C1F38101A7
:1041A00001290FD00168C1F38101022902D13968C8
:1041B000490207D40068C0F38100032809D1386898
:1041C000400206D52868800336D560680028D8D01C
:1041D00032E06068B0F5803F10D0B0F5A02F2868BD
:1041E00010D020F480302860286820F480202860D7
:1041F0006068A0B1FFF7DAFD06460CE0286840F4DD
:104200008030F4E740F480202860F7E7FFF7CEFD28
:10421000801B642876D828688003F7D50CE0FFF768
:10422000C5FD064605E000BFFFF7C0FD801B642802
:10423000F0D828688003F7D42078DFF8C892800788
:104240004FF0000A44D5DBF80010584611F00C0F6F
:104250000FD00168C1F38101022902D139684902F6
:1042600007D50068C0F3810003280AD138684002EE
:1042700007D42868800715D5E068012800D111E02F
:104280003AE1E068B0B10120C9F80000FFF78EFD07
:10429000064604E0FFF78AFD801B0228BAD828688A
:1042A0008007F7D52868216920F0F80040EAC100AE
:1042B00028600DE0C9F800A0FFF778FD064604E08D
:1042C000FFF774FD801B02281CD828688007F7D4EC
:1042D0002078000727D5DFF828828B48616908F12C
:1042E0006C0881B101210160FFF760FD064604E022
:1042F000FFF75CFD801B022804D8D8F80000800777
:10430000F6D510E089E0C0F800A0FFF74FFD0646A3
:1043100005E000BFFFF74AFD801B02287DD8D8F8D2
:1043200000008007F6D42078400769D574484FF024
:10433000000838300068C0000BD47148383001687C
:1043400041F08051016000684FF0010800F080509A
:1043500000906E4E3068C00511D4306840F4807013
:104360003060FFF723FD009006E000BFFFF71EFD61
:104370000099401A022850D83068C005F6D5604E22
:10438000A068683601280FD00528306810D020F0CA
:1043900001003060306820F004003060A068B8B1DF
:1043A000FFF704FD00900FE0306840F00100F4E7F3
:1043B00040F004003060F7E7FFF7F8FC0099411A7D
:1043C00041F28830814264D830688007F4D50EE02D
:1043D000FFF7ECFC009007E0FFF7E8FC0099411ABA
:1043E00041F28830814254D830688007F4D4B8F163
:1043F000000F05D042483830016821F0805101603B
:10440000A069A8B3DBF80010C1F38101022947D0ED
:104410000228C9F860A005D000E03AE0FFF7C6FC2A
:10442000044639E0FFF7C2FC064604E0FFF7BEFC95
:10443000801B02282DD828688001F7D4F4E90701F1
:104440000843E168324A490802EB0141A26841EAA7
:1044500082110843217C40EA0160217D40EA01701D
:1044600038600120C9F86000FFF7A0FC044606E0B0
:1044700044E000BFFFF79AFC001B022809D8286817
:104480008001F7D53AE000BFFFF790FC001B02283F
:1044900002D90320BDE8F88F28688001F4D42DE00C
:1044A0000128F7D03868E26900F48001914223D1F5
:1044B000226A00F03F0191421ED147F6C071626A44
:1044C0000140B1EB821F17D1A26A4FF0FF3300F415
:1044D000403103EB5202B1EB024F0DD194F82C2086
:1044E00000F07061B1EB026F06D194F8301000F06B
:1044F000E040B0EB017F01D00120CBE70020C9E70D
:104500000838024000004742800E474200700040D9
:104510000000FFFF70B5040009D0606A002540B1BB
:1045200025616561A56294F8510040B10CE001205D
:1045300070BD6068B0F5827FF4D0E561F2E784F881
:104540005050204600F044F8022084F851002068C2
:10455000016821F040010160A088218900F4827087
:1045600001F404410843A18901F400610843217C5E
:1045700001F002010843217D01F001010843218B74
:1045800001F400710843217F01F03801084394F8D9
:10459000201001F080010843218D01F400510843EF
:1045A00021680860A069042101EA104094F82410F1
:1045B00001F010010843216848602068C16921F4B6
:1045C0000061C1616565012084F85100002070BD63
:1045D00030B587B0044614216846FCF782F8234DB5
:1045E00022680021224802230324AA421BD1204A28
:1045F0001432156845F480551560126802F4805233
:104600000592026842F0010202600068CDE90214DE
:1046100000F001000590E020CDE9000305200490A2
:10462000694614481EE0144DAA421DD1104A1032AA
:10463000156845F400451560126802F400420592C1
:10464000026842F0040202600068CDE9021400F042
:10465000040005904FF4E050CDE9000306200490DB
:1046600069460648FFF7AEFA07B030BD003001409A
:104670003038024000000240003C00400008024088
:104680002DE9FF4F81B01D46934604464FF00109C6
:104690000E9EFFF78BFB074694F8510061680128D6
:1046A00006D0B1F5827F3CD1A168C9BB042838D1BE
:1046B0000298002871D0BBF1000FFBD0002DF9D07B
:1046C00094F8500001282CD04FF0010A84F850A033
:1046D00094F85100042802D0052084F851004FF0CE
:1046E0000008C4F85480C4F838B0E587A58702995B
:1046F0002163E586A586C4F84080C4F8448020681C
:104700000168490603D4016841F040010160E06896
:10471000B0F5006F606808D0F0B3012D49D081E09A
:10472000FFE7022005B0BDE8F08F08B1012D39D1B7
:10473000206B21680088C860206B801C2063E08E9D
:10474000401EE0862EE02068816889070FD5E18E43
:1047500069B1B9F1010F0AD1216B0988C160206BE1
:10476000801C2063E08E401EE0864FF00009206828
:104770008168C9070CD0E18F51B1C068A16B088076
:10478000A06B801CA063E08F401EE0874FF0010902
:10479000FFF70CFBC01B01E00BE067E0B04201D368
:1047A000701C50D1E08E0028CDD1E08F0028CAD1F6
:1047B0003EE0206B216800780873206B401C20636A
:1047C000E08E401EE0862DE02068816889070FD5C5
:1047D000E18E69B1B9F1010F0AD1216B097801733A
:1047E000206B401C2063E08E401EE0864FF00009E5
:1047F00020688168C9070CD0E18F51B1C068A16BF6
:104800000870A06B401CA063E08F401EE0874FF053
:104810000109FFF7CBFAC01BB04202D3701C01D0D4
:1048200011E086B1E08E0028CED1E08F0028CBD1F8
:104830003A463146204601F0E3FB50B12020606546
:1048400084F8508012E084F851A084F8508003204E
:1048500068E7A06818B92068C1688068009084F88B
:1048600051A084F85080606D0028F1D0012059E7F4
:1048700010B5401EB0F1807F01D3012010BD4FF074
:10488000E02460610F21601701F0F9FF0020A061B2
:1048900007202061002010BD7047704710B590F8C8
:1048A0003C20012A22D0012280F83C20CA688C6872
:1048B00022F4407222434C6822F4806222430C6846
:1048C00022F4006222430C6922F4805222434C6994
:1048D00022F400522243C969002322F480420A4391
:1048E00001684A6480F83C30002010BD022010BDF1
:1048F00070B590F83C20012A32D0012480F83C4069
:10490000022280F83D2003685A689D6822F07006F4
:104910000A6832435A60134B02689A4214D0B2F1CB
:10492000804F11D0104B9A420ED0104B9A420BD0B0
:104930000F4B9A4208D00F4B9A4205D00E4B9A4229
:1049400002D00E4B9A4204D1496825F080031943E6
:10495000916080F83D40002180F83C10084670BD11
:10496000022070BD0000014000040040000800402B
:10497000000C0040000401400040014000180040CD
:1049800010B5040003D094F83D0010B107E00120F9
:1049900010BD002084F83C00204600F01FF80220E3
:1049A00084F83D00211D206801F0A6FC012084F858
:1049B000460084F83E0084F83F0084F8400084F804
:1049C000410084F8420084F8430084F8440084F8ED
:1049D000450084F83D00002010BD000008B50068C7
:1049E000154988420FD11548016841F00101016065
:1049F0000068002200F00100009001211920FFF75B
:104A00004FFA192012E0B0F1804F13D10B48001F6C
:104A1000016841F0010101600068002200F001001E
:104A200000900F211C20FFF73BFA1C20BDE8084036
:104A3000FFF729BA08BD00000000014044380240D9
:104A400090F83D10012901D001207047022180F823
:104A50003D100168CA6842F00102CA60006811494D
:104A6000884214D0B0F1804F11D00F4988420ED047
:104A70000E4988420BD00E49884208D00D49884221
:104A800005D00D49884202D00C49884204D1816882
:104A900001F00701062903D0016841F0010101601E
:104AA0000020704700000140000400400008004062
:104AB000000C00400004014000400140001800408C
:104AC0000168CA6822F00102CA6001680A6A41F2FC
:104AD00011131A4207D10A6A9B101A4203D10A68BD
:104AE00022F001020A60012180F83D100020704789
:104AF00070B5044690F83C000025012817D0012627
:104B000084F83C60022084F83D002068826822F02E
:104B1000770222F47F4282600868502838D00DDC8A
:104B200020284FD005DC90B3102811D14AE0022094
:104B300070BD302846D040280AD13BE060282FD0F5
:104B400070280DD0B0F5805F03D0B0F5005F12D0B3
:104B5000012584F83D60002084F83C00284670BDA3
:104B6000CB68D1E90121206801F03BFC2068816815
:104B700041F0770109E0CB68D1E90121206801F01B
:104B800030FC2068816841F480418160E1E719E0F0
:104B9000CA684968206801F0F9FC5021206806E0E5
:104BA000CA684968206801F002FD6021206801F0B0
:104BB00022FCCEE7CA684968206801F0E7FC402182
:104BC0002068F4E7226801461046F0E790F83C20A0
:104BD000012A0CD0012200F83C2F0223437050F828
:104BE0003C3C596142700021017008467047022028
:104BF000704770472DE9F04104460068C6680569B2
:104C00004FF00007A90713D5B10711D5F91E0161AF
:104C100001202077206880698007204602D0FFF7B6
:104C2000E8FF04E000F0A8F8204600F03AF9277702
:104C3000680716D5700714D521686FF00400086165
:104C4000022020772068806910F4407F204602D03F
:104C5000FFF7CFFF04E000F08FF8204600F021F9C5
:104C60002777280715D5300713D521686FF008007E
:104C70000861042020772068C0698007204602D0A0
:104C8000FFF7B7FF04E000F077F8204600F009F9DD
:104C90002777E80616D5F00614D521686FF01000C6
:104CA0000861082020772068C06910F4407F204602
:104CB00002D0FFF79EFF04E000F05EF8204600F00F
:104CC000F0F82777E80708D0F00706D021686FF0E2
:104CD00001000861204600F087F9280608D5300653
:104CE00006D521686FF0800008612046FFF7D4FDEB
:104CF000680608D5700606D521686FF04000086187
:104D0000204600F07DF9A8060AD5B00608D521682E
:104D10006FF0200008612046BDE8F041FFF7BDBDFF
:104D2000BDE8F08110B586B0044614216846FBF753
:104D3000D8FC0E492068884216D10D48002102682F
:104D400042F001020260006800F0010005904FF49B
:104D5000E06000900220CDE901010120CDE90310BF
:104D600069460448FEF72EFF06B010BD0000014062
:104D70003038024000000240704770B5044690F899
:104D80003C0000260D4601280FD0012084F83C008D
:104D90006AB1042A1DD0082A2FD00C2A3FD0012640
:104DA000002084F83C00304670BD022070BD2068B1
:104DB00001F02AFB2068816941F0080181612068C7
:104DC000816921F004018161206881692A691143A8
:104DD00011E0206801F048FB2068816941F400611E
:104DE00081612068816921F4806181612068816925
:104DF0002A6941EA02218161D2E7206801F06AFB59
:104E00002068C16941F00801C1612068C16921F0D1
:104E10000401C1612068C1692A69114311E0206859
:104E200001F08CFB2068C16941F40061C161206818
:104E3000C16921F48061C1612068C1692A6941EAC0
:104E40000221C161ACE710B5040003D094F83D0025
:104E500010B107E0012010BD002084F83C0020467E
:104E600000F01EF8022084F83D00211D206801F0AA
:104E700043FA012084F8460084F83E0084F83F009D
:104E800084F8400084F8410084F8420084F843002C
:104E900084F8440084F8450084F83D00002010BDEB
:104EA0007047704710B50446022249B104290ED05C
:104EB000082913D094F84100012816D0012010BD14
:104EC00094F83E000128F9D184F83E200FE094F8D0
:104ED0003F000128F2D184F83F2008E094F8400018
:104EE0000128EBD184F8402001E084F84120012220
:104EF000206801F069FA16492068164A884201D0F4
:104F0000904203D1436C43F40043436420688842D9
:104F100013D0B0F1804F10D00F4988420DD00F4907
:104F200088420AD00E49884207D0904205D00D49E8
:104F3000884202D00C49884204D1816801F00701FF
:104F4000062903D0016841F001010160002010BD75
:104F5000000001400004014000040040000800403F
:104F6000000C0040004001400018004030B50446ED
:104F70000D460068002201F027FA194B41F2111189
:104F800020688A10984202D0164B984209D1036AD1
:104F90000B4206D1036A134203D1436C23F400434E
:104FA00043642068036A0B4206D1016A114203D1AF
:104FB000016821F00101016001203DB1042D08D0FC
:104FC000082D09D084F84100002030BD84F83E004F
:104FD000FAE784F83F00F7E784F84000F4E70000C0
:104FE00000000140000401400068B0F1804F03D18F
:104FF00002484168491C416070470000800200205F
:1050000070477047094982B088420CD1084A012193
:10501000117001680A684968009105490122891CDC
:1050200002B000F0B5B902B070470000E4050020FE
:1050300088020020F8B5016804460868CA684B6910
:1050400010F00F0F4FF0000559D003F0010602F4E5
:105050009077374365D0C10705D0D10503D5616C82
:1050600041F001016164410705D5D90703D0616CA6
:1050700041F002016164810705D5D90703D0616C55
:1050800041F004016164010707D502F020013143BA
:1050900003D0616C41F008016164616C00293AD071
:1050A000800604D5900602D5204601F0C0FA20689B
:1050B0004069616CC0F38010090700D460B32046DA
:1050C00001F08EFA20684069400621D5206814302E
:1050D00050E8001F21F0400140E80012002AF5D1FD
:1050E000E06BA8B172490165E06BFEF79DFC0028FA
:1050F00011D0E06B016D01B0BDE8F04008478306B8
:105100000FD593060DD52046BDE8F84001F08FBAC3
:105110002046FFF777FFF8BD2046FFF773FF656471
:10512000F8BD266B2023012E7ED1C6067CD5D6067F
:105130007AD508684868009048694FF00206400632
:105140004DD5E26B106840684FF480770004000C86
:105150003AD0A18D814237D9E085D069B8422DD0AF
:1051600020680C3050E8001F21F4807140E80012E4
:10517000002AF5D12068143050E8001F21F0010109
:1051800040E80012002AF5D12068143050E8001FD2
:1051900021F0400140E80012002AF5D184F84230A5
:1051A000256320680C3050E8001F21F0100140E812
:1051B0000012002AF5D1E06BFEF7EDFB6663A08DCF
:1051C000E18D401A81B206E0A18D8142A8D1D0695B
:1051D000B842A5D166632046FFF713FFF8BDA08D46
:1051E000E18D401A81B2E08D0028F7D00029F5D07A
:1051F00020680C3050E8002F22F4907240E800271D
:10520000002FF5D12068143050E8002F22F0010261
:1052100040E80027002FF5D184F84230256320684C
:105220000C3050E8002F00E006E022F0100240E8C9
:105230000023002BF3D1CDE705062BD5150629D584
:1052400094F841002128C9D1A068B0F5805F01D150
:105250002069B0B1206A411C216221680078486051
:10526000E08C401E0004000CE084B7D12068C168C7
:1052700021F08001C1602068C16841F04001C16037
:10528000F8BD206A0088C0F308004860206A801CCE
:105290002062E5E74006F3D55006F1D5CA682046FE
:1052A00022F04002CA6084F8413000F0BBF8F8BD3B
:1052B000D365000870B5040004D094F841000025BF
:1052C00010B106E0012070BD84F84050204600F087
:1052D00023F8242084F841002068C16821F400519B
:1052E000C160204601F004FA2068016921F4904170
:1052F00001612068416921F02A0141612068C1688B
:1053000041F40051C1606564202084F8410084F8B4
:1053100042006563002070BD10B586B004461421BC
:105320006846FBF7DEF917492068884228D11648FD
:105330000021026842F400320260006800F400308C
:10534000059011481038026842F0010202600068BE
:1053500000F0010005900C2000900220CDE9010131
:10536000032003900720049069460848FEF72AFCB2
:1053700000220E212620FEF793FD2620FEF783FD56
:1053800006B010BD0044004040380240000002401A
:1053900090F84230202B01D00220704721B11AB181
:1053A0000023036301F02ABA012070470D4930B48D
:1053B000884215D10C498A88CB88521C02F03F02E2
:1053C0009A4205D08B78094C8D8863558A8001E01C
:1053D00001220A700449012230BC891CFFF7D8BFA2
:1053E00030BC7047E4050020880200203C06002005
:1053F00090F84130202B01D00220704779B172B172
:1054000001628284C28400214164212180F841101C
:105410000068C16841F08001C16000207047012030
:10542000704700000349884202D1034900204870B8
:1054300070470000E405002088020020FEE700001D
:1054400070B512480068816841F001018160104820
:105450000068816841F0010181600E480068816840
:1054600041F001018160FDF719FAFDF717FA0A4DC5
:105470000A4E04462046FDF7D1F92968B1FBF6F142
:1054800001EB41018842F5D370BD0000EC03002020
:1054900034040020A40300207C02002040420F00BE
:1054A00030B587B000241D480594069404940094F8
:1054B000019402941849039401604FF48031C0E9CB
:1054C00001140461047680F820401549C0E90A14EB
:1054D0000125C561C46080F830404561FDF730FEAC
:1054E00008B1FDF758FA1620CDE9040404A90B48C9
:1054F0000694FDF749FD08B1FDF74DFA0A20CDE904
:105500000005694605480295FDF768FD002801D0B1
:10551000FDF741FA07B030BD00200140A403002090
:105520000100000F1FB50021144800910191029164
:10553000114A039102604FF48032C0E901210161F8
:10554000017680F820100124C461C16080F8301019
:105550004461FDF7F5FD08B1FDF71DFA0B20CDE91B
:105560000004694605480294FDF738FD002801D083
:10557000FDF711FA1FBD000000210140EC030020DF
:105580007FB50024134800940194029410490394B9
:1055900001604FF48031C0E901140461047680F8A1
:1055A00020400125C561C46080F830404561FDF7A9
:1055B000C7FD08B1FDF7EFF9CDE90045694605489B
:1055C0000295FDF70BFD002801D0FDF7E4F97FBD42
:1055D0000022014034040020114810B50F49016039
:1055E0000321416000214FF08072C0E902124FF4A4
:1055F000102202614FF440124261017641768176B9
:105600000122C27601774177FEF7ADF8002803D07A
:10561000BDE81040FDF7BFB910BD000000640040B8
:105620007C0400202DE9F04186B014216846FBF788
:1056300058F82E480024016841F08001016001689B
:1056400001F080010591016841F0040101600168E9
:1056500001F004010591016841F001010160016858
:1056600001F001010591016841F008010160016844
:1056700001F008010591016841F002010160006834
:105680001B4F00F0020048F2100505900122294648
:105690003846FEF785FBFE14002231463846FEF7F9
:1056A0007FFBDFF85080012204214046FEF778FBA3
:1056B00000950125CDE90154694638460394FEF76B
:1056C00081FA0220CDE90204CDE900656946384639
:1056D000FEF778FA04200090CDE90154694640466F
:1056E0000394FEF76FFA06B0BDE8F081303802404F
:1056F00000000240000C0240114810B50F49016043
:105700004FF48271416000214FF40062C0E902123F
:105710000122C0E90412520282613822C0E9072145
:10572000416281620A21C162FEF7F4FE002803D0C3
:10573000BDE81040FDF72FB910BD0000003001405A
:10574000A4040020104810B50E4901604FF4827186
:10575000416000214FF40062C0E902120122C0E959
:1057600004125202C0E906210162416281620A21EB
:10577000C162FEF7CFFE002803D0BDE81040FDF760
:105780000AB910BD003C0040FC04002010B596B0E2
:1057900000240F9410941194129413941C216846C1
:1057A0001494FAF79EFF202107A8FAF79AFF3248CF
:1057B0003049C0E900144021816040F6CA01C0E9C7
:1057C00003140121416180218161FFF7D9F808B1FB
:1057D000FDF7E1F84FF480500F900FA92648FFF72E
:1057E00087F908B1FDF7D7F82348FFF72CFB08B17C
:1057F000FDF7D1F8139413A91F481494FFF778F814
:1058000008B1FDF7C8F87020009040F26540CDE97E
:1058100001040394049405940022694616480694F2
:10582000FFF7ABFA08B1FDF7B6F804226946124853
:10583000FFF7A3FA08B1FDF7AEF8082269460E4853
:10584000FFF79BFA08B1FDF7A6F8079408940994AE
:105850004FF400500A94CDE90B4007A906480E9476
:10586000FFF71CF808B1FDF796F80348FFF75AFA5E
:1058700016B010BD000001405405002010B586B0E0
:1058800000241648009401940294039404944FF069
:105890008041059401605921C0E90114611EC0E9ED
:1058A00003148461FFF76CF808B1FDF774F84FF446
:1058B0008050009069460948FFF71AF908B1FDF7D2
:1058C0006AF8049404A905480594FFF711F8002824
:1058D00001D0FDF760F806B010BD00009C05002067
:1058E0000C4810B50A4901604FF461214160002164
:1058F00081600C22C160C0E904128161C161FFF7BF
:10590000D9FC002803D0BDE81040FDF744B810BD15
:1059100000440040E4050020FEE7FEE7B5EEC00AC3
:10592000F6EE001AF1EE10FA10B516D310EE101ABA
:105930002148814211DCF5EEC00AF1EE10FA0CD3D9
:1059400010EE901A814208DCB5EEC01AF1EE10FAA2
:1059500003D311EE101A814205DDB0EE610AF0EEBC
:10596000400AB0EE401AB7EE002AF0EE612A32EE9D
:10597000403A9FED120A124943EE002A0C68FCEEF1
:10598000E22A12EE903A72EE602AF0EE610AE363C8
:1059900042EE800AFCEEE00A10EE902A72EE410A16
:1059A00040EE801ABCEEE10A10EE100A0B689A6312
:1059B0000968486310BD0000D7A3703F00A00C45E4
:1059C0005405002070B51C48FFF77AF8B6EE001AAF
:1059D000F6EE000AB6EE000AFFF7A0FF164D002013
:1059E0002968486201212846FFF7F0F8002822D1F3
:1059F000861E2868066100212846FFF753FA040036
:105A000016D104212846FFF74DFA040010D10821D1
:105A10002846FFF747FA04000AD12868066128469D
:105A2000FFF70EF8040003D101F080FC040001D060
:105A300000F004F8204670BD5405002070B501F058
:105A400009FC05461248FFF73BF800211048FFF714
:105A50008DFA04210E48FFF789FA08210C48FFF758
:105A600085FAB6EE001AF6EE000AB6EE000AFFF767
:105A700055FF074C00202168486201212046FFF7AE
:105A8000A5F821686FF001000861284670BD00008C
:105A900054050020704700002DE9F84F82462B483E
:105AA00089462B4900689046B0FBF1F047F6FE7638
:105AB00000EB8005FCF7F2FE264C074620680168E3
:105AC00041F04001016007E03846FCF7A7FEA8421C
:105AD00002D30320BDE8F88F20688168C943890795
